:1000000011C1000040C100003EC100003CC1000021
:100010003AC1000038C1000036C1000034C1000000
:1000200032C1000030C100002EC100002CC1000010
:100030002AC1000028C1000026C1000024C1000020
:1000400022C1000020C100001EC100001CC1000030
:100050001AC1000018C1000016C1000066C70000E8
:1000600012C10000C0C2000095C200000CC1000017
:100070000AC1000008C1000006C1000004C1000060
:1000800002C1000000C10000FEC00000FCC0000072
:10009000FAC00000F8C00000F6C00000F4C0000084
:1000A000F2C00000F0C00000EEC00000ECC0000094
:1000B000EAC00000E8C00000E6C00000E4C00000A4
:1000C000E2C00000E0C00000DEC00000DCC00000B4
:1000D000DAC00000D8C00000D6C00000D4C00000C4
:1000E000D2C0000058035B034A034E03520392033D
:1000F0005F03630369036D03710377037B037F036E
:100100009203850389038D0300000A0B02090C0D7D
:100110000E080703040100000000000000000000BA
:1001200000000000000000000000000000000000CF
:10013000000000001211100000000000000000008C
:10014000000000000000000000000000000011128C
:10015000131415160A0B0C0D0E0F000102030405F3
:1001600000002200250028002B002E003100340062
:1001700002010000050108010B010000210024001C
:1001800027002A002D003000330001010000040187
:1001900007010A0105050505070508080808020208
:1001A00002020A0A08080404040401010101010111
:1001B00001010303030303030303040707070C0CF4
:1001C0000C0C0C0C0C0C02020202060606060606BB
:1001D00006060B0B0B0B0B0B0B0B01021020200860
:1001E0000810204010204080020102010804020192
:1001F0000102040810204080804020100804020101
:100200008004020180402010080402010804020159
:1002100001020408102040800102040810204080E0
:10022000800C6B0C11241FBECFEFD1E2DEBFCDBF1F
:1002300000E00CBF24E0AEE8B2E001C01D92A132A4
:10024000B207E1F712E0A0E0B2E0E2EDFEE100E08B
:100250000BBF02C007900D92AE38B107D9F711E07D
:10026000C1E1D1E000E006C021970109802FFE0125
:100270000E94130DC031D10780E00807A9F70E9442
:10028000F00A0C94580FBCCECF92DF92EF92FF92FF
:100290000F931F93CF93DF936C017A018B01C0E022
:1002A000D0E0CE15DF0589F0D8016D918D01D60122
:1002B000ED91FC910190F081E02DC6011995892BFB
:1002C00011F47E0102C02196ECCFC701DF91CF91DE
:1002D0001F910F91FF90EF90DF90CF9008950895B8
:1002E00080E090E00895FC01538D448D252F30E08F
:1002F000842F90E0821B930B541710F0CF96089533
:1003000001970895FC01918D828D981761F0828D7F
:10031000DF01A80FB11D5D968C91928D9F5F9F7339
:10032000928F90E008958FEF9FEF0895FC01918DDB
:10033000828D981731F0828DE80FF11D858D90E048
:1003400008958FEF9FEF0895FC01918D228D892FE5
:1003500090E0805C9F4F821B91098F7399270895CD
:100360008CEF92E0F1DF21E0892B09F420E0822F6D
:100370000895FC01848DDF01A80FB11DA35ABF4F62
:100380002C91848D90E001968F739927848FA68994
:10039000B7892C93A089B1898C9180648C93938DBB
:1003A000848D981306C00288F389E02D80818F7DAB
:1003B00080830895EF92FF920F931F93CF93DF9363
:1003C000EC0181E0888F9B8D8C8D981305C0E889A6
:1003D000F989808185FD23C0F62E0B8D10E00F5F1B
:1003E0001F4F0F731127E02E8C8DE8120BC00FB634
:1003F00007FCFACFE889F989808185FFF5CFCE0126
:10040000B8DFF2CF8B8DFE01E80FF11DE35AFF4FED
:10041000F0820B8FEA89FB898081806207C0EE89B8
:10042000FF896083E889F98980818064808381E025
:1004300090E0DF91CF911F910F91FF90EF90089581
:10044000CF93DF93EC01888D8823C1F0EA89FB8983
:10045000808185FD05C0A889B9898C9186FD0EC073
:100460000FB607FCF5CF808185FFF2CFA889B98947
:100470008C9185FFEDCFCE017CDFE8CFDF91CF916E
:10048000089580E090E0892B19F06ADF811125C082
:1004900080E090E0892B41F080E090E0892B21F012
:1004A0000E94000081111CC080E090E0892B41F087
:1004B00080E090E0892B21F00E940000811113C0A0
:1004C00080E090E0892BA1F080E090E0892B81F022
:1004D0000E94000081110AC008950E940000D8CF38
:1004E0000E940000E1CF0E940000EACF0C940000BF
:1004F00008953FB7F8948091F7029091F802A09187
:10050000F902B091FA0226B5A89B05C02F3F19F059
:100510000196A11DB11D3FBFBA2FA92F982F882783
:10052000820F911DA11DB11DBC01CD0142E0660FDE
:10053000771F881F991F4A95D1F70895FC014481C0
:100540005581608171818CEF92E09EDE42E050E047
:1005500064E272E08CEF92E097CEFC01118210828F
:1005600013821282158214820C94D70AFC01118224
:10057000108213821282158214826115710549F06E
:10058000FB0101900020E9F73197AF01461B570BA3
:100590009EC708951F920F920FB60F9211240BB6AB
:1005A0000F922F933F934F935F936F937F938F930C
:1005B0009F93AF93BF93EF93FF938CEF92E0D9DEBD
:1005C000FF91EF91BF91AF919F918F917F916F912B
:1005D0005F914F913F912F910F900BBE0F900FBEE7
:1005E0000F901F9018951F920F920FB60F92112423
:1005F0000BB60F922F938F939F93EF93FF93E091FE
:100600000C03F0910D038081E0911203F09113032C
:1006100082FD12C09081809115038F5F8F732091AE
:100620001603821751F0E0911503F0E0E450FD4FFE
:10063000958F8093150301C08081FF91EF919F9169
:100640008F912F910F900BBE0F900FBE0F901F90A8
:100650001895362F90E0FC01E85FFE4F4491FC01B5
:10066000E652FE4F2491FC01EC56FE4F94919923E3
:1006700009F46BC0442309F455C050E0FA013197E6
:10068000E231F10508F04EC08827EE58FF4F8F4F3A
:100690000C94130D809180008F7707C080918000AB
:1006A0008F7D03C080918000877F809380003AC057
:1006B00084B58F7702C084B58F7D84BD33C08091AF
:1006C000B0008F7703C08091B0008F7D8093B00021
:1006D00029C0809190008F7707C0809190008F7D16
:1006E00003C080919000877F809390001BC0809111
:1006F000A0008F7707C08091A0008F7D03C08091FC
:10070000A000877F8093A0000DC0809120018F778B
:1007100007C0809120018F7D03C080912001877FD9
:1007200080932001E92FF0E0EE0FFF1FE05AFE4F0B
:10073000A591B4918FB7F894EC91311103C0209535
:100740002E2301C02E2B2C938FBF0895823091054C
:1007500038F0880F991F880F991F05970197F1F7B7
:1007600008958F929F92AF92BF92CF92DF92EF92B5
:10077000FF926B017C01BDDE4B015C01C114D10411
:10078000E104F104E9F0B5DEDC01CB018819990937
:10079000AA09BB09883E9340A105B10578F321E081
:1007A000C21AD108E108F10888EE880E83E0981E8D
:1007B000A11CB11CC114D104E104F10421F7DECF66
:1007C000FF90EF90DF90CF90BF90AF909F908F9071
:1007D00008952F923F924F925F926F927F928F92E5
:1007E0009F92AF92BF92CF92DF92EF92FF920F93C0
:1007F0001F93CF93DF93CDB7DEB7CC56D1400FB662
:10080000F894DEBF0FBECDBF7E0189ECE80EF11C6F
:10081000E5E0F1E0EC0FFD1F3496C959DE4FF98396
:10082000E883C756D140C701CC96C759DE4F99839C
:100830008883C956D1408CEF92E086DD892B09F47C
:100840005AC30EE812E02FB7F8948091F30290910A
:10085000F402A091F502B091F6022FBF8093040339
:1008600090930503A0930603B0930703E091FC0265
:10087000F091FD020284F385E02D8CEF92E0199552
:1008800097FD29C0F80181938F01F2E0023F1F0715
:10089000D1F66EE872E0CE018F599E4F67DE66E2B8
:1008A00072E0CE01855A9E4F61DE25E030E040E0E7
:1008B00050E0BE016F597E4F8E010F5F1F4FC80180
:1008C00024D667E272E0C80161D5D82EC80184D66B
:1008D000D110EAC0EFC12FB7F8948091F302909144
:1008E000F402A091F502B091F6022FBF40910403EB
:1008F000509105036091060370910703841B950BCB
:10090000A60BB70B409100035091010360910203C5
:100910007091030384179507A607B70708F4A6CFBD
:10092000B8CFCB5FDE4F188219821A821B82C55066
:10093000D140C959DE4FE881F981C756D140872D92
:1009400011928A95E9F7CE018B5F9E4FB3D460E791
:1009500087E090D3BE016B5F7E4FCE018D5B9E4FD3
:1009600005DE6CE372E0C80101DEBE016B5A7E4F0A
:10097000C8019CD561E872E082D5C95BDE4F488131
:100980005981C754D140FC01248135814217530756
:1009900009F073C2BC01CE018D5B9E4F15D5332487
:1009A0003394892B09F069C2C80116D6332009F4A3
:1009B00068C2BE01615B7E4FCE01895C9E4FCDDD7A
:1009C000BE016B5A7E4FCE01835C9E4FC6DD4090C8
:1009D0000304509004049AE0491651040CF04FC2ED
:1009E000CF5BDE4F28813981C154D1404FE9642E5D
:1009F00043E0742EF301848195818217930709F0F7
:100A000045C2BE01635C7E4FC301C559DE4F2883DA
:100A1000CB56D140C459DE4F3883CC56D140D4D4C4
:100A2000C559DE4F2881CB56D140C459DE4F38819D
:100A3000CC56D140892B09F029C2CE01835C9E4F50
:100A4000CBD5CE01895C9E4FC7D5CE018D5B9E4F25
:100A5000C3D5CE01875B9E4FBFD5CE01815B9E4F34
:100A6000BBD5532CCE018B5A9E4FB6D586E0A80E2F
:100A7000B11C5110B6C060E472E0C80177DDC80156
:100A80005DDDC801A9D5212CC759DE4FC880D980AA
:100A9000C956D140E6E0CE1AD108C6019DD5CE1484
:100AA000DF04C1F72110E0C1570167018CE3C80ED4
:100AB000D11C470166E272E0C40158DD96E0890E60
:100AC000911C8C149D04B1F78DE292E079D3282E0D
:100AD0008823D1F22FD464E670E080E090E041DE1C
:100AE000C12CD12C7EE2472E4E01E5E08E0E911CEA
:100AF000E6E03E2E87E1D8D280FF03C0812C912C06
:100B000073C08FEF1DD390E0959587958770809384
:100B1000000219821A821B821C82F401842D119218
:100B20008A95E9F7C801C6D360E787E0A3D2B80188
:100B3000CE01835C9E4F1ADD23E030E040E050E0C0
:100B4000BE01635C7E4FCE01895C9E4FDED46CE3B8
:100B500072E0CE01895C9E4F19D48823A1F1F8017F
:100B600001900020E9F731979F01201B310B43E0F2
:100B700050E0BE01635C7E4FCE018B5F9E4FC5D4BB
:100B80003601FFEF6F1A7F0A3C9CC0013D9C900D1F
:100B90001124BE016B5F7E4F8E0D9F1D08D5BE01D7
:100BA0006B5F7E4FCE018B599F4FD7DCCE018B59A7
:100BB0009F4FC4DCCE018B599F4F0ED5CE018B5F6A
:100BC0009E4F0AD5630164E670E080E090E0C9DDE5
:100BD000CE01895C9E4F00D5CE01835C9E4FFCD434
:100BE00089CF9FEF891A990A8C149D0409F44CCF80
:100BF000B501CE018B5A9E4FB0DC22E030E040E0E0
:100C000050E0BE016B5A7E4FC8017FD4BE016B5AC3
:100C10007E4FCE018B599F4FA0DCB801CE018B597E
:100C20009F4F44D4BC01CE01815B9E4F96DCCE0128
:100C30008B599F4FD1D4C801CFD46CE372E0C80167
:100C400095DCBE016B5A7E4FC80130D46EE372E072
:100C500016D4BE01615B7E4F29D4BC01CE01875BF7
:100C60009E4F7BDCC801B8D4C75BDE4F68817981B9
:100C7000C954D14044E650E0CE018B599F4F0E94A9
:100C8000490FCE018B599F4F9BD254D364EF71E033
:100C900080E090E066DD5EE2752E87E105D280FFA0
:100CA00040CECE01875B9E4F97D4CE01815B9E4F95
:100CB00093D4D8CE27E030E040E050E0BE016F5939
:100CC0007E4FC80122D463E572E0C8015FD3D82EFD
:100CD000C80182D4DD2009F439C0809103049091C9
:100CE00004046CE372E0892B09F44BC0C8013EDCBC
:100CF00069E973E0C801DAD3BC01C7012EDCC80181
:100D00006BD49FE9A92E93E0B92EC12CD12C8091F0
:100D1000030490910404C816D9060CF086C06EE353
:100D200072E0C80123DCB501C801C0D3FC014481D5
:100D3000558160817181C70176D3C8014DD4FFEF21
:100D4000CF1ADF0A86E0A80EB11CE1CF28E030E020
:100D500040E050E0BE016F597E4FC801D6D363E634
:100D600072E0C80113D3D82EC80136D4DD2009F4AF
:100D700073C080910304909104046CE372E0892BAA
:100D8000C1F4CE018B599F4FF1DB69E973E0CE01CD
:100D90008B599F4F8BD36BE572E071D3BC01C801B7
:100DA000DCDBC801CBDBC80117D4CE018B599F4FC8
:100DB0005AC0C801DBDB69E973E0C80177D3BC0125
:100DC000C701CBDBC80108D48BEDA82E83E0B82E79
:100DD000C12CD12C8091030490910404C816D9062B
:100DE00024F5F50160817181CE018B599F4FBEDBE7
:100DF0006EE372E0C801BADBBE016B597F4FC801D8
:100E000055D3FC014481558160817181C7010BD3A9
:100E1000C801E2D3CE018B599F4FDED3FFEFCF1A2B
:100E2000DF0A84E0A80EB11CD5CFF7016081718183
:100E300044E650E0C8010E94490FB801CE018B5929
:100E40009F4F94DBCE018B599F4F78DBCE018B599E
:100E50009F4FC2D3C70107C06CE672E0C80186DBB2
:100E6000C8016CDBC801B8D3CE01855A9E4FB4D3FC
:100E7000CE018F599E4FB0D3DECC312C95CD312C85
:100E8000DCCDCE018D5B9E4FA7D307CFF6E06F0E72
:100E9000711C8BED681683E0780609F0ABCDFFEF8F
:100EA0004F1A5F0A26E0249DC001259D900D112454
:100EB000BE01635C7E4F87569C4F79D3C95CDE4F81
:100EC00068817981C753D14044E650E0C801E1D739
:100ED0008091030490910404FC01EE0FFF1FEE0FBC
:100EE000FF1FE552FC4F1183008301969093040489
:100EF00080930304A2CDC459DE4F0FB6F894DEBF31
:100F00000FBECDBFDF91CF911F910F91FF90EF905A
:100F1000DF90CF90BF90AF909F908F907F906F9019
:100F20005F904F903F902F9008951F920F920FB6B1
:100F30000F9211242F933F938F939F93AF93BF935F
:100F40008091F3029091F402A091F502B091F60223
:100F50003091F20223E0230F2D3720F40196A11DDA
:100F6000B11D05C026E8230F0296A11DB11D2093D7
:100F7000F2028093F3029093F402A093F502B093EF
:100F8000F6028091F7029091F802A091F902B091D7
:100F9000FA020196A11DB11D8093F7029093F80209
:100FA000A093F902B093FA02BF91AF919F918F91F4
:100FB0003F912F910F900FBE0F901F9018958EBDEF
:100FC00000000DB407FEFDCF8EB5089545D70F93F1
:100FD0001F93CF93DF93EC0188819981009729F0CB
:100FE0002A813B812617370780F48B016F5F7F4F83
:100FF0004FD6009761F0998388831B830A832C81E5
:101000003D81232B11F4FC01108281E001C080E0BE
:10101000DF91CF911F910F910895CF93DF93EC0152
:1010200088819981009709F09BD5198218821D82C9
:101030001C821B821A82DF91CF910895CF93DF9398
:101040009CB59F7D9CBD9CB5937F9CBD9CB59C7FB2
:101050009CBD9DB591609DBDC5E0D4E0682F8A819F
:10106000F8DA8C899D89DF91CF9170CB81E0E6CF52
:1010700080E0E4CF1F93CF93DF931F921F92CDB7F1
:10108000DEB76A838983F4DF89818F71806297DF9D
:10109000182F6A81862F93DFE9DF812F0F900F9041
:1010A000DF91CF911F910895CF93DF931F92CDB71A
:1010B000DEB78983DDDF89818F7181DF8FEF7FDF8D
:1010C0008983D4DF89810F90DF91CF910895EF92CA
:1010D000FF920F931F93CF93DF9300D0CDB7DEB76E
:1010E000162F4A837B838983C3DF89818F71806256
:1010F00066DF082FE12E7B81F72E4A81140F1E1523
:1011000029F0F70181917F015ADFF9CFAFDF802FFE
:101110000F900F900F90DF91CF911F910F91FF9043
:10112000EF90089580E0C0DF81FD09C0682F626004
:1011300080E0A0DF65E070E080E090E012CB0895F1
:10114000CF93DF931F92CDB7DEB7898391DF89817B
:1011500036DF89838BDF89810F90DF91CF910895EE
:1011600081EEEECF209105043091060440910704F2
:10117000509108042417350719F0682F822F69CA87
:10118000089590E0FC01E652FE4F2491FC01EC56DC
:10119000FE4F8491882399F090E0880F991FFC01FD
:1011A000E658FE4FA591B491FC01E05AFE4F85919F
:1011B00094918FB7F894EC91E22BEC938FBF089544
:1011C000EF92FF920F931F93CF93DF938C0180E0F8
:1011D000C9DF8091150490911604B8DA8DE164DFBF
:1011E00081FF06C08091150490911604AFDAB8DF34
:1011F00080E05ADF682F6E7F80E03CDF82E054DFC2
:10120000EAE5F1E0E49161E070E001C0660FEA9583
:10121000EAF7682B82E02EDF4091130466E072E06B
:101220008AE055DF4091130466E072E080E14FDF11
:1012300060910C0481E11EDFF80101900020E9F7C4
:101240003197C0910C04DE2FD01BCD1708F4DC2F92
:1012500080910D04811102C0CD1B01C0C0E008DFE8
:1012600080EAADDE7801D00FDE1529F0F70181911B
:101270007F01A5DEF9CFCC2321F080E0A0DEC150B4
:10128000FACFF4DE81E06EDF8FEF5ADF8073E1F397
:1012900080E068DF60E787E0EDDE84FF03C060DFA9
:1012A00080E001C081E0DF91CF911F910F91FF900D
:1012B000EF900895CF92DF92EF92FF920F931F93DA
:1012C000CF93DF931F92CDB7DEB7E82E20910C04A9
:1012D000223310F4D22E02C082E3D82E80910D0466
:1012E000811103C0C22ECD1801C0C12C9983C0DE6C
:1012F00081E665DEF82E0E2D9981192FDA94FFEF25
:10130000DF1631F08FEF5BDEF80181938F01F6CFAE
:10131000CC2021F08FEF53DECA94FACFA7DE8F2DB9
:101320000F90DF91CF911F910F91FF90EF90DF9081
:10133000CF900895F7DE80E0B7DE682F616080E02F
:1013400099DE60E787E096DE81E00CDF80910E0495
:10135000882339F0409113046EE074E08AE0B7DE30
:1013600010C082E0A1DEEAE5F1E0E49121E030E0A6
:1013700001C0220FEA95EAF72095622F682382E0E8
:1013800079DE8DE191DE81FDEBCE0895FC012481B3
:101390003581232B31F421E06115710599F0FB01B2
:1013A00008C0FC01808191816115710531F421E053
:1013B000FC018081882331F004C05BD521E0892BBA
:1013C00009F020E0822F0895CF93DF93DC01ED91A7
:1013D000FC91EB01A881B981309711F01097C9F405
:1013E000109759F0EB012C813D81232B31F08C912A
:1013F00090E091958195910913C0309779F0DC01C7
:1014000014968D919C911597892B41F0808190E0E5
:1014100007C0BD01CF01DF91CF912BC580E090E0E7
:10142000DF91CF910895EF92FF920F931F93CF9387
:10143000DF93FC01248135816115710511F480E091
:1014400017C04115510599F07B01EC018A01020F8B
:10145000131FB801BCDD882391F3288139818C8169
:101460009D81B701820F931F0DD51D830C8381E0F1
:10147000DF91CF911F910F91FF90EF900895CF933F
:10148000DF93EC016115710559F0FB01019000201B
:10149000E9F73197AF01461B570BC5DF811102C039
:1014A000CE01BBDDCE01DF91CF910895CF93DF93C5
:1014B000EC01FB014481558160817181B4DF8111B0
:1014C00002C0CE01AADDCE01DF91CF910895EF9247
:1014D000FF920F931F93CF93DF93EC017B018A015F
:1014E000BA0175DD811103C0CE0197DD06C01D83F1
:1014F0000C83B70188819981C5D4CE01DF91CF914A
:101500001F910F91FF90EF900895BF92CF92DF92BD
:10151000EF92FF920F931F93CF93DF937C016B01A8
:10152000EA0189012417350720F48D2FE901042FE2
:10153000182F66E272E0C70119D8D60114968D9172
:101540009C911597C817D90738F58017910708F4AB
:101550008C01D601ED91FC911197E00FF11FB08045
:1015600010824D915C91BA016C0F7D1F6115710560
:1015700059F0FB0101900020E9F73197AF01461BBC
:10158000570BC701A4DF02C0C70147DDD601ED91AB
:10159000FC91E00FF11FB082C701DF91CF911F9145
:1015A0000F91FF90EF90DF90CF90BF900895CF9371
:1015B000DF93EC01FB018617970751F06081718181
:1015C0006115710521F04481558181DF01C025DD60
:1015D000CE01DF91CF910895FC0180819181C0C23D
:1015E000789484B5826084BD84B5816084BD85B5FE
:1015F000826085BD85B5816085BD80916E0081600A
:1016000080936E00109281008091810082608093AF
:1016100081008091810081608093810080918000B1
:101620008160809380008091B10084608093B100DC
:101630008091B00081608093B000809191008260C1
:1016400080939100809191008160809391008091BE
:1016500090008160809390008091A10082608093CF
:10166000A1008091A10081608093A1008091A000E1
:1016700081608093A000809121018260809321018C
:1016800080912101816080932101809120018160FE
:101690008093200180917A00846080937A00809109
:1016A0007A00826080937A0080917A0081608093D2
:1016B0007A0080917A00806880937A001092C1004D
:1016C000E0910C03F0910D0382E08083E091080328
:1016D000F09109031082E0910A03F0910B038FEC63
:1016E000808310921403E0911003F091110386E0BF
:1016F0008083E0910E03F0910F03808180618083ED
:10170000E0910E03F0910F03808188608083E09167
:101710000E03F0910F03808180688083E0910E03B7
:10172000F0910F0380818F7D8083809105049091DB
:10173000060420910704309108048217930709F0EA
:1017400020DD8091070490910804209105043091D8
:1017500006042817390709F014DDCFB7F8948091F3
:10176000FB02811121C0E9ECF1E08491EFE0F2E0AD
:101770009491E82FF0E0EE0FFF1FE658FE4FA59181
:10178000B491EC91E92321F461E085E30E942903FF
:1017900085E3F7DC8CB580618CBD8CB580648CBD35
:1017A00084E3EFDC83E3EDDC8091FB028F5F8093C9
:1017B000FB02CFBF80E0D6DC81E040DC65E070E07A
:1017C00080E090E00E94B1036CE080E053DC6FE5C4
:1017D00084E050DC86E068DC877DC82FC0628BE93E
:1017E00090E0A0E0B0E08093150490931604A093DD
:1017F0001704B09318046C2F86E03CDC86E054DCC0
:101800008C1709F464C086E04FDC86E04DDC45E5CA
:1018100050E060E070E0409315045093160460932C
:10182000170470931804682F677D86E023DC86E038
:101830003BDC1EDC80E5C3DB83E7C1DB17DC60E05B
:101840008DE118DC60E08CE115DC10920D0460E79E
:1018500087E010DC6CE485E00DDC82EE71DC80DC7E
:1018600061DC80E021DC682F6E7F80E003DC40914A
:10187000130450E060E072E08EE094E0F1D2E4E521
:10188000F1E084914091130460E072E020DCEEE42A
:10189000F1E0849160910C04EDDB82E005DCEAE587
:1018A000F1E0E49161E070E001C0660FEA95EAF7CB
:1018B000682B82E0DFDB86E0F7DB887F682F6160E2
:1018C00086E0D8DB0E94E9030E944102FBCF81E061
:1018D00080930B0498CFCF93DF938FE993E0892B0C
:1018E00029F489E993E0DF91CF9176CEC5EDD3E07D
:1018F000CE0172DE269783E0C939D807C9F7F1CF48
:10190000CF93DF931092FF021092FE0288EE93E0D5
:10191000A0E0B0E08093000390930103A093020342
:10192000B093030386E192E09093FD028093FC0262
:1019300085EC90E0909309038093080384EC90E099
:1019400090930B0380930A0380EC90E090930D0337
:1019500080930C0381EC90E090930F0380930E032F
:1019600082EC90E0909311038093100386EC90E05A
:101970009093130380931203109215031092160391
:10198000109217031092180387E090E090930604DA
:101990008093050488E090E0909308048093070406
:1019A00010920B0480E280930C0410920D0485E0E9
:1019B0008093130485E090E0A0E0B0E080931904E8
:1019C00090931A04A0931B04B0931C0410920E046D
:1019D0006AE872E089E993E00E94B602C0E0D0E0D4
:1019E000269666E272E0CE0187569C4F0E94B602B0
:1019F000CC33D105A9F7CBEDD3E086E090E01BD046
:101A00009983888386E090E016D09B838A8324960E
:101A100084E0C330D80789F71092040410920304BD
:101A2000DF91CF910895EE0FFF1F881F8BBF0790A6
:101A3000F691E02D1994CF93DF938230910510F445
:101A400082E090E0E0911F04F091200420E030E07B
:101A5000C0E0D0E0309711F140815181481759071B
:101A6000C0F04817590761F482819381209719F0DB
:101A70009B838A832BC09093200480931F0426C0ED
:101A80002115310519F04217530718F49A01BE01C8
:101A9000DF01EF010280F381E02DDCCF211531055C
:101AA00009F1281B390B2430310590F412968D91E1
:101AB0009C9113976115710521F0FB01938382833B
:101AC00004C09093200480931F04FD01329644C00B
:101AD000FD01E20FF31F81939193225031092D9361
:101AE0003C933AC020911D0430911E04232B41F4F5
:101AF00020910E0230910F0230931E0420931D049A
:101B000020910C0230910D022115310541F42DB7C1
:101B10003EB74091100250911102241B350BE09109
:101B20001D04F0911E04E217F307A0F42E1B3F0BD7
:101B30002817390778F0AC014E5F5F4F241735073F
:101B400048F04E0F5F1F50931E0440931D04819375
:101B5000919302C0E0E0F0E0CF01DF91CF910895D2
:101B60000F931F93CF93DF93009709F48CC0FC0170
:101B700032971382128200911F04109120040115E4
:101B8000110581F420813181820F931F20911D0462
:101B900030911E042817390779F5F0931E04E0935D
:101BA0001D0471C0D80140E050E0AE17BF0750F4EB
:101BB00012962D913C911397AD012115310509F134
:101BC000D901F3CF9D01DA013383228360817181D2
:101BD000860F971F8217930769F4EC0128813981DA
:101BE000260F371F2E5F3F4F318320838A819B81D1
:101BF00093838283452B29F4F0932004E0931F0400
:101C000042C01396FC93EE931297ED0149915991BE
:101C10009E01240F351FE217F30771F48081918133
:101C2000840F951F029611969C938E9382819381C7
:101C300013969C938E931297E0E0F0E0D8011296F1
:101C40008D919C911397009719F0F8018C01F6CFB4
:101C50008D919C9198012E5F3F4F820F931F209191
:101C60001D0430911E042817390769F4309729F4B0
:101C70001092200410921F0402C01382128210934B
:101C80001E0400931D04DF91CF911F910F910895C1
:101C90006F927F928F929F92AF92BF92CF92DF927C
:101CA000EF92FF920F931F93CF93DF93EC01009776
:101CB00081F4CB01DF91CF911F910F91FF90EF90B5
:101CC000DF90CF90BF90AF909F908F907F906F905C
:101CD000B2CEFC01E60FF71F9C0122503109E2173A
:101CE000F30708F4A8C0D9010D911C9111970617AC
:101CF0001707A8F00530110508F49BC0C801049728
:101D00008617970708F495C002501109061B170B98
:101D1000019311936D937C93CF0122DF8AC05B0105
:101D2000A01AB10A4C01800E911EA0911F04B0911F
:101D3000200440E050E0E12CF12C109709F44AC057
:101D4000A815B905D1F56D907C901197630182E0DB
:101D5000C80ED11CCA14DB0480F1A3014A195B0927
:101D60006A0182E0C80ED11C1296BC90129713969D
:101D7000AC91B5E0CB16D10440F0B282A38351837D
:101D80004083D9016D937C930AC00E5F1F4FC3013E
:101D9000800F911FF90191838083EB2DFA2FE114BD
:101DA000F10431F0D7011396FC93EE93129741C0E2
:101DB000F0932004E0931F043CC08D919C911197F7
:101DC0004817590708F4AC017D0112960D90BC919B
:101DD000A02DB3CF80911D0490911E048815990504
:101DE000E1F446175707C8F480910C0290910D0258
:101DF000009741F48DB79EB74091100250911102A7
:101E0000841B950BE817F907B0F4F0931E04E093D8
:101E10001D04F901718360830CC0CB010CDE7C01D1
:101E2000009749F0A801BE011BD0CE0199DEC70181
:101E300004C0CE0102C080E090E0DF91CF911F91FD
:101E40000F91FF90EF90DF90CF90BF90AF909F9059
:101E50008F907F906F90089581E090E0F89428C073
:101E6000FB01DC0102C001900D9241505040D8F7B7
:101E70000895FB01DC018D91019080190110D9F3C7
:101E8000990B0895FB01DC0101900D920020E1F710
:101E90000895FB01DC014150504048F001900D9243
:101EA0000020C9F701C01D9241505040E0F708954D
:101EB00011E0C1E1D1E000E005C0802FFE01B3DDFB
:101EC0002196011DC231D10780E00807B1F7F894CF
:021ED000FFCF42
:101ED200414243444500454443424100000021043D
:101EE200800000000000DA01440173012002A40115
:101EF200820196010D0A0073746172740064697341
:101F0200636F4E65696768626F72730049645F0050
:101F12006572726F7220696E2068616E64536861C7
:101F22006B6500726571536F6E73006E6F2073750F
:101F32006E7300726571506970657300756E7265BB
:101F4200636F676E697A6564206D65737361676537
:0E1F5200005F61636B506970650030303000D5
:00000001FF
