:1000000011C1000040C100003EC100003CC1000021
:100010003AC1000038C1000036C1000034C1000000
:1000200032C1000030C100002EC100002CC1000010
:100030002AC1000028C1000026C1000024C1000020
:1000400022C1000020C100001EC100001CC1000030
:100050001AC1000018C1000016C100000BC7000043
:1000600012C1000078C200004DC200000CC10000A7
:100070000AC1000008C1000006C1000004C1000060
:1000800002C1000000C10000FEC00000FCC0000072
:10009000FAC00000F8C00000F6C00000F4C0000084
:1000A000F2C00000F0C00000EEC00000ECC0000094
:1000B000EAC00000E8C00000E6C00000E4C00000A4
:1000C000E2C00000E0C00000DEC00000DCC00000B4
:1000D000DAC00000D8C00000D6C00000D4C00000C4
:1000E000D2C0000010031303020306030A034A03ED
:1000F00017031B032103250329032F0333033703AE
:100100004A033D034103450300000A0B02090C0D9D
:100110000E080703040100000000000000000000BA
:1001200000000000000000000000000000000000CF
:10013000000000001211100000000000000000008C
:10014000000000000000000000000000000011128C
:10015000131415160A0B0C0D0E0F000102030405F3
:1001600000002200250028002B002E003100340062
:1001700002010000050108010B010000210024001C
:1001800027002A002D003000330001010000040187
:1001900007010A0105050505070508080808020208
:1001A00002020A0A08080404040401010101010111
:1001B00001010303030303030303040707070C0CF4
:1001C0000C0C0C0C0C0C02020202060606060606BB
:1001D00006060B0B0B0B0B0B0B0B01021020200860
:1001E0000810204010204080020102010804020192
:1001F0000102040810204080804020100804020101
:100200008004020180402010080402010804020159
:1002100001020408102040800102040810204080E0
:100220006C0C570C11241FBECFEFD1E2DEBFCDBF47
:1002300000E00CBF24E0AEE8B2E001C01D92A132A4
:10024000B207E1F712E0A0E0B2E0E6EAFEE100E08A
:100250000BBF02C007900D92AE38B107D9F711E07D
:10026000C1E1D1E000E006C021970109802FFE0125
:100270000E94FD0CC031D10780E00807A9F70E9459
:10028000DC0A0C94420FBCCE089580E090E0089503
:10029000FC01538D448D252F30E0842F90E0821B8C
:1002A000930B541710F0CF96089501970895FC0111
:1002B000918D828D981761F0828DDF01A80FB11D9D
:1002C0005D968C91928D9F5F9F73928F90E00895C1
:1002D0008FEF9FEF0895FC01918D828D981731F07B
:1002E000828DE80FF11D858D90E008958FEF9FEFCF
:1002F0000895FC01918D228D892F90E0805C9F4FA5
:10030000821B91098F73992708958CEF92E0F1DF9A
:1003100021E0892B09F420E0822F0895FC01848DCF
:10032000DF01A80FB11DA35ABF4F2C91848D90E01F
:1003300001968F739927848FA689B7892C93A089FA
:10034000B1898C9180648C93938D848D981306C0B1
:100350000288F389E02D80818F7D80830895EF925C
:10036000FF920F931F93CF93DF93EC0181E0888F6F
:100370009B8D8C8D981305C0E889F989808185FD56
:1003800023C0F62E0B8D10E00F5F1F4F0F73112748
:10039000E02E8C8DE8120BC00FB607FCFACFE8896F
:1003A000F989808185FFF5CFCE01B8DFF2CF8B8D43
:1003B000FE01E80FF11DE35AFF4FF0820B8FEA892F
:1003C000FB898081806207C0EE89FF896083E889AC
:1003D000F98980818064808381E090E0DF91CF9112
:1003E0001F910F91FF90EF900895CF93DF93EC0151
:1003F000888D8823C1F0EA89FB89808185FD05C04D
:10040000A889B9898C9186FD0EC00FB607FCF5CF7F
:10041000808185FFF2CFA889B9898C9185FFEDCFC6
:10042000CE017CDFE8CFDF91CF91089580E090E0AE
:10043000892B19F06ADF811125C080E090E0892BBB
:1004400041F080E090E0892B21F00E9400008111B2
:100450001CC080E090E0892B41F080E090E0892B87
:1004600021F00E940000811113C080E090E0892BF0
:10047000A1F080E090E0892B81F00E9400008111C2
:100480000AC008950E940000D8CF0E940000E1CF6A
:100490000E940000EACF0C94000008953FB7F89442
:1004A0008091F7029091F802A091F902B091FA02BE
:1004B00026B5A89B05C02F3F19F00196A11DB11DBF
:1004C0003FBFBA2FA92F982F8827820F911DA11DFA
:1004D000B11DBC01CD0142E0660F771F881F991F37
:1004E0004A95D1F70895FC0144815581608171815D
:1004F0008CEF92E010D542E050E064E272E08CEFC5
:1005000092E009C51F920F920FB60F9211240BB6FD
:100510000F922F933F934F935F936F937F938F939C
:100520009F93AF93BF93EF93FF938CEF92E0F6DE30
:10053000FF91EF91BF91AF919F918F917F916F91BB
:100540005F914F913F912F910F900BBE0F900FBE77
:100550000F901F9018951F920F920FB60F921124B3
:100560000BB60F922F938F939F93EF93FF93E0918E
:100570000C03F0910D038081E0911203F0911303BD
:1005800082FD12C09081809115038F5F8F7320913F
:100590001603821751F0E0911503F0E0E450FD4F8F
:1005A000958F8093150301C08081FF91EF919F91FA
:1005B0008F912F910F900BBE0F900FBE0F901F9039
:1005C0001895362F90E0FC01E85FFE4F4491FC0146
:1005D000E652FE4F2491FC01EC56FE4F9491992374
:1005E00009F46BC0442309F455C050E0FA01319777
:1005F000E231F10508F04EC08827EE58FF4F8F4FCB
:100600000C94FD0C809180008F7707C08091800052
:100610008F7D03C080918000877F809380003AC0E7
:1006200084B58F7702C084B58F7D84BD33C080913F
:10063000B0008F7703C08091B0008F7D8093B000B1
:1006400029C0809190008F7707C0809190008F7DA6
:1006500003C080919000877F809390001BC08091A1
:10066000A0008F7707C08091A0008F7D03C080918C
:10067000A000877F8093A0000DC0809120018F771C
:1006800007C0809120018F7D03C080912001877F6A
:1006900080932001E92FF0E0EE0FFF1FE05AFE4F9C
:1006A000A591B4918FB7F894EC91311103C02095C6
:1006B0002E2301C02E2B2C938FBF089582309105DD
:1006C00038F0880F991F880F991F05970197F1F748
:1006D00008958F929F92AF92BF92CF92DF92EF9246
:1006E000FF926B017C01DADE4B015C01C114D10485
:1006F000E104F104E9F0D2DEDC01CB0188199909AB
:10070000AA09BB09883E9340A105B10578F321E011
:10071000C21AD108E108F10888EE880E83E0981E1D
:10072000A11CB11CC114D104E104F10421F7DECFF6
:10073000FF90EF90DF90CF90BF90AF909F908F9001
:1007400008952F923F924F925F926F927F928F9275
:100750009F92AF92BF92CF92DF92EF92FF920F9350
:100760001F93CF93DF93CDB7DEB7CC56D1400FB6F2
:10077000F894DEBF0FBECDBF7E0189ECE80EF11C00
:10078000E5E0F1E0EC0FFD1F3496C959DE4FF98327
:10079000E883C756D140C701CC96C759DE4F99832D
:1007A0008883C956D1408CEF92E0A3DD892B09F4F0
:1007B00047C30EE812E02FB7F8948091F3029091AE
:1007C000F402A091F502B091F6022FBF80930403CA
:1007D00090930503A0930603B0930703E091FC02F6
:1007E000F091FD020284F385E02D8CEF92E01995E3
:1007F00097FD29C0F80181938F01F2E0023F1F07A6
:10080000D1F66EE872E0CE018F599E4F6FD666E248
:1008100072E0CE01855A9E4F69D625E030E040E077
:1008200050E0BE016F597E4F8E010F5F1F4FC80110
:1008300071D667E272E0C80197D5D82EC8014AD6B2
:10084000D110EAC0DBC12FB7F8948091F3029091E8
:10085000F402A091F502B091F6022FBF409104037B
:10086000509105036091060370910703841B950B5B
:10087000A60BB70B40910003509101036091020356
:100880007091030384179507A607B70708F4A6CF4E
:10089000B8CFCB5FDE4F188219821A821B82C550F7
:1008A000D140C959DE4FE881F981C756D140872D23
:1008B00011928A95E9F7CE018B5F9E4FE9D460E7EC
:1008C00087E0C6D3BE016B5F7E4FCE018D5B9E4F2E
:1008D0000DD66CE372E0C80109D6BE016B5A7E4F9B
:1008E000C801D2D561E872E0B8D5C95BDE4F488156
:1008F0005981C754D140FC012481358142175307E7
:1009000009F05FC2BC01CE018D5B9E4F4BD53324F5
:100910003394892B09F055C2C801DCD5332009F482
:1009200054C2BE01615B7E4FCE01895C9E4FD6D51D
:10093000BE016B5A7E4FCE01835C9E4FCFD5409057
:100940000304509004049AE0491651040CF03BC291
:10095000CF5BDE4F28813981C154D1404FE9642EED
:1009600043E0742EF301848195818217930709F087
:1009700031C2BE01635C7E4FC301C559DE4F28837F
:10098000CB56D140C459DE4F3883CC56D1400AD51E
:10099000C559DE4F2881CB56D140C459DE4F38812E
:1009A000CC56D140892B09F015C2CE01835C9E4FF5
:1009B00091D5CE01895C9E4F8DD5CE018D5B9E4F2A
:1009C00089D5CE01875B9E4F85D5CE01815B9E4F39
:1009D00081D5532CCE018B5A9E4F7CD586E0A80E34
:1009E000B11C5110A2C060E472E0C8017FD5C801FB
:1009F0007ADDC8016FD5212CC759DE4FC880D98058
:100A0000C956D140E6E0CE1AD108C60163D5CE144E
:100A1000DF04C1F72110CCC1570167018CE3C80E78
:100A2000D11C470166E272E0C40160D596E0890EF0
:100A3000911C8C149D04B1F78DE292E0AFD3282E67
:100A40008823D1F265D464E670E080E090E041DE76
:100A5000C12CD12C7EE2472E4E01E5E08E0E911C7A
:100A6000E6E03E2E87E10ED380FF03C0812C912C5F
:100A70005FC08FEF53D390E09595879587708093F3
:100A8000000219821A821B821C82F401842D1192A9
:100A90008A95E9F7C801FCD360E787E0D9D2B801AD
:100AA000CE01895C9E4F22D523E030E040E050E04B
:100AB000BE01695C7E4FCE018B5F9E4F2BD56CE3F0
:100AC00072E0CE018B5F9E4F4FD4882329F1F8014D
:100AD00001900020E9F731979F01201B310B43E083
:100AE00050E0BE01695C7E4FCE018B599F4F12D5FD
:100AF0003601FFEF6F1A7F0A3C9CC0013D9C900DB0
:100B00001124BE016B597F4F8E0D9F1DCED4CE0197
:100B10008B599F4FDFD46301CE018B5F9E4FDAD498
:100B2000CE01895C9E4FD6D49DCF9FEF891A990A3A
:100B30008C149D0409F460CFB501CE018B5A9E4FF1
:100B4000CDD422E030E040E050E0BE016B5A7E4F51
:100B5000C801E0D4BE016B5A7E4FCE018B599F4F26
:100B6000BDD4B801CE018B599F4F8ED4BC01CE01AC
:100B7000815B9E4FB3D4CE018B599F4FABD4C8013C
:100B8000A9D46CE372E0C801B1D4BE016B5A7E4FA8
:100B9000C8017AD46EE372E060D4BE01615B7E4F1F
:100BA00073D4BC01CE01875B9E4F98D4C80192D408
:100BB000C75BDE4F68817981C954D14044E650E07B
:100BC000CE018B599F4F0E94330FCE018B599F4FFF
:100BD000E5D29ED364EF71E080E090E07ADD5EE2E2
:100BE000752E87E14FD280FF54CECE01875B9E4F9A
:100BF00071D4CE01815B9E4F6DD4ECCE27E030E006
:100C000040E050E0BE016F597E4FC80183D463E5D8
:100C100072E0C801A9D3D82EC8015CD4DD2009F444
:100C200039C080910304909104046CE372E0892B35
:100C300009F44BC0C8015AD469E973E0C80124D44F
:100C4000BC01C7014BD4C80145D49FE9A92E93E04C
:100C5000B92EC12CD12C8091030490910404C816A4
:100C6000D9060CF086C06EE372E0C8013FD4B5012E
:100C7000C8010AD4FC014481558160817181C7019A
:100C8000C0D3C80127D4FFEFCF1ADF0A86E0A80E31
:100C9000B11CE1CF28E030E040E050E0BE016F59E8
:100CA0007E4FC80137D463E672E0C8015DD3D82E09
:100CB000C80110D4DD2009F473C080910304909121
:100CC00004046CE372E0892BC1F4CE018B599F4F71
:100CD0000DD469E973E0CE018B599F4FD5D36BE5F5
:100CE00072E0BBD3BC01C801F9D3C801FCDBC80169
:100CF000F1D3CE018B599F4F5AC0C801F7D369E990
:100D000073E0C801C1D3BC01C701E8D3C801E2D375
:100D10008BEDA82E83E0B82EC12CD12C809103043A
:100D200090910404C816D90624F5F50160817181FB
:100D3000CE018B599F4FDAD36EE372E0C801D6D350
:100D4000BE016B597F4FC8019FD3FC01448155817F
:100D500060817181C70155D3C801BCD3CE018B59C5
:100D60009F4FB8D3FFEFCF1ADF0A84E0A80EB11C63
:100D7000D5CFF7016081718144E650E0C8010E943F
:100D8000330FB801CE018B599F4FB0D3CE018B5991
:100D90009F4FA9DBCE018B599F4F9CD3C70107C042
:100DA0006CE672E0C801A2D3C8019DDBC80192D3F2
:100DB000CE01855A9E4F8ED3CE018F599E4F8AD336
:100DC000F2CC312CA9CD312CF0CDCE018D5B9E4FD4
:100DD00081D307CFF6E06F0E711C8BED681683E0B0
:100DE000780609F0BFCDFFEF4F1A5F0A26E0249D79
:100DF000C001259D900D1124BE01635C7E4F875676
:100E00009C4F53D3C95CDE4F68817981C753D14071
:100E100044E650E0C8010E94330F80910304909192
:100E20000404FC01EE0FFF1FEE0FFF1FE552FC4F05
:100E30001183008301969093040480930304B5CD3D
:100E4000C459DE4F0FB6F894DEBF0FBECDBFDF91A1
:100E5000CF911F910F91FF90EF90DF90CF90BF90B7
:100E6000AF909F908F907F906F905F904F903F904A
:100E70002F9008951F920F920FB60F9211242F9367
:100E80003F938F939F93AF93BF938091F302909181
:100E9000F402A091F502B091F6023091F20223E043
:100EA000230F2D3720F40196A11DB11D05C026E8A2
:100EB000230F0296A11DB11D2093F2028093F3022D
:100EC0009093F402A093F502B093F6028091F7029A
:100ED0009091F802A091F902B091FA020196A11D39
:100EE000B11D8093F7029093F802A093F902B0939A
:100EF000FA02BF91AF919F918F913F912F910F90E7
:100F00000FBE0F901F9018958EBD00000DB407FE08
:100F1000FDCF8EB50895CF92DF92EF92FF920F939F
:100F20001F93CF93DF936C017A018B01C0E0D0E077
:100F3000CE15DF0589F0D8016D918D01D601ED91B7
:100F4000FC910190F081E02DC6011995892B11F4D7
:100F50007E0102C02196ECCFC701DF91CF911F9196
:100F60000F91FF90EF90DF90CF9008955FD70F9390
:100F70001F93CF93DF93EC0188819981009729F02B
:100F80002A813B812617370780F48B016F5F7F4FE3
:100F900069D6009761F0998388831B830A832C812B
:100FA0003D81232B11F4FC01108281E001C080E01F
:100FB000DF91CF911F910F910895CF93DF93EC01B3
:100FC00088819981009709F0B5D5198218821D8210
:100FD0001C821B821A82DF91CF910895EF92FF92BB
:100FE0000F931F93CF93DF93EC017B018A01BA012A
:100FF000BEDF811103C0CE01E0DF06C01D830C837C
:10100000B7018881998128D7CE01DF91CF911F91B7
:101010000F91FF90EF900895CF93DF939CB59F7D44
:101020009CBD9CB5937F9CBD9CB59C7F9CBD9DB594
:1010300091609DBDC5E0D4E0682F8A81C2DA8C89B9
:101040009D89DF91CF913ACB81E0E6CF80E0E4CF7C
:101050001F93CF93DF931F921F92CDB7DEB76A83A2
:101060008983F4DF89818F7180624EDF182F6A8156
:10107000862F4ADFE9DF812F0F900F90DF91CF910C
:101080001F910895CF93DF931F92CDB7DEB7898369
:10109000DDDF89818F7138DF8FEF36DF8983D4DF21
:1010A00089810F90DF91CF910895EF92FF920F9376
:1010B0001F93CF93DF9300D0CDB7DEB7162F4A83AF
:1010C0007B838983C3DF89818F7180621DDF082F55
:1010D000E12E7B81F72E4A81140F1E1529F0F701AE
:1010E00081917F0111DFF9CFAFDF802F0F900F903B
:1010F0000F90DF91CF911F910F91FF90EF90089586
:1011000080E0C0DF81FD09C0682F626080E0A0DF61
:1011100065E070E080E090E0DCCA0895CF93DF9353
:101120001F92CDB7DEB7898391DF8981EDDE898398
:101130008BDF89810F90DF91CF91089581EEEECF03
:101140002091050430910604409107045091080451
:101150002417350719F0682F822F33CA089590E0BD
:10116000FC01E652FE4F2491FC01EC56FE4F8491A7
:10117000882399F090E0880F991FFC01E658FE4FF4
:10118000A591B491FC01E05AFE4F859194918FB7DF
:10119000F894EC91E22BEC938FBF0895EF92FF92BD
:1011A0000F931F93CF93DF938C0180E0C9DF809171
:1011B00015049091160482DA8DE164DF81FF06C088
:1011C000809115049091160479DAB8DF80E05ADF37
:1011D000682F6E7F80E03CDF82E054DFEAE5F1E0DB
:1011E000E49161E070E001C0660FEA95EAF7682BD0
:1011F00082E02EDF4091130466E072E08AE055DF62
:101200004091130466E072E080E14FDF60910C04CE
:1012100081E11EDFF80101900020E9F73197C091CC
:101220000C04DE2FD01BCD1708F4DC2F80910D04A9
:10123000811102C0CD1B01C0C0E008DF80EA64DE7E
:101240007801D00FDE1529F0F70181917F015CDE76
:10125000F9CFCC2321F080E057DEC150FACFF4DE85
:1012600081E06EDF8FEF5ADF8073E1F380E068DFAB
:1012700060E787E0EDDE84FF03C060DF80E001C04F
:1012800081E0DF91CF911F910F91FF90EF90089532
:10129000CF92DF92EF92FF920F931F93CF93DF9342
:1012A0001F92CDB7DEB7E82E20910C04223310F444
:1012B000D22E02C082E3D82E80910D04811103C08A
:1012C000C22ECD1801C0C12C9983C0DE81E61CDE80
:1012D000F82E0E2D9981192FDA94FFEFDF1631F0D9
:1012E0008FEF12DEF80181938F01F6CFCC2021F031
:1012F0008FEF0ADECA94FACFA7DE8F2D0F90DF9111
:10130000CF911F910F91FF90EF90DF90CF900895B4
:10131000F7DE80E0B7DE682F616080E099DE60E78D
:1013200087E096DE81E00CDF80910E04882339F09F
:10133000409113046EE074E08AE0B7DE10C082E0F2
:10134000A1DEEAE5F1E0E49121E030E001C0220F06
:10135000EA95EAF72095622F682382E079DE8DE135
:1013600091DE81FDEBCE0895FC0124813581232B94
:1013700031F421E06115710599F0FB0108C0FC0111
:10138000808191816115710531F421E0FC0180813A
:10139000882331F004C057D521E0892B09F020E0E3
:1013A000822F0895CF93DF93DC01ED91FC91EB0147
:1013B000A881B981309711F01097C9F4109759F0AE
:1013C000EB012C813D81232B31F08C9190E09195A4
:1013D0008195910913C0309779F0DC0114968D91B5
:1013E0009C911597892B41F0808190E007C0BD0149
:1013F000CF01DF91CF9127C580E090E0DF91CF91C1
:101400000895EF92FF920F931F93CF93DF93FC0108
:10141000248135816115710511F480E017C04115F3
:10142000510599F07B01EC018A01020F131FB801ED
:101430009EDD882391F3288139818C819D81B701BC
:10144000820F931F09D51D830C8381E0DF91CF911B
:101450001F910F91FF90EF900895CF93DF93EC01D0
:101460006115710559F0FB0101900020E9F73197F2
:10147000AF01461B570BC5DF811102C0CE019DDDB8
:10148000CE01DF91CF910895CF93DF93EC01FB0163
:101490004481558160817181B4DF811102C0CE0128
:1014A0008CDDCE01DF91CF910895CF93DF93EC01D6
:1014B000FB018617970751F06081718161157105F5
:1014C00021F0448155818ADD01C077DDCE01DF91B5
:1014D000CF910895FC01808191812CC3FC01118280
:1014E00010821382128215821482DFCFFC011182D6
:1014F000108213821282158214826115710549F0DF
:10150000FB0101900020E9F73197AF01461B570B13
:1015100065CD0895BF92CF92DF92EF92FF920F9325
:101520001F93CF93DF937C016B01EA01890124179C
:10153000350720F48D2FE901042F182F66E272E0A1
:10154000C701D4DFD60114968D919C911597C817C9
:10155000D90738F58017910708F48C01D601ED9171
:10156000FC911197E00FF11FB08010824D915C91BA
:10157000BA016C0F7D1F6115710559F0FB010190D7
:101580000020E9F73197AF01461B570BC70126DD55
:1015900002C0C70112DDD601ED91FC91E00FF11FF1
:1015A000B082C701DF91CF911F910F91FF90EF9013
:1015B000DF90CF90BF900895789484B5826084BD09
:1015C00084B5816084BD85B5826085BD85B5816047
:1015D00085BD80916E00816080936E0010928100C5
:1015E0008091810082608093810080918100816080
:1015F0008093810080918000816080938000809141
:10160000B10084608093B1008091B00081608093CC
:10161000B000809191008260809391008091910050
:101620008160809391008091900081608093900010
:101630008091A10082608093A1008091A1008160CF
:101640008093A1008091A00081608093A000809190
:10165000210182608093210180912101816080932A
:1016600021018091200181608093200180917A0086
:10167000846080937A0080917A00826080937A00FF
:1016800080917A00816080937A0080917A008068EE
:1016900080937A001092C100E0910C03F0910D0349
:1016A00082E08083E0910803F09109031082E091C9
:1016B0000A03F0910B038FEC808310921403E091E6
:1016C0001003F091110386E08083E0910E03F09106
:1016D0000F03808180618083E0910E03F0910F03FE
:1016E000808188608083E0910E03F0910F038081F8
:1016F00080688083E0910E03F0910F0380818F7DDD
:101700008083809105049091060420910704309114
:1017100008048217930709F022DD80910704909155
:10172000080420910504309106042817390709F0B0
:1017300016DDCFB7F8948091FB02811121C0E9EC4E
:10174000F1E08491EFE0F2E09491E82FF0E0EE0F09
:10175000FF1FE658FE4FA591B491EC91E92321F4C7
:1017600061E085E30E94E10285E3F9DC8CB58061EC
:101770008CBD8CB580648CBD84E3F1DC83E3EFDC4D
:101780008091FB028F5F8093FB02CFBF80E0D8DCAB
:1017900081E042DC65E070E080E090E00E94690357
:1017A0006CE080E055DC6FE584E052DC86E06ADCCA
:1017B000877DC82FC0628BE990E0A0E0B0E0809305
:1017C000150490931604A0931704B09318046C2F7B
:1017D00086E03EDC86E056DC8C1709F464C086E0C7
:1017E00051DC86E04FDC45E550E060E070E040937E
:1017F0001504509316046093170470931804682F0F
:10180000677D86E025DC86E03DDC20DC80E57CDB56
:1018100083E77ADB19DC60E08DE11ADC60E08CE1C3
:1018200017DC10920D0460E787E012DC6CE485E0C1
:101830000FDC82EE73DC82DC63DC80E023DC682F6B
:101840006E7F80E005DC4091130450E060E072E0C0
:101850008EE094E0EFD2E4E5F1E08491409113044E
:1018600060E072E022DCEEE4F1E0849160910C042F
:10187000EFDB82E007DCEAE5F1E0E49161E070E0B3
:1018800001C0660FEA95EAF7682B82E0E1DB86E0AB
:10189000F9DB887F682F616086E0DADB0E94A103B4
:1018A0000E941602FBCF81E080930B0498CFCF9368
:1018B000DF938FE993E0892B29F489E993E0DF91A5
:1018C000CF9108CEC5EDD3E0CE0104DE269783E0AC
:1018D000C939D807C9F7F1CFCF93DF931092FF0230
:1018E0001092FE0288EE93E0A0E0B0E08093000347
:1018F00090930103A0930203B093030386E192E067
:101900009093FD028093FC0285EC90E09093090394
:101910008093080384EC90E090930B0380930A0378
:1019200080EC90E090930D0380930C0381EC90E0A9
:1019300090930F0380930E0382EC90E09093110339
:101940008093100386EC90E090931303809312032E
:101950001092150310921603109217031092180399
:1019600087E090E0909306048093050488E090E07F
:10197000909308048093070410920B0480E28093F4
:101980000C0410920D0485E08093130485E090E030
:10199000A0E0B0E08093190490931A04A0931B0474
:1019A000B0931C0410920E046AE872E089E993E097
:1019B0009DDDC0E0D0E0269666E272E0CE0187565B
:1019C0009C4F94DDCC33D105B1F7CBEDD3E086E06D
:1019D00090E01BD09983888386E090E016D09B83AB
:1019E0008A83249684E0C330D80789F710920404D0
:1019F00010920304DF91CF910895EE0FFF1F881F0F
:101A00008BBF0790F691E02D1994CF93DF9382302E
:101A1000910510F482E090E0E0911F04F091200421
:101A200020E030E0C0E0D0E0309711F140815181FA
:101A300048175907C0F04817590761F4828193810C
:101A4000209719F09B838A832BC090932004809366
:101A50001F0426C02115310519F04217530718F449
:101A60009A01BE01DF01EF010280F381E02DDCCF9E
:101A70002115310509F1281B390B2430310590F46B
:101A800012968D919C9113976115710521F0FB01C0
:101A90009383828304C09093200480931F04FD01EC
:101AA000329644C0FD01E20FF31F819391932250BF
:101AB00031092D933C933AC020911D0430911E04AE
:101AC000232B41F420910E0230910F0230931E041B
:101AD00020931D0420910C0230910D022115310537
:101AE00041F42DB73EB74091100250911102241BD2
:101AF000350BE0911D04F0911E04E217F307A0F4EA
:101B00002E1B3F0B2817390778F0AC014E5F5F4F53
:101B10002417350748F04E0F5F1F50931E04409363
:101B20001D048193919302C0E0E0F0E0CF01DF91CA
:101B3000CF9108950F931F93CF93DF93009709F4EC
:101B40008CC0FC0132971382128200911F04109105
:101B500020040115110581F420813181820F931F2A
:101B600020911D0430911E042817390779F5F09350
:101B70001E04E0931D0471C0D80140E050E0AE1790
:101B8000BF0750F412962D913C911397AD0121158A
:101B9000310509F1D901F3CF9D01DA0133832283A5
:101BA00060817181860F971F8217930769F4EC019A
:101BB00028813981260F371F2E5F3F4F31832083C5
:101BC0008A819B8193838283452B29F4F09320049F
:101BD000E0931F0442C01396FC93EE931297ED011D
:101BE000499159919E01240F351FE217F30771F4B3
:101BF00080819181840F951F029611969C938E93FC
:101C00008281938113969C938E931297E0E0F0E08B
:101C1000D80112968D919C911397009719F0F801B5
:101C20008C01F6CF8D919C9198012E5F3F4F820FD2
:101C3000931F20911D0430911E042817390769F461
:101C4000309729F41092200410921F0402C01382CE
:101C5000128210931E0400931D04DF91CF911F91F7
:101C60000F9108956F927F928F929F92AF92BF9241
:101C7000CF92DF92EF92FF920F931F93CF93DF9358
:101C8000EC01009781F4CB01DF91CF911F910F916F
:101C9000FF90EF90DF90CF90BF90AF909F908F908C
:101CA0007F906F90B2CEFC01E60FF71F9C0122508F
:101CB0003109E217F30708F4A8C0D9010D911C916E
:101CC000119706171707A8F00530110508F49BC0F7
:101CD000C80104978617970708F495C002501109A8
:101CE000061B170B019311936D937C93CF0122DF99
:101CF0008AC05B01A01AB10A4C01800E911EA0910E
:101D00001F04B091200440E050E0E12CF12C10972A
:101D100009F44AC0A815B905D1F56D907C901197CA
:101D2000630182E0C80ED11CCA14DB0480F1A30158
:101D30004A195B096A0182E0C80ED11C1296BC9058
:101D400012971396AC91B5E0CB16D10440F0B28255
:101D5000A38351834083D9016D937C930AC00E5FA6
:101D60001F4FC301800F911FF90191838083EB2DD9
:101D7000FA2FE114F10431F0D7011396FC93EE939E
:101D8000129741C0F0932004E0931F043CC08D9152
:101D90009C9111974817590708F4AC017D011296E0
:101DA0000D90BC91A02DB3CF80911D0490911E0485
:101DB00088159905E1F446175707C8F480910C027D
:101DC00090910D02009741F48DB79EB7409110029B
:101DD00050911102841B950BE817F907B0F4F093AA
:101DE0001E04E0931D04F901718360830CC0CB01D4
:101DF0000CDE7C01009749F0A801BE011BD0CE018A
:101E000099DEC70104C0CE0102C080E090E0DF91FE
:101E1000CF911F910F91FF90EF90DF90CF90BF90E7
:101E2000AF909F908F907F906F90089581E090E0A9
:101E3000F89428C0FB01DC0102C001900D924150D2
:101E40005040D8F70895FB01DC018D910190801975
:101E50000110D9F3990B0895FB01DC0101900D925B
:101E60000020E1F70895FB01DC014150504048F0AB
:101E700001900D920020C9F701C01D9241505040C1
:101E8000E0F7089511E0C1E1D1E000E005C0802F46
:101E9000FE01B3DD2196011DC231D10780E00807A4
:061EA000B1F7F894FFCF3A
:101EA6004142434445004544434241000000210469
:101EB600800000000000AF018B074801F5017901A1
:101EC60057016B010D0A00737461727400646973C3
:101ED600636F4E65696768626F72730049645F007D
:101EE6006572726F7220696E2068616E64536861F4
:101EF6006B6500726571536F6E73006E6F2073753C
:101F06006E7300726571506970657300756E7265E7
:101F1600636F676E697A6564206D65737361676563
:0E1F2600005F61636B50697065003030300001
:020000023000CC
:10E000000D9489F10D94B2F10D94B2F10D94B2F129
:10E010000D94B2F10D94B2F10D94B2F10D94B2F1F0
:10E020000D94B2F10D94B2F10D94B2F10D94B2F1E0
:10E030000D94B2F10D94B2F10D94B2F10D94B2F1D0
:10E040000D94B2F10D94B2F10D94B2F10D94B2F1C0
:10E050000D94B2F10D94B2F10D94B2F10D94B2F1B0
:10E060000D94B2F10D94B2F10D94B2F10D94B2F1A0
:10E070000D94B2F10D94B2F10D94B2F10D94B2F190
:10E080000D94B2F10D94B2F10D94B2F10D94B2F180
:10E090000D94B2F10D94B2F10D94B2F10D94B2F170
:10E0A0000D94B2F10D94B2F10D94B2F10D94B2F160
:10E0B0000D94B2F10D94B2F10D94B2F10D94B2F150
:10E0C0000D94B2F10D94B2F10D94B2F10D94B2F140
:10E0D0000D94B2F10D94B2F10D94B2F10D94B2F130
:10E0E0000D94B2F141546D656761323536300041AF
:10E0F000726475696E6F206578706C6F72657220DE
:10E1000073746B3530305632206279204D4C530099
:10E11000426F6F746C6F616465723E004875683F52
:10E1200000436F6D70696C6564206F6E203D200048
:10E130004350552054797065202020203D20005FF9
:10E140005F4156525F415243485F5F3D2000415658
:10E1500052204C696243205665723D20004743437C
:10E160002056657273696F6E203D20004350552024
:10E1700049442020202020203D20004C6F7720663D
:10E18000757365202020203D20004869676820665F
:10E190007573652020203D200045787420667573D6
:10E1A00065202020203D20004C6F636B2066757336
:10E1B000652020203D20004D617220203720323024
:10E1C000313300312E362E3800342E332E350056A2
:10E1D00023202020414444522020206F7020636F70
:10E1E00064652020202020696E73747275637469E1
:10E1F0006F6E2061646472202020496E74657272B3
:10E20000757074006E6F20766563746F7200726A49
:10E210006D702020006A6D70200057686174207056
:10E220006F72743A00506F7274206E6F7420737541
:10E2300070706F72746564004D7573742062652030
:10E2400061206C6574746572002000577269747483
:10E25000696E672045450052656164696E672045B7
:10E26000450045452065727220636E743D00504F35
:10E27000525400303D5A65726F2061646472003FF1
:10E280003D43505520737461747300403D454550C3
:10E29000524F4D207465737400423D426C696E6B41
:10E2A000204C454400453D44756D70204545505215
:10E2B0004F4D00463D44756D7020464C415348001B
:10E2C000483D48656C70004C3D4C69737420492F83
:10E2D0004F20506F72747300513D51756974005234
:10E2E0003D44756D702052414D00563D73686F7707
:10E2F00020696E7465727275707420566563746FF0
:10E30000727300593D506F727420626C696E6B00BD
:10E310002A0011241FBECFEFD1E2DEBFCDBF01E046
:10E320000CBF12E0A0E0B2E0EEE1FDEF03E00BBFB6
:10E3300002C007900D92A030B107D9F712E0A0E01B
:10E34000B2E001C01D92AE30B107E1F70F9460F367
:10E350000D948DFE01E20EBF0FEF0DBF11241FBE05
:10E360000D9460F30D9400F020E030E040ED57E0B4
:10E3700005C0FA013197F1F72F5F3F4F2817390792
:10E38000C0F308959C01260F311DC901A0E0B0E043
:10E390002F5F3F4FABBFFC018791882361F08093D3
:10E3A000C6008091C00086FFFCCF8091C0008064D1
:10E3B0008093C000EACF08958DE08093C6008091DD
:10E3C000C00086FFFCCF8091C00080648093C000B5
:10E3D0008AE08093C6008091C00086FFFCCF8091C8
:10E3E000C00080648093C00008950F94C2F10F9420
:10E3F000DCF10895FC019081992359F09093C600B7
:10E400008091C00086FFFCCF8091C0008064809323
:10E41000C0003196992379F70895282F982F929567
:10E420009F70892F805D8A3308F0895F8093C600D2
:10E430008091C00086FFFCCF8091C00080648093F3
:10E44000C000822F8F70982F905D9A3308F0995FEB
:10E450009093C6008091C00086FFFCCF8091C000E1
:10E4600080648093C00008959C01FB01853691056E
:10E470001CF46330710594F0C90164E670E00F94F8
:10E480002EFE605D7F4F6093C6008091C00086FFC6
:10E49000FCCF8091C00080648093C0002B30310598
:10E4A00014F43297B4F0C90164E670E00F942EFEC4
:10E4B0006AE070E00F942EFE605D7F4F6093C600AF
:10E4C0008091C00086FFFCCF8091C0008064809363
:10E4D000C000C9016AE070E00F942EFEC0968093E0
:10E4E000C6008091C00086FFFCCF8091C000806490
:10E4F0008093C00008951F93182F8EE692EE60E07F
:10E500000F94C2F11093C6008091C00086FFFCCF2B
:10E510008091C00080648093C0000F94DCF11F9153
:10E5200008952F923F924F925F926F927F928F92B7
:10E530009F92AF92BF92CF92DF92EF92FF920F9392
:10E540001F93DF93CF93CDB7DEB762970FB6F894E2
:10E55000DEBF0FBECDBF382E622ECA01DB015C01CB
:10E560006D01772420E2222E2E010894411C511CBB
:10E570008BC081E0A81680E0B80681E0C80680E084
:10E58000D80628F0C601AA27BB270F940DF2BB2797
:10E59000AD2D9C2D8B2D0F940DF28A2D0F940DF225
:10E5A0002092C6008091C00086FFFCCF8091C00001
:10E5B00080648093C0009DE29093C6008091C0006B
:10E5C00086FFFCCF8091C00080648093C0002092C1
:10E5D000C6008091C00086FFFCCF8091C00080649F
:10E5E0008093C00019828601750188249924A1E0D6
:10E5F0003A1651F03A1620F0B2E03B1661F409C029
:10E600000BBFF701779007C0C7010F9477FE782EF4
:10E6100002C0F7017080872D0F940DF22092C60082
:10E620008091C00086FFFCCF8091C0008064809301
:10E63000C000872D8052F401EF70F0708F3520F408
:10E64000E40DF51D708204C0E40DF51D8EE280839B
:10E650000894E11CF11C011D111D0894811C911CE2
:10E6600090E18916910409F0C2CF80E190E0A0E02A
:10E67000B0E0A80EB91ECA1EDB1E198AC2010F9493
:10E68000FAF10F94DCF16A94662009F072CF629679
:10E690000FB6F894DEBF0FBECDBFCF91DF911F91B3
:10E6A0000F91FF90EF90DF90CF90BF90AF909F9031
:10E6B0008F907F906F905F904F903F902F90089534
:10E6C0002F923F924F925F926F927F928F929F9282
:10E6D000AF92BF92CF92DF92EF92FF920F931F9370
:10E6E000DF93CF93CDB7DEB7CD53D1400FB6F894BB
:10E6F000DEBF0FBECDBF01E20EBF0FEF0DBF94B75F
:10E70000F894A89514BE80916000886180936000A1
:10E7100010926000789493FF05C0E0910002F091A0
:10E7200001021995279A2F9A8091C00082608093E8
:10E73000C00080E18093C40088E18093C1000000A4
:10E74000EE24FF24870144E0A42EB12CCC24DD2448
:10E7500024C0C5010197F1F70894E11CF11C011DCB
:10E76000111D21E2E2162EE4F20620E0020720E06D
:10E77000120718F031E0C32ED12CC801B70127ECE5
:10E780003BE140E050E00F9441FE611571058105C9
:10E79000910519F485B1805885B98091C00087FD35
:10E7A00003C0C114D104A9F2A6014F5F5F4FC25E3E
:10E7B000DE4F59834883CE51D140C25EDE4F8881FF
:10E7C0009981CE51D140019711F00D9410FEC05D9A
:10E7D000DE4F19821882C053D14060E0C15DDE4F28
:10E7E0001882CF52D14088249924C35DDE4F19820C
:10E7F0001882CD52D140C05EDE4F188219821A8233
:10E800001B82C052D140CE5CDE4F188219821A8220
:10E810001B82C253D140EE24FF2487010BBFF701B6
:10E8200007911691C45CDE4F19830883CC53D14005
:10E830000D940BFEC25EDE4F28813981CE51D1404E
:10E840002130310509F52091C600C25EDE4F1982E4
:10E850001882CE51D14022C02F5F3F4F4F4F5F4FA4
:10E86000213082E138078AE7480780E0580780F0C6
:10E87000C45CDE4FE881F981CC53D140EF5FFF4F9C
:10E8800019F0EE27FF27099420E030E040E050E047
:10E890008091C00087FFE0CF2091C600C35DDE4FAE
:10E8A00048815981CD52D1404F5F5F4FC35DDE4FEC
:10E8B00059834883CD52D140213209F063C64A3092
:10E8C000510508F05FC60894811C911C53E0851621
:10E8D000910409F059C600E010E018C081E280936D
:10E8E000C6008091C00086FFFCCF8091C00080648C
:10E8F0008093C0002F5F3F4F2931310579F70F9486
:10E90000DCF10F5F1F4F0530110519F020E030E0FA
:10E91000E5CF10920A0210920B0210920C02109294
:10E920000D02109206021092070210920802109235
:10E930000902109202021092030210920402109235
:10E9400005028FEE90EE60E00F94F5F180E191EE1C
:10E9500060E00F94C2F18091C00087FFFCCF9091DE
:10E96000C600903608F09F759032B8F09093C600BC
:10E970008091C00086FFFCCF8091C00080648093AE
:10E98000C000A0E2A093C6008091C00086FFFCCF2B
:10E990008091C00080648093C000983409F4D7C18E
:10E9A0009934B8F4923409F459C1933458F490333B
:10E9B00019F1903308F4E3C59F33A1F1903409F0C5
:10E9C000DEC5BDC0953409F470C1963409F0D7C5D1
:10E9D00098C1923509F42BC2933538F49C3409F46C
:10E9E000F5C1913509F0CBC518C2963509F445C279
:10E9F000993509F0C4C567C483E792EE62E00F94CD
:10EA0000F5F110920602109207021092080210927D
:10EA1000090210920A0210920B0210920C0210923C
:10EA20000D0213C18FE792EE62E00F94F5F18FEEC5
:10EA300090EE60E00F94F5F181E291EE60E00F94CA
:10EA4000C2F187EB91EE60E00F94F5F180E391EE77
:10EA500060E00F94C2F184EE90EE60E00F94F5F167
:10EA60008FE391EE60E00F94C2F186E090E061E008
:10EA700070E00F9434F20F94DCF18DE591EE60E0DC
:10EA80000F94C2F189EC91EE60E00F94F5F18EE401
:10EA900091EE60E00F94C2F183EC91EE60E00F9490
:10EAA000F5F18CE691EE60E00F94C2F18EE10F94E7
:10EAB0000DF288E90F940DF281E00F940DF20F949E
:10EAC000DCF18BE791EE60E00F94C2F119E0E0E039
:10EAD000F0E010935700E4918E2F0F940DF20F94F5
:10EAE000DCF18AE891EE60E00F94C2F1E3E0F0E03F
:10EAF00010935700E4918E2F0F940DF20F94DCF1D8
:10EB000089E991EE60E00F94C2F1E2E0F0E0109349
:10EB10005700E4918E2F0F940DF20F94DCF188EAE8
:10EB200091EE60E00F94C2F1E1E0F0E01093570045
:10EB30001491812F0F940DF20F94DCF107CF8BE825
:10EB400092EE62E00F94F5F18BE492EE60E00F94A8
:10EB5000F5F10F94DCF100E010E019C0C8016F2D51
:10EB60000F947FFEFF2031F489E492EE60E00F9471
:10EB7000C2F10BC0F092C6008091C00086FFFCCFAE
:10EB80008091C00080648093C0000F5F1F4FC80158
:10EB900081519F41A0E0B0E0ABBFFC01F790BAE229
:10EBA000FB1621F0E2E000301E07C1F60F94DCF105
:10EBB0000F94DCF187E592EE60E00F94F5F10F948D
:10EBC000DCF1CC24DD2400E010E01EC0C8010F946D
:10EBD00077FEF82E882331F489E492EE60E00F94FA
:10EBE000C2F10BC08093C6008091C00086FFFCCFAD
:10EBF0008091C00080648093C000FE1419F00894D6
:10EC0000C11CD11C0F5F1F4FC80181519F41A0E063
:10EC1000B0E0ABBFFC01E790FAE2EF1621F022E092
:10EC20000030120799F60F94DCF10F94DCF182E6C4
:10EC300092EE60E00F94C2F1C60161E070E00F94C3
:10EC400034F20F94DCF10F94DCF110920202109276
:10EC50000302109204021092050278CE89E992EE26
:10EC600062E00F94F5F1279A2F9A16C02F9880E052
:10EC700090E0E0EDF7E03197F1F7019684369105E9
:10EC8000C1F72F9A80E090E0E0EDF7E03197F1F7DF
:10EC9000019684369105C1F78091C00087FFE6CFC9
:10ECA0008091C00087FFFCCF64C485EA92EE62E0E9
:10ECB0000F94F5F140910202509103026091040219
:10ECC0007091050281E020E10F9491F2809102029F
:10ECD00090910302A0910402B091050280509F4FD1
:10ECE000AF4FBF4F8093020290930302A0930402A0
:10ECF000B093050280509041A040B04008F426CE69
:10ED0000A4CF83EB92EE62E00F94F5F140910602FE
:10ED100050910702609108027091090280E020E1A1
:10ED20000F9491F28091060290910702A09108023F
:10ED3000B091090280509F4FAF4FBF4F80930602A2
:10ED400090930702A0930802B0930902FFCD80ECD4
:10ED500092EE62E00F94F5F183E792EE60E00F949B
:10ED6000F5F18FE792EE60E00F94F5F18BE892EE0B
:10ED700060E00F94F5F189E992EE60E00F94F5F10F
:10ED800085EA92EE60E00F94F5F183EB92EE60E09D
:10ED90000F94F5F180EC92EE60E00F94F5F187ECC2
:10EDA00092EE60E00F94F5F188ED92EE60E00F9442
:10EDB000F5F18FED92EE60E00F94F5F18AEE92EEB0
:10EDC00060E00F94F5F183E093EEBDCD87EC92EE19
:10EDD00062E00F94F5F181E40F947BF282E40F94EA
:10EDE0007BF283E40F947BF284E40F947BF285E45E
:10EDF0000F947BF286E40F947BF287E40F947BF20E
:10EE000088E40F947BF28AE40F947BF28BE40F94F6
:10EE10007BF28CE40F947BF299CD88ED92EE62E068
:10EE20000F94F5F1772473948824992409C48FED05
:10EE300092EE62E00F94F5F140910A0250910B02BC
:10EE400060910C0270910D0282E020E10F9491F22A
:10EE500080910A0290910B02A0910C02B0910D02D8
:10EE600080509F4FAF4FBF4F80930A0290930B0289
:10EE7000A0930C02B0930D0269CD8AEE92EE62E08F
:10EE80000F94F5F184EE90EE60E00F94F5F18FECC5
:10EE900091EE60E00F94F5F1662477244301CC5D98
:10EEA000DE4F19821882C452D140D401C301B695F5
:10EEB000A79597958795CA5DDE4F88839983AA8326
:10EEC000BB83C652D140CC5DDE4FA881B981C4520C
:10EED000D1401196CC5DDE4FB983A883C452D14096
:10EEE000CD0162E070E00F9434F2B0E2B093C6005E
:10EEF0008091C00086FFFCCF8091C0008064809329
:10EF0000C000EDE2E093C6008091C00086FFFCCF18
:10EF10008091C00080648093C000F0E2F093C6004E
:10EF20008091C00086FFFCCF8091C00080648093F8
:10EF3000C000CA5DDE4FE880F9800A811B81C6529D
:10EF4000D140BB27A12F902F8F2D0F940DF2CA5DBA
:10EF5000DE4F8881C652D1400F940DF2B0E2FB2EF5
:10EF6000F092C6008091C00086FFFCCF8091C00067
:10EF700080648093C0000DE30093C6008091C000C0
:10EF800086FFFCCF8091C00080648093C00010E2B7
:10EF90001093C6008091C00086FFFCCF8091C00016
:10EFA00080648093C0008BBEF3012791C65DDE4F65
:10EFB0002883CA52D140A22EBB24CC24DD2408943D
:10EFC000611C711C811C911C8BBEF3018791282E42
:10EFD0003324442455240894611C711C811C911C09
:10EFE0008BBEF3013791C55DDE4F3883CB52D140E4
:10EFF0000894611C711C811C911C8BBEF30147910C
:10F00000C45DDE4F4883CC52D140ADEFEA2EAFEF66
:10F01000FA2EAFEF0A2FAFEF1A2F6E0C7F1C801E57
:10F02000911E142D032DF22CEE24EA0CFB1C0C1D5A
:10F030001D1D0F940DF220E22093C6008091C000A8
:10F0400086FFFCCF8091C00080648093C000C65DC5
:10F05000DE4F8881CA52D1400F940DF230E23093D6
:10F06000C6008091C00086FFFCCF8091C000806404
:10F070008093C000C45DDE4F8881CC52D1400F9494
:10F080000DF240E24093C6008091C00086FFFCCFA5
:10F090008091C00080648093C000C55DDE4F888190
:10F0A000CB52D1400F940DF250E25093C6008091A4
:10F0B000C00086FFFCCF8091C00080648093C000B8
:10F0C0008FEFE8168FEFF80680E0080780E018075A
:10F0D00031F484E092EE60E00F94C2F1DFC0D80119
:10F0E000C7018070907CA070B0708050904CA040A0
:10F0F000B040D1F52FEF3FE340E050E0E222F322B1
:10F1000004231523CA5DDE4FA880B980CA80DB8046
:10F11000C652D140AE0CBF1CC01ED11EAA0CBB1CD7
:10F12000CC1CDD1C8EE092EE60E00F94C2F1BB2798
:10F13000A12F902F8F2D0F940DF28E2D0F940DF285
:10F1400030E23093C6008091C00086FFFCCF8091F2
:10F15000C00080648093C0004EE34093C60080915D
:10F16000C00086FFFCCF87C08EE09EEFA0E0B0E03D
:10F17000E822F9220A231B239CE0E91694E9F90608
:10F1800090E0090790E0190709F088C0C45DDE4FE0
:10F19000A881CC52D140EA2EFF2400E010E0102FCD
:10F1A0000F2DFE2CEE24C55DDE4FB881CB52D14031
:10F1B000EB0EF11C011D111DD601C501817090706F
:10F1C000A070B070DC0199278827E80EF91E0A1F8D
:10F1D0001B1F20EF30E040E050E0A222B322C42207
:10F1E000D52241E1AA0CBB1CCC1CDD1C4A95D1F7F1
:10F1F000EA0CFB1C0C1D1D1D81E090E0A0E0B0E0BE
:10F20000282239224A225B2235E1220C331C441C7D
:10F21000551C3A95D1F7E20CF31C041D151D57013E
:10F220006801AA0CBB1CCC1CDD1C85E192EE60E0E1
:10F230000F94C2F1C801AA27BB270F940DF2BB2778
:10F24000A12F902F8F2D0F940DF28E2D0F940DF274
:10F2500090E29093C6008091C00086FFFCCF809121
:10F26000C00080648093C000AEE3A093C60080918C
:10F27000C00086FFFCCF8091C00080648093C000F6
:10F28000C601AA27BB270F940DF2BB27AD2D9C2DDD
:10F290008B2D0F940DF28A2D0F940DF20F94DCF14B
:10F2A000CC5DDE4FE881F981C452D140F99709F471
:10F2B0004DCBF4E0EF2EF12C012D112D6E0C7F1CA7
:10F2C000801E911EF2CD83E093EE62E00F94F5F183
:10F2D0008AE192EE60E00F94C2F18091C00087FF56
:10F2E000FCCF1091C6001F751093C6008091C0001E
:10F2F00086FFFCCF8091C00080648093C0000F9493
:10F30000DCF1812F81548A3108F036C1163409F4BA
:10F3100095C0173490F4133409F44EC0143430F40B
:10F320001134F1F0123409F01DC130C0143409F465
:10F3300059C0153409F016C16BC01A3409F4C4C0A1
:10F340001B3438F4173409F48FC0183409F00AC19B
:10F35000A1C01B3409F4D2C01C3409F003C1E8C0B9
:10F360008FEF81B90DC082B1809582B980E090E0C5
:10F37000E0EDF7E03197F1F70196883C9105C1F790
:10F380008091C00087FFEFCF12B8EFC08FEF84B934
:10F390000DC085B1809585B980E090E0E0EDF7E0A3
:10F3A0003197F1F70196883C9105C1F78091C00033
:10F3B00087FFEFCF15B8D9C08FEF87B90DC088B1DF
:10F3C000809588B980E090E0E0EDF7E03197F1F7C3
:10F3D0000196883C9105C1F78091C00087FFEFCF6F
:10F3E00018B8C3C08FEF8AB90DC08BB180958BB9A7
:10F3F00080E090E0E0EDF7E03197F1F70196883C8E
:10F400009105C1F78091C00087FFEFCF1BB8ADC059
:10F410008FEF8DB90DC08EB180958EB980E090E0F0
:10F42000E0EDF7E03197F1F70196883C9105C1F7DF
:10F430008091C00087FFEFCF1EB897C08FEF80BBD1
:10F440000DC081B3809581BB80E090E0E0EDF7E0F6
:10F450003197F1F70196883C9105C1F78091C00082
:10F4600087FFEFCF11BA81C08FEF83BB0DC084B38C
:10F47000809584BB80E090E0E0EDF7E03197F1F714
:10F480000196883C9105C1F78091C00087FFEFCFBE
:10F4900014BA6BC08FEF809301010FC080910201FD
:10F4A00080958093020180E090E0E0EDF7E03197F5
:10F4B000F1F70196883C9105C1F78091C00087FF64
:10F4C000EDCF1092020151C08FEF809304010FC065
:10F4D0008091050180958093050180E090E0E0ED4A
:10F4E000F7E03197F1F70196883C9105C1F78091DB
:10F4F000C00087FFEDCF1092050137C08FEF8093DA
:10F5000007010FC08091080180958093080180E079
:10F5100090E0E0EDF7E03197F1F70196883C910536
:10F52000C1F78091C00087FFEDCF109208011DC088
:10F530008FEF80930A010FC080910B01809580931B
:10F540000B0180E090E0E0EDF7E03197F1F70196F4
:10F55000883C9105C1F78091C00087FFEDCF1092E4
:10F560000B0103C085E292EEEEC98091C00087FFD7
:10F57000FCCF8091C600EAC988E392EEE4C98CE131
:10F5800091EEE1C988249924933011F1943028F444
:10F59000913089F09230B8F408C0953061F195301F
:10F5A000F0F0963009F048C043C02B3109F042C951
:10F5B00091E06BE13FC96227C15DDE4F2883CF52E6
:10F5C000D14092E037C9B22FA0E0622793E032C960
:10F5D000822F90E0A82BB92B622794E02BC92E3004
:10F5E00009F039C3622795E0C05DDE4F19821882A9
:10F5F000C053D1401FC9E1E0F0E0EC0FFD1FC05D3A
:10F60000DE4F08811981C053D140E00FF11F2083E4
:10F610000F5F1F4FC05DDE4F19830883C053D14079
:10F6200062270A171B0709F005C9D80196E002C92D
:10F63000261709F010C303C0973009F0FBC87724E0
:10F640009981933109F412C19431C8F4963009F4C8
:10F65000D8C0973050F4923009F406C1933009F4C1
:10F660006DC0913009F059C253C0913109F477C08F
:10F67000923108F0BBC0903109F04FC2F5C098310B
:10F6800009F487C0993150F4953109F4EFC09531F0
:10F6900008F4C6C1963109F040C2C2C19A3109F4DA
:10F6A0006CC09A3108F491C09B3109F45BC09D3164
:10F6B00009F033C29D81903359F48F81882311F46E
:10F6C0009EE11CC0813011F091E018C098E916C08D
:10F6D000892F807591F0903539F4E0E0F0E089E011
:10F6E0008093570094910AC0983539F4E3E0F0E034
:10F6F00089E080935700949101C090E01A821B82A8
:10F700008D818C831D829E831F8227E030E009C299
:10F710001A8288E08B8381E48C8386E58D8382E581
:10F720008E8389E48F8383E5888780E589878FE5E9
:10F730008A8782E38B872BE030E0F3C18A818139AD
:10F7400041F0823941F0803911F48FE005C080E04A
:10F7500003C082E001C08AE01A828B8344C0772410
:10F76000739482C08D81882311F48EE12CC0813086
:10F7700011F081E028C088E926C01A82E1E0F0E0BB
:10F7800089E08093570084918B831C8224E030E0D1
:10F79000C8C18B81803589F48C81883039F4E2E0EE
:10F7A000F0E089E08093570084910DC0E0E0F0E044
:10F7B00089E080935700849106C0E3E0F0E089E09F
:10F7C0008093570084911A82DFCF8D81836C99E0FA
:10F7D000E1E0F0E0082E90935700E89507B600FCB2
:10F7E000FDCF1A821B8223E030E09BC180EC8A832C
:10F7F000CE5CDE4F188219821A821B82C253D1401E
:10F800008EC18A8190E0A0E0B0E0582F44273327D2
:10F8100022278B8190E0A0E0B0E0DC0199278827C7
:10F82000282B392B4A2B5B2B8D8190E0A0E0B0E098
:10F83000282B392B4A2B5B2B8C8190E0A0E0B0E089
:10F84000BA2FA92F982F8827282B392B4A2B5B2BCF
:10F85000220F331F441F551FC05EDE4F288339839C
:10F860004A835B83C052D1401A8259C13A81C95C34
:10F87000DE4F3883C753D140CA5CDE4F1882C6536F
:10F88000D1408B81C82EDD24CA5CDE4F488159816E
:10F89000C653D140C42AD52A933109F082C0CE5C28
:10F8A000DE4F88819981AA81BB81C253D1408050AB
:10F8B000904CA340B04030F583E0CE5CDE4FE88052
:10F8C000F9800A811B81C253D140F70100935B008C
:10F8D00080935700E89507B600FCFDCFCE5CDE4F65
:10F8E000088119812A813B81C253D14000501F4FAA
:10F8F0002F4F3F4FCE5CDE4F088319832A833B8313
:10F90000C253D140C05EDE4F488159816A817B81FC
:10F91000C052D140DE011B9631E08C9111962C91A2
:10F9200011971296C75CDE4F2883C953D140C85C3B
:10F93000DE4F1882C853D14090E0C85CDE4FE881AA
:10F94000F981C853D1408E2B9F2B0C01FA01609393
:10F950005B0030935700E89511244E5F5F4F6F4F67
:10F960007F4F0EEFE02E0FEFF02ECE0CDF1CC114F8
:10F97000D10499F685E0C05EDE4F088119812A81A5
:10F980003B81C052D140F80120935B008093570027
:10F99000E89507B600FCFDCF81E180935700E8951C
:10F9A00035C0C05EDE4F88819981AA81BB81C0527B
:10F9B000D140B695A795979587957C018601ABE0D8
:10F9C000AA2EB12CAC0EBD1E0BC0D5016D915D01F0
:10F9D000C7010F947FFE0894E11CF11C01501040F8
:10F9E0000115110591F7A60160E070E0440F551F65
:10F9F000661F771FC05EDE4FE880F9800A811B8199
:10FA0000C052D1404E0D5F1D601F711F1A82C05E33
:10FA1000DE4F488359836A837B83C052D1407FC0C5
:10FA2000FA80C55CDE4FF882CB53D140C65CDE4F16
:10FA30001882CA53D1408B81C82EDD24C65CDE4FAC
:10FA400008811981CA53D140C02AD12A1A828981DA
:10FA5000BE016D5F7F4F843121F59601C05EDE4FA0
:10FA6000E880F9800A811B81C052D1400BBFF701A9
:10FA700087919691DB018C9311969C936E5F7F4FDB
:10FA8000D801C7010296A11DB11DC05EDE4F88835B
:10FA90009983AA83BB83C052D14022503040F1F6F3
:10FAA00036C0C05EDE4F288139814A815B81C052F9
:10FAB000D1400894C108D108760100E010E0089414
:10FAC000C11CD11C0894E11CF11C011D111DE20E8A
:10FAD000F31E041F151F21BDBB27A52F942F832FB5
:10FAE00082BD2F5F3F4F4F4F5F4FF89A80B5DB01CC
:10FAF0008D93BD012E153F054007510761F7C05E8C
:10FB0000DE4F288339834A835B83C052D1409601FC
:10FB10002D5F3F4FFB01108204C080EC8A8322E0FE
:10FB200030E08BE18093C6008091C00086FFFCCF5F
:10FB30008091C00080648093C000C15DDE4FF88179
:10FB4000CF52D140F093C6008091C00086FFFCCF19
:10FB50008091C00080648093C000432F3093C60022
:10FB60008091C00086FFFCCF8091C00080648093AC
:10FB7000C000922F2093C6008091C00086FFFCCF6A
:10FB80008091C00080648093C0008EE08093C600A6
:10FB90008091C00086FFFCCF8091C000806480937C
:10FBA000C00065E1C15DDE4FE880CF52D1406E25D7
:10FBB00069276427FE01319610C090819093C6009A
:10FBC0008091C00086FFFCCF31968091C000806498
:10FBD0008093C0006927215030402115310569F715
:10FBE0006093C6008091C00086FFFCCF8091C0006A
:10FBF00080648093C00085B1805885B9772081F4F6
:10FC0000C15DDE4F0881CF52D1400F5FC15DDE4F35
:10FC10000883CF52D14090E0A0E0B0E00D941AF4F8
:10FC200027982F9880E090E020ED37E0F901319798
:10FC3000F1F7019684369105C9F700008091C00064
:10FC40008D7F8093C00081E180935700E895EE2777
:10FC5000FF270994FFCF90E00D941AF497FB092E2B
:10FC600007260AD077FD04D02ED006D000201AF443
:10FC7000709561957F4F0895F6F7909581959F4F08
:10FC80000895A1E21A2EAA1BBB1BFD010DC0AA1FDD
:10FC9000BB1FEE1FFF1FA217B307E407F50720F0F5
:10FCA000A21BB30BE40BF50B661F771F881F991F70
:10FCB0001A9469F760957095809590959B01AC01B9
:10FCC000BD01CF010895AA1BBB1B51E107C0AA1FAC
:10FCD000BB1FA617B70710F0A61BB70B881F991FED
:10FCE0005A95A9F780959095BC01CD010895F99991
:10FCF000FECF92BD81BDF89A992780B50895262F31
:10FD0000F999FECF1FBA92BD81BD20BD0FB6F89400
:0EFD1000FA9AF99A0FBE01960895F894FFCF63
:040000033000E000E9
:00000001FF