:1000000011C100003FC100003DC100003BC1000024
:1000100039C1000037C1000035C1000033C1000004
:1000200031C100002FC100002DC100002BC1000014
:1000300029C1000027C1000025C1000023C1000024
:1000400021C100001FC100001DC100001BC1000034
:1000500019C1000017C1000015C1000003C600004F
:1000600011C1000082C40000B9C300000BC1000030
:1000700009C1000007C1000005C1000003C1000064
:1000800001C10000FFC00000FDC00000FBC0000077
:10009000F9C00000F7C00000F5C00000F3C0000088
:1000A000F1C00000EFC00000EDC00000EBC0000098
:1000B000E9C00000E7C00000E5C00000E3C00000A8
:1000C000E1C00000DFC00000DDC00000DBC00000B8
:1000D000D9C00000D7C00000D5C00000D3C00000C8
:1000E000D1C00000A105A405930597059B05DB057C
:1000F000A805AC05B205B605BA05C005C405C80516
:10010000DB05CE05D205D6051112131415160A0B00
:100110000C0D0E0F00010203040500002200250053
:1001200028002B002E0031003400020100000501E0
:1001300008010B0100002100240027002A002D00E7
:100140003000330001010000040107010A01050528
:100150000505070508080808020202020A0A08083D
:10016000040404040101010101010101030303036B
:1001700003030303040707070C0C0C0C0C0C0C0CFA
:100180000202020206060606060606060B0B0B0B0B
:100190000B0B0B0B01021020200808102040102030
:1001A000408002010201080402010102040810203B
:1001B0004080804020100804020180040201804039
:1001C00020100804020108040201010204081020A2
:1001D0004080010204081020408000000A0B020940
:1001E0000C0D0E08070304010000000000000000D1
:1001F00000000000000000000000000000000000FF
:1002000000000000000012111000000000000000BB
:1002100000000000000000000000000000000000DE
:100220004B08750A11241FBECFEFD1E2DEBFCDBF50
:1002300000E00CBF13E0A0E0B2E0E2E9FBE100E087
:100240000BBF02C007900D92A631B107D9F724E089
:10025000A6E1B3E001C01D92A135B207E1F711E0BC
:10026000C1E1D1E000E006C021970109802FFE0125
:100270000E948C0CC031D10780E00807A9F79BD7FA
:100280000C94B80DBDCE90E0FC01EC56FE4F2491CD
:10029000FC01E25BFE4F8491882399F090E0880F87
:1002A000991FFC01EC5CFE4FA591B491FC01E65E48
:1002B000FE4F859194918FB7F894EC91E22BEC93DB
:1002C0008FBF0895CF92DF92EF92FF920F931F930B
:1002D000CF93DF936C017A018B01C0E0D0E0CE15A3
:1002E000DF0589F0D8016D918D01D601ED91FC916A
:1002F0000190F081E02DC6011995892B11F47E0142
:1003000002C02196ECCFC701DF91CF911F910F91D1
:10031000FF90EF90DF90CF90089586E193E0BCD2FC
:1003200021E0892B09F420E0822F0895CF93DF93F9
:100330009CB59F7D9CBD9CB5937F9CBD9CB59C7FCF
:100340009CBD9DB591609DBDCBE2D4E0682F8A81B4
:10035000CAD38C899D89DF91CF9141C40E948C0DB5
:1003600081E0E4CF80E0E2CF1F93CF93DF931F9231
:100370001F92CDB7DEB76A838983F4DF89818F71DD
:100380008062BAD4182F6A81862FB6D4E9DF812F14
:100390000F900F90DF91CF911F910895CF93DF932E
:1003A0001F92CDB7DEB78983DDDF89818F71A4D439
:1003B0008FEFA2D48983D4DF89810F90DF91CF9111
:1003C0000895EF92FF920F931F93CF93DF9300D086
:1003D000CDB7DEB7162F4A837B838983C3DF89813C
:1003E0008F71806289D4082FE12E7B81F72E4A819C
:1003F000140F1E1529F0F70181917F017DD4F9CFEB
:10040000AFDF802F0F900F900F90DF91CF911F9152
:100410000F91FF90EF90089580E0C0DF81FD09C04B
:10042000682F626080E0A0DF65E070E080E090E02F
:10043000E1C30895CF93DF931F92CDB7DEB792DF6C
:1004400081EE5AD489838CDF89810F90DF91CF911F
:10045000089520912B0430912C0440912D0450914B
:100460002E042417350719F0682F822F3CC30895F6
:10047000CF93DF93FC01448155816081718186E1D6
:1004800093E020DFEC0142E050E064EF72E086E1AF
:1004900093E018DF8C0F9D1FDF91CF910895CF92CD
:1004A000DF92EF92FF920F931F93CF93DF931F92F0
:1004B000CDB7DEB78C0180E0CCDF80913B0490911A
:1004C0003C048DD38DE16ADF81FF06C080913B043F
:1004D00090913C0484D3AEDF80E060DF682F6E7FB4
:1004E00080E042DF82E05ADFE4E1F1E0E49161E0A4
:1004F00070E001C0660FEA95EAF7682B82E034DF0E
:100500004091390466E072E08AE05BDF4091390493
:1005100066E072E080E155DF6091320481E124DF22
:100520000E94E10A64E670E00E94790CBC01665FFB
:100530007F4F072E000C880B990B5CD3F8010190BC
:100540000020E9F7319790913204CE2EC01A9C1505
:1005500008F4C92E80913304811103C0D92EDC1810
:1005600001C0D12CFFDE80EAC7D378010C0D0E1537
:1005700029F0F70181917F01BFD3F9CFDD2021F070
:1005800080E0BAD3DA94FACFEBDE81E062DFEADE14
:100590008FEFB2D38983E4DE89818073C1F380E079
:1005A00058DF60E787E0E0DE84FF03C043DF80E0E0
:1005B00001C081E00F90DF91CF911F910F91FF90CB
:1005C000EF90DF90CF9008950F931F93CF93DF9319
:1005D000EC0188819981009729F02A813B812617B7
:1005E000370788F48B016F5F7F4F0E94A80C00973C
:1005F00061F0998388831B830A832C813D81232B9F
:1006000011F4FC01108281E001C080E0DF91CF9104
:100610001F910F910895CF93DF93EC018881998109
:10062000009711F00E94840B198218821D821C828F
:100630001B821A82DF91CF910895EF92FF920F9360
:100640001F93CF93DF93EC01FB0184819581E080C0
:10065000F1800C811D81E114F104A9F00097A9F04B
:10066000080F191FB801CE01AFDF882361F0288180
:1006700039818C819D81B701820F931F0E94A20D49
:100680001D830C8302C0CE01C6DFCE01DF91CF9166
:100690001F910F91FF90EF900895EF92FF920F93AB
:1006A0001F93CF93DF93EC017B018A01BA018CDFAA
:1006B000811103C0CE01AFDF07C01D830C83B701DA
:1006C000888199810E94A20DCE01DF91CF911F9167
:1006D0000F91FF90EF900895FC01808191810C941F
:1006E000840BFB01DC0111961C921E9213961C9246
:1006F0001E92129715961C921E92149786179707B2
:1007000041F0608171816115710519F04481558155
:10071000C4CF0895FC0111821082138212821582C7
:1007200014826115710549F0FB0101900020E9F781
:100730003197AF01461B570BB0CF0895AF92BF92D0
:10074000DF92EF92FF920F931F93CF93DF931F924D
:100750001F92CDB7DEB78C017B0166EF72E0498353
:100760005A83D8DFD70114968D919C9115974981B2
:100770005A81009731F15A018A159B0508F45C01F2
:10078000D701ED91FC911197EA0DFB1DD0801082ED
:100790006D917C916115710559F0FB01019000206C
:1007A000E9F73197AF01461B570BC80176DF02C04E
:1007B000C80131DFF701808191818A0D9B1DDC0129
:1007C000DC92C8010F900F90DF91CF911F910F9194
:1007D000FF90EF90DF90BF90AF9008951F920F921F
:1007E0000FB60F9211240BB60F922F933F934F9396
:1007F0005F936F937F938F939F93AF93BF93EF9389
:10080000FF9386E193E0E7D0FF91EF91BF91AF9125
:100810009F918F917F916F915F914F913F912F9118
:100820000F900BBE0F900FBE0F901F90189508955C
:1008300080E090E00895FC01538D448D252F30E039
:10084000842F90E0821B930B541710F0CF960895DD
:1008500001970895FC01918D828D981761F0828D2A
:10086000DF01A80FB11D5D968C91928D9F5F9F73E4
:10087000928F90E008958FEF9FEF0895FC01918D86
:10088000828D981731F0828DE80FF11D858D90E0F3
:1008900008958FEF9FEF0895FC01918D228D892F90
:1008A00090E0805C9F4F821B91098F739927089578
:1008B00080E090E0892B19F030DD811125C080E0C7
:1008C00090E0892B41F080E090E0892B21F00E949C
:1008D000000081111CC080E090E0892B41F080E095
:1008E00090E0892B21F00E940000811113C080E06C
:1008F00090E0892BA1F080E090E0892B81F00E94AC
:10090000000081110AC008950E940000D8CF0E9403
:100910000000E1CF0E940000EACF0C94000008958F
:100920003FB7F8948091490490914A04A0914B04F8
:10093000B0914C0426B5A89B05C02F3F19F0019635
:10094000A11DB11D3FBFBA2FA92F982F8827820F55
:10095000911DA11DB11DBC01CD0142E0660F771FA5
:10096000881F991F4A95D1F708951F920F920FB6CD
:100970000F9211240BB60F922F938F939F93EF93A7
:10098000FF93E0912603F09127038081E0912C03EF
:10099000F0912D0382FD12C0908180912F038F5F13
:1009A0008F7320913003821751F0E0912F03F0E014
:1009B000EA5EFC4F958F80932F0301C08081FF91E9
:1009C000EF919F918F912F910F900BBE0F900FBEC3
:1009D0000F901F901895FC01848DDF01A80FB11DA9
:1009E000A35ABF4F2C91848D90E001968F73992765
:1009F000848FA689B7892C93A089B1898C91806452
:100A00008C93938D848D981306C00288F389E02D12
:100A100080818F7D80830895EF92FF920F931F93C3
:100A2000CF93DF93EC0181E0888F9B8D8C8D9813A1
:100A300005C0E889F989808185FD23C0F62E0B8DDC
:100A400010E00F5F1F4F0F731127E02E8C8DE812FF
:100A50000BC00FB607FCFACFE889F989808185FFC2
:100A6000F5CFCE01B8DFF2CF8B8DFE01E80FF11D7F
:100A7000E35AFF4FF0820B8FEA89FB898081806205
:100A800007C0EE89FF896083E889F98980818064E5
:100A9000808381E090E0DF91CF911F910F91FF90D3
:100AA000EF900895CF93DF93EC01888D8823C1F0F8
:100AB000EA89FB89808185FD05C0A889B9898C9167
:100AC00086FD0EC00FB607FCF5CF808185FFF2CF03
:100AD000A889B9898C9185FFEDCFCE017CDFE8CF65
:100AE000DF91CF910895362F90E0FC01E652FE4F42
:100AF0004491FC01EC56FE4F2491FC01E25BFE4F59
:100B00009491992309F46AC0442309F454C050E035
:100B1000FA013197E231F10508F04DC08827EE580F
:100B2000FF4F8F4FF9C6809180008F7707C080916B
:100B300080008F7D03C080918000877F809380003C
:100B40003AC084B58F7702C084B58F7D84BD33C031
:100B50008091B0008F7703C08091B0008F7D80932B
:100B6000B00029C0809190008F7707C080919000DD
:100B70008F7D03C080919000877F809390001BC081
:100B80008091A0008F7707C08091A0008F7D03C067
:100B90008091A000877F8093A0000DC080912001EC
:100BA0008F7707C0809120018F7D03C08091200145
:100BB000877F80932001E92FF0E0EE0FFF1FE65EB4
:100BC000FE4FA591B4918FB7F894EC91311103C009
:100BD00020952E2301C02E2B2C938FBF0895823099
:100BE000910538F0880F991F880F991F0597019775
:100BF000F1F708958F929F92AF92BF92CF92DF92BA
:100C0000EF92FF926B017C018BDE4B015C01C11402
:100C1000D104E104F104E9F083DEDC01CB018819A1
:100C20009909AA09BB09883E9340A105B10578F34B
:100C300021E0C21AD108E108F10888EE880E83E0AD
:100C4000981EA11CB11CC114D104E104F10421F7C8
:100C5000DECFFF90EF90DF90CF90BF90AF909F904E
:100C60008F9008951F920F920FB60F9211242F9319
:100C70003F938F939F93AF93BF938091450490913F
:100C80004604A0914704B09148043091440423E005
:100C9000230F2D3720F40196A11DB11D05C026E8B4
:100CA000230F0296A11DB11D209344048093450497
:100CB00090934604A0934704B0934804809149045C
:100CC00090914A04A0914B04B0914C040196A11D4F
:100CD000B11D8093490490934A04A0934B04B093B0
:100CE0004C04BF91AF919F918F913F912F910F90A5
:100CF0000FBE0F901F9018958EBD00000DB407FE1B
:100D0000FDCF8EB508958F929F92AF92BF92CF92F2
:100D1000DF92EF92FF920F931F93CF93DF93CDB7A4
:100D2000DEB7C85AD1090FB6F894DEBF0FBECDBFEB
:100D300073DB80E033DB682F616080E015DB60E708
:100D400087E012DB81E085DB80913404882339F071
:100D50004091390464E374E08AE033DB10C082E040
:100D60001DDBE4E1F1E0E49121E030E001C0220F7D
:100D7000EA95EAF72095622F682382E0F5DA8DE1A3
:100D80000DDB81FD57DB0EE295E6C92ED12CCC0E92
:100D9000DD1E84E0C80ED11C22EAE22E22E0F22EF3
:100DA00087E1FCDA80FD63C1A9961CAE1DAE1EAEC4
:100DB0001FAEA997F601802F11928A95E9F710913D
:100DC0003204123308F44EC182E3B82E809133040A
:100DD000811102C01B1901C010E0C4DA81E68CDF6A
:100DE000FE01EB59FF4F4F01BA94FFEFBF1629F0F8
:100DF0008FEF82DFF4018193F6CF112321F08FEF83
:100E00007BDF1150FACFACDA60E787E0ADDABE01E4
:100E10006B597F4FCE0183569F4F7CDCCF55DF4F00
:100E200088819981C15AD040892B29F480910C0284
:100E3000882361F03AC06CE072E0C356DF4F8881CE
:100E40009981CD59D04075D6892B79F56EE372E042
:100E5000CE0101965FDC63EB73E0CE010196EDDB22
:100E6000BC01CE0189569F4F3CDCCE01019634DC9B
:100E7000C956DF4F68817981C759D04044E650E0B8
:100E8000CE01019666D6CE01019609DB4AE050E01C
:100E900067EF72E086E193E015DA42E050E064EF3C
:100EA00072E086E193E00EDA9BC06EE372E0CE0161
:100EB00089569F4F2FDC63EB73E0CE0189569F4F1D
:100EC000BCDB5C0146E050E0BE0163567F4FCE01C3
:100ED000019634DC2D813E81F501848195812817AE
:100EE000390711F589819A8160817181009719F024
:100EF00061157105A9F46115710551F021153105D0
:100F000039F0FB01808190E091958195910909C0AC
:100F1000009761F0232B51F0FC01808190E001C02B
:100F200008D611E0892B19F010E001C011E0CE01C4
:100F30000196D2DBCE0189569F4FCEDB112309F4F7
:100F400053C06EE372E0CE010196E4DB63EB73E025
:100F5000CE01019672DB5C01FC0184809580F8E093
:100F60008F0E911CB40130DB882309F47DC0F5019C
:100F7000208131818481958162E073E0820F931F2B
:100F8000E1D5F50195828482B501CE0189569F4F46
:100F9000A8DBCE010196A0DBBE0169567F4FCE01D2
:100FA0008D559F4F9EDBCD55DF4F68817981C35AA8
:100FB000D04044E650E0CE010196CBD5CE0101965B
:100FC0006EDACE018D559F4F87DB6BE073E0CE016B
:100FD0000196A0DBCE0101964BDACE0101967CDBB7
:100FE000CE0189569F4F38C044E050E0BE016356A1
:100FF0007F4FCE010196A2DB8D819E81892B39F432
:1010000011E0E114F104A9F08091A20208C08981E5
:101010009A81E114F10431F411E0FC01808188230C
:1010200041F006C062EA72E084D511E0892B09F034
:1010300010E0CE01019650DB11110FC06FE073E09C
:10104000CE01019667DBBE0163567F4FCE0101964C
:10105000F4DA0EDACE0101963FDBCE0183569F4FC4
:101060003BDB9ECEB12EB2CEC501D5DA8DCFC855B1
:10107000DF4F0FB6F894DEBF0FBECDBFDF91CF912B
:101080001F910F91FF90EF90DF90CF90BF90AF90A6
:101090009F908F900895CF93DF9310921903109231
:1010A000180388EE93E0A0E0B0E080931A039093D9
:1010B0001B03A0931C03B0931D0382EE92E0909358
:1010C00017038093160385EC90E09093230380939D
:1010D000220384EC90E0909325038093240380EC1A
:1010E00090E0909327038093260381EC90E0909307
:1010F00029038093280382EC90E090932B03809344
:101100002A0386EC90E090932D0380932C03109299
:101110002F0310923003109231031092320387E0B4
:1011200090E090932C0480932B0488E090E09093BF
:101130002E0480932D041092310480E280933204B7
:101140001092330485E08093390485E090E0A0E0BC
:10115000B0E080933F0490934004A0934104B09387
:1011600042041092340460EF72E083EB93E0D2DA31
:10117000C0E0D0E0269666EF72E0CE018D549C4F21
:10118000C9DACC33D105B1F710920A0410920904E0
:10119000C0E0D0E066EF72E0CE01855F9B4FBADA27
:1011A0002696CE31D105B1F710922A041092290467
:1011B000DF91CF910895789484B5826084BD84B521
:1011C000816084BD85B5826085BD85B5816085BD42
:1011D00080916E00816080936E00109281008091FA
:1011E0008100826080938100809181008160809382
:1011F0008100809180008160809380008091B100A7
:1012000084608093B1008091B00081608093B000D1
:101210008091910082608093910080919100816023
:1012200080939100809190008160809390008091E4
:10123000A10082608093A1008091A10081608093D1
:10124000A1008091A00081608093A0008091210185
:10125000826080932101809121018160809321012E
:101260008091200181608093200180917A008460C8
:1012700080937A0080917A00826080937A008091D6
:101280007A00816080937A0080917A0080688093F0
:101290007A001092C100E0912603F091270382E0CA
:1012A0008083E0912203F09123031082E0912403D4
:1012B000F09125038FEC808310922E03E0912A0396
:1012C000F0912B0386E08083E0912803F0912903BD
:1012D000808180618083E0912803F09129038081DF
:1012E00088608083E0912803F091290380818068E1
:1012F0008083E0912803F091290380818F7D808392
:1013000080912B0490912C0420912D0430912E0477
:101310008217930711F00E94430180912D04909150
:101320002E0420912B0430912C042817390711F03A
:101330000E944301CFB7F89480914304811123C0E8
:10134000E3E8F1E08491E9ECF1E09491E82FF0E03A
:10135000EE0FFF1FEC5CFE4FA591B491EC91E923D9
:1013600019F461E085E3BFDB85E30E9443018CB59E
:1013700080618CBD8CB580648CBD84E30E94430188
:1013800083E30E944301809143048F5F8093430471
:10139000CFBF80E05ED881E00E94960165E070E0FA
:1013A00080E090E027DC6CE080E00E94B4016FE513
:1013B00084E00E94B40186E00E94CE01877DC82FA0
:1013C000C0628BE990E0A0E0B0E080933B04909392
:1013D0003C04A0933D04B0933E046C2F86E00E9431
:1013E000B40186E00E94CE018C1709F47AC086E031
:1013F0000E94CE0186E00E94CE0145E550E060E00B
:1014000070E040933B0450933C0460933D04709320
:101410003E04682F677D86E00E94B40186E00E944A
:10142000CE010E94B20180E567DC83E765DC0E94A3
:10143000B00160E08DE10E94B40160E08CE10E94A7
:10144000B4011092330460E787E00E94B4016CE4B9
:1014500085E00E94B4010E94B20182EE4DDC0E9440
:10146000B0010E941A020E940C0280E00E94CE018C
:10147000682F6E7F80E00E94B4014091390450E0F3
:1014800060E072E084E394E04BD3EEE0F1E084911D
:101490004091390460E072E00E94E101E8E0F1E08F
:1014A0008491609132040E94B40182E00E94CE01D6
:1014B000E4E1F1E0E49161E070E001C0660FEA95DB
:1014C000EAF7682B82E00E94B40186E00E94CE0118
:1014D000887F682F616086E00E94B40114DCE8D93F
:1014E000FDCF81E08093310482CFCF93DF938BE0F7
:1014F00094E0892B29F489EB93E0892B69F415C0DA
:10150000C0E0D0E0CE018D5D9B4FE6D82697C23E6D
:101510008FEFD807B9F7EFCFCFEED3E0CE01DCD80D
:10152000269783E0C33BD807C9F783EB93E0DF91AD
:10153000CF91D2C88F929F92AF92BF92CF92DF92FB
:10154000EF92FF92CF93DF93EC01688179818A81DA
:101550009B81611571058105910521F464E279EDA6
:101560008BE597E02DE133EF41E050E065D1490193
:101570005A019B01AC01A7EAB1E47AD16B017C016D
:10158000ACEEB4EFA50194017FD1DC01CB018C0D51
:101590009D1DAE1DBF1DB7FF03C00197A109B04837
:1015A00088839983AA83BB839F77DF91CF91FF9034
:1015B000EF90DF90CF90BF90AF909F908F90089565
:1015C000B9CF84ED92E0B6CFA0E0B0E08093D40232
:1015D0009093D502A093D602B093D7020895CF93EB
:1015E000DF938230910510F482E090E0E0914F04A7
:1015F000F091500420E030E0C0E0D0E0309711F1ED
:101600004081518148175907C0F04817590761F4C4
:1016100082819381209719F09B838A832BC09093BA
:10162000500480934F0426C02115310519F042174C
:10163000530718F49A01BE01DF01EF010280F38124
:10164000E02DDCCF2115310509F1281B390B2430A1
:10165000310590F412968D919C9113976115710547
:1016600021F0FB019383828304C090935004809304
:101670004F04FD01329644C0FD01E20FF31F819338
:101680009193225031092D933C933AC020914D04FF
:1016900030914E04232B41F42091DA023091DB0289
:1016A00030934E0420934D042091D8023091D902FA
:1016B0002115310541F42DB73EB74091DC02509120
:1016C000DD02241B350BE0914D04F0914E04E2172E
:1016D000F307A0F42E1B3F0B2817390778F0AC0155
:1016E0004E5F5F4F2417350748F04E0F5F1F509332
:1016F0004E0440934D048193919302C0E0E0F0E0EA
:10170000CF01DF91CF9108950F931F93CF93DF9374
:10171000009709F48CC0FC01329713821282009169
:101720004F04109150040115110581F4208131817D
:10173000820F931F20914D0430914E0428173907D2
:1017400079F5F0934E04E0934D0471C0D80140E068
:1017500050E0AE17BF0750F412962D913C911397AD
:10176000AD012115310509F1D901F3CF9D01DA0150
:101770003383228360817181860F971F82179307BD
:1017800069F4EC0128813981260F371F2E5F3F4F06
:10179000318320838A819B8193838283452B29F423
:1017A000F0935004E0934F0442C01396FC93EE93E1
:1017B0001297ED01499159919E01240F351FE217AF
:1017C000F30771F480819181840F951F0296119621
:1017D0009C938E938281938113969C938E93129700
:1017E000E0E0F0E0D80112968D919C91139700975C
:1017F00019F0F8018C01F6CF8D919C9198012E5F24
:101800003F4F820F931F20914D0430914E042817B3
:10181000390769F4309729F41092500410924F045C
:1018200002C01382128210934E0400934D04DF9184
:10183000CF911F910F910895052E97FB16F40094F8
:101840000FD057FD05D024D007FC02D046F408C0C5
:1018500050954095309521953F4F4F4F5F4F0895DC
:1018600090958095709561957F4F8F4F9F4F08950C
:1018700031D0A59F900DB49F900DA49F800D911D18
:1018800011240895B7FFF4CFF3DF821B930B089563
:10189000A1E21A2EAA1BBB1BFD010DC0AA1FBB1F74
:1018A000EE1FFF1FA217B307E407F50720F0A21BE6
:1018B000B30BE40BF50B661F771F881F991F1A9453
:1018C00069F760957095809590959B01AC01BD017D
:1018D000CF010895A29FB001B39FC001A39F700DD7
:1018E000811D1124911DB29F700D811D1124911D28
:1018F000089597FB072E16F4009406D077FD08D0C4
:1019000013D007FC05D03EF4909581959F4F089524
:10191000709561957F4F0895EE0FFF1F881F8BBF55
:101920000790F691E02D1994AA1BBB1B51E107C04B
:10193000AA1FBB1FA617B70710F0A61BB70B881F5F
:10194000991F5A95A9F780959095BC01CD010895EE
:101950006F927F928F929F92AF92BF92CF92DF92BF
:10196000EF92FF920F931F93CF93DF93EC010097B9
:1019700081F4CB01DF91CF911F910F91FF90EF90F8
:10198000DF90CF90BF90AF909F908F907F906F909F
:1019900026CEFC01E60FF71F9C0122503109E21709
:1019A000F30708F4A8C0D9010D911C9111970617EF
:1019B0001707A8F00530110508F49BC0C80104976B
:1019C0008617970708F495C002501109061B170BDC
:1019D000019311936D937C93CF0196DE8AC05B01D6
:1019E000A01AB10A4C01800E911EA0914F04B09133
:1019F000500440E050E0E12CF12C109709F44AC06B
:101A0000A815B905D1F56D907C901197630182E01E
:101A1000C80ED11CCA14DB0480F1A3014A195B096A
:101A20006A0182E0C80ED11C1296BC9012971396E0
:101A3000AC91B5E0CB16D10440F0B282A3835183C0
:101A40004083D9016D937C930AC00E5F1F4FC30181
:101A5000800F911FF90191838083EB2DFA2FE11400
:101A6000F10431F0D7011396FC93EE93129741C025
:101A7000F0935004E0934F043CC08D919C911197DA
:101A80004817590708F4AC017D0112960D90BC91DE
:101A9000A02DB3CF80914D0490914E0488159905E7
:101AA000E1F446175707C8F48091D8029091D90203
:101AB000009741F48DB79EB74091DC025091DD0252
:101AC000841B950BE817F907B0F4F0934E04E093EC
:101AD0004D04F901718360830CC0CB0180DD7C0172
:101AE000009749F0A801BE011BD0CE010DDEC70151
:101AF00004C0CE0102C080E090E0DF91CF911F9141
:101B00000F91FF90EF90DF90CF90BF90AF909F909C
:101B10008F907F906F90089581E090E0F89428C0B6
:101B2000FB01DC0102C001900D9241505040D8F7FA
:101B30000895FB01DC018D91019080190110D9F30A
:101B4000990B0895FB01DC0101900D920020E1F753
:101B50000895FB01DC014150504048F001900D9286
:101B60000020C9F701C01D9241505040E0F7089590
:101B700011E0C1E1D1E000E005C0802FFE01CCDE24
:101B80002196011DC231D10780E00807B1F7F89412
:021B9000FFCF85
:101B92004544434241004142434445006469736302
:101BA2006F4E65696768626F727300000000000023
:101BB2000000000000000000000000000000000023
:101BC2000000000000000000000000000000496466
:101BD2005F000000000000000000000000000000A4
:101BE20000000000000000000000000000000000F3
:101BF20000000000000000000000000000000000E3
:101C0200726571536F6E73000000000000000000E7
:101C120000000000000000000000000000000000C2
:101C220000000000000000000000000000000000B2
:101C320000006D73675F00000000000000000000FC
:101C42000000000000000000000000000000000092
:101C52000000000000000000000000000000000082
:101C6200000000000100000000005104800000009C
:101C720000000C0562011B0452054C042A043E04B8
:101C8200303031000D0A0073656E742069642E2EA7
:101C92002E005F61636B506970650061636B006168
:061CA200746865723A004F
:020000023000CC
:10E000000D9489F10D94B2F10D94B2F10D94B2F129
:10E010000D94B2F10D94B2F10D94B2F10D94B2F1F0
:10E020000D94B2F10D94B2F10D94B2F10D94B2F1E0
:10E030000D94B2F10D94B2F10D94B2F10D94B2F1D0
:10E040000D94B2F10D94B2F10D94B2F10D94B2F1C0
:10E050000D94B2F10D94B2F10D94B2F10D94B2F1B0
:10E060000D94B2F10D94B2F10D94B2F10D94B2F1A0
:10E070000D94B2F10D94B2F10D94B2F10D94B2F190
:10E080000D94B2F10D94B2F10D94B2F10D94B2F180
:10E090000D94B2F10D94B2F10D94B2F10D94B2F170
:10E0A0000D94B2F10D94B2F10D94B2F10D94B2F160
:10E0B0000D94B2F10D94B2F10D94B2F10D94B2F150
:10E0C0000D94B2F10D94B2F10D94B2F10D94B2F140
:10E0D0000D94B2F10D94B2F10D94B2F10D94B2F130
:10E0E0000D94B2F141546D656761323536300041AF
:10E0F000726475696E6F206578706C6F72657220DE
:10E1000073746B3530305632206279204D4C530099
:10E11000426F6F746C6F616465723E004875683F52
:10E1200000436F6D70696C6564206F6E203D200048
:10E130004350552054797065202020203D20005FF9
:10E140005F4156525F415243485F5F3D2000415658
:10E1500052204C696243205665723D20004743437C
:10E160002056657273696F6E203D20004350552024
:10E1700049442020202020203D20004C6F7720663D
:10E18000757365202020203D20004869676820665F
:10E190007573652020203D200045787420667573D6
:10E1A00065202020203D20004C6F636B2066757336
:10E1B000652020203D20004D617220203720323024
:10E1C000313300312E362E3800342E332E350056A2
:10E1D00023202020414444522020206F7020636F70
:10E1E00064652020202020696E73747275637469E1
:10E1F0006F6E2061646472202020496E74657272B3
:10E20000757074006E6F20766563746F7200726A49
:10E210006D702020006A6D70200057686174207056
:10E220006F72743A00506F7274206E6F7420737541
:10E2300070706F72746564004D7573742062652030
:10E2400061206C6574746572002000577269747483
:10E25000696E672045450052656164696E672045B7
:10E26000450045452065727220636E743D00504F35
:10E27000525400303D5A65726F2061646472003FF1
:10E280003D43505520737461747300403D454550C3
:10E29000524F4D207465737400423D426C696E6B41
:10E2A000204C454400453D44756D70204545505215
:10E2B0004F4D00463D44756D7020464C415348001B
:10E2C000483D48656C70004C3D4C69737420492F83
:10E2D0004F20506F72747300513D51756974005234
:10E2E0003D44756D702052414D00563D73686F7707
:10E2F00020696E7465727275707420566563746FF0
:10E30000727300593D506F727420626C696E6B00BD
:10E310002A0011241FBECFEFD1E2DEBFCDBF01E046
:10E320000CBF12E0A0E0B2E0EEE1FDEF03E00BBFB6
:10E3300002C007900D92A030B107D9F712E0A0E01B
:10E34000B2E001C01D92AE30B107E1F70F9460F367
:10E350000D948DFE01E20EBF0FEF0DBF11241FBE05
:10E360000D9460F30D9400F020E030E040ED57E0B4
:10E3700005C0FA013197F1F72F5F3F4F2817390792
:10E38000C0F308959C01260F311DC901A0E0B0E043
:10E390002F5F3F4FABBFFC018791882361F08093D3
:10E3A000C6008091C00086FFFCCF8091C0008064D1
:10E3B0008093C000EACF08958DE08093C6008091DD
:10E3C000C00086FFFCCF8091C00080648093C000B5
:10E3D0008AE08093C6008091C00086FFFCCF8091C8
:10E3E000C00080648093C00008950F94C2F10F9420
:10E3F000DCF10895FC019081992359F09093C600B7
:10E400008091C00086FFFCCF8091C0008064809323
:10E41000C0003196992379F70895282F982F929567
:10E420009F70892F805D8A3308F0895F8093C600D2
:10E430008091C00086FFFCCF8091C00080648093F3
:10E44000C000822F8F70982F905D9A3308F0995FEB
:10E450009093C6008091C00086FFFCCF8091C000E1
:10E4600080648093C00008959C01FB01853691056E
:10E470001CF46330710594F0C90164E670E00F94F8
:10E480002EFE605D7F4F6093C6008091C00086FFC6
:10E49000FCCF8091C00080648093C0002B30310598
:10E4A00014F43297B4F0C90164E670E00F942EFEC4
:10E4B0006AE070E00F942EFE605D7F4F6093C600AF
:10E4C0008091C00086FFFCCF8091C0008064809363
:10E4D000C000C9016AE070E00F942EFEC0968093E0
:10E4E000C6008091C00086FFFCCF8091C000806490
:10E4F0008093C00008951F93182F8EE692EE60E07F
:10E500000F94C2F11093C6008091C00086FFFCCF2B
:10E510008091C00080648093C0000F94DCF11F9153
:10E5200008952F923F924F925F926F927F928F92B7
:10E530009F92AF92BF92CF92DF92EF92FF920F9392
:10E540001F93DF93CF93CDB7DEB762970FB6F894E2
:10E55000DEBF0FBECDBF382E622ECA01DB015C01CB
:10E560006D01772420E2222E2E010894411C511CBB
:10E570008BC081E0A81680E0B80681E0C80680E084
:10E58000D80628F0C601AA27BB270F940DF2BB2797
:10E59000AD2D9C2D8B2D0F940DF28A2D0F940DF225
:10E5A0002092C6008091C00086FFFCCF8091C00001
:10E5B00080648093C0009DE29093C6008091C0006B
:10E5C00086FFFCCF8091C00080648093C0002092C1
:10E5D000C6008091C00086FFFCCF8091C00080649F
:10E5E0008093C00019828601750188249924A1E0D6
:10E5F0003A1651F03A1620F0B2E03B1661F409C029
:10E600000BBFF701779007C0C7010F9477FE782EF4
:10E6100002C0F7017080872D0F940DF22092C60082
:10E620008091C00086FFFCCF8091C0008064809301
:10E63000C000872D8052F401EF70F0708F3520F408
:10E64000E40DF51D708204C0E40DF51D8EE280839B
:10E650000894E11CF11C011D111D0894811C911CE2
:10E6600090E18916910409F0C2CF80E190E0A0E02A
:10E67000B0E0A80EB91ECA1EDB1E198AC2010F9493
:10E68000FAF10F94DCF16A94662009F072CF629679
:10E690000FB6F894DEBF0FBECDBFCF91DF911F91B3
:10E6A0000F91FF90EF90DF90CF90BF90AF909F9031
:10E6B0008F907F906F905F904F903F902F90089534
:10E6C0002F923F924F925F926F927F928F929F9282
:10E6D000AF92BF92CF92DF92EF92FF920F931F9370
:10E6E000DF93CF93CDB7DEB7CD53D1400FB6F894BB
:10E6F000DEBF0FBECDBF01E20EBF0FEF0DBF94B75F
:10E70000F894A89514BE80916000886180936000A1
:10E7100010926000789493FF05C0E0910002F091A0
:10E7200001021995279A2F9A8091C00082608093E8
:10E73000C00080E18093C40088E18093C1000000A4
:10E74000EE24FF24870144E0A42EB12CCC24DD2448
:10E7500024C0C5010197F1F70894E11CF11C011DCB
:10E76000111D21E2E2162EE4F20620E0020720E06D
:10E77000120718F031E0C32ED12CC801B70127ECE5
:10E780003BE140E050E00F9441FE611571058105C9
:10E79000910519F485B1805885B98091C00087FD35
:10E7A00003C0C114D104A9F2A6014F5F5F4FC25E3E
:10E7B000DE4F59834883CE51D140C25EDE4F8881FF
:10E7C0009981CE51D140019711F00D9410FEC05D9A
:10E7D000DE4F19821882C053D14060E0C15DDE4F28
:10E7E0001882CF52D14088249924C35DDE4F19820C
:10E7F0001882CD52D140C05EDE4F188219821A8233
:10E800001B82C052D140CE5CDE4F188219821A8220
:10E810001B82C253D140EE24FF2487010BBFF701B6
:10E8200007911691C45CDE4F19830883CC53D14005
:10E830000D940BFEC25EDE4F28813981CE51D1404E
:10E840002130310509F52091C600C25EDE4F1982E4
:10E850001882CE51D14022C02F5F3F4F4F4F5F4FA4
:10E86000213082E138078AE7480780E0580780F0C6
:10E87000C45CDE4FE881F981CC53D140EF5FFF4F9C
:10E8800019F0EE27FF27099420E030E040E050E047
:10E890008091C00087FFE0CF2091C600C35DDE4FAE
:10E8A00048815981CD52D1404F5F5F4FC35DDE4FEC
:10E8B00059834883CD52D140213209F063C64A3092
:10E8C000510508F05FC60894811C911C53E0851621
:10E8D000910409F059C600E010E018C081E280936D
:10E8E000C6008091C00086FFFCCF8091C00080648C
:10E8F0008093C0002F5F3F4F2931310579F70F9486
:10E90000DCF10F5F1F4F0530110519F020E030E0FA
:10E91000E5CF10920A0210920B0210920C02109294
:10E920000D02109206021092070210920802109235
:10E930000902109202021092030210920402109235
:10E9400005028FEE90EE60E00F94F5F180E191EE1C
:10E9500060E00F94C2F18091C00087FFFCCF9091DE
:10E96000C600903608F09F759032B8F09093C600BC
:10E970008091C00086FFFCCF8091C00080648093AE
:10E98000C000A0E2A093C6008091C00086FFFCCF2B
:10E990008091C00080648093C000983409F4D7C18E
:10E9A0009934B8F4923409F459C1933458F490333B
:10E9B00019F1903308F4E3C59F33A1F1903409F0C5
:10E9C000DEC5BDC0953409F470C1963409F0D7C5D1
:10E9D00098C1923509F42BC2933538F49C3409F46C
:10E9E000F5C1913509F0CBC518C2963509F445C279
:10E9F000993509F0C4C567C483E792EE62E00F94CD
:10EA0000F5F110920602109207021092080210927D
:10EA1000090210920A0210920B0210920C0210923C
:10EA20000D0213C18FE792EE62E00F94F5F18FEEC5
:10EA300090EE60E00F94F5F181E291EE60E00F94CA
:10EA4000C2F187EB91EE60E00F94F5F180E391EE77
:10EA500060E00F94C2F184EE90EE60E00F94F5F167
:10EA60008FE391EE60E00F94C2F186E090E061E008
:10EA700070E00F9434F20F94DCF18DE591EE60E0DC
:10EA80000F94C2F189EC91EE60E00F94F5F18EE401
:10EA900091EE60E00F94C2F183EC91EE60E00F9490
:10EAA000F5F18CE691EE60E00F94C2F18EE10F94E7
:10EAB0000DF288E90F940DF281E00F940DF20F949E
:10EAC000DCF18BE791EE60E00F94C2F119E0E0E039
:10EAD000F0E010935700E4918E2F0F940DF20F94F5
:10EAE000DCF18AE891EE60E00F94C2F1E3E0F0E03F
:10EAF00010935700E4918E2F0F940DF20F94DCF1D8
:10EB000089E991EE60E00F94C2F1E2E0F0E0109349
:10EB10005700E4918E2F0F940DF20F94DCF188EAE8
:10EB200091EE60E00F94C2F1E1E0F0E01093570045
:10EB30001491812F0F940DF20F94DCF107CF8BE825
:10EB400092EE62E00F94F5F18BE492EE60E00F94A8
:10EB5000F5F10F94DCF100E010E019C0C8016F2D51
:10EB60000F947FFEFF2031F489E492EE60E00F9471
:10EB7000C2F10BC0F092C6008091C00086FFFCCFAE
:10EB80008091C00080648093C0000F5F1F4FC80158
:10EB900081519F41A0E0B0E0ABBFFC01F790BAE229
:10EBA000FB1621F0E2E000301E07C1F60F94DCF105
:10EBB0000F94DCF187E592EE60E00F94F5F10F948D
:10EBC000DCF1CC24DD2400E010E01EC0C8010F946D
:10EBD00077FEF82E882331F489E492EE60E00F94FA
:10EBE000C2F10BC08093C6008091C00086FFFCCFAD
:10EBF0008091C00080648093C000FE1419F00894D6
:10EC0000C11CD11C0F5F1F4FC80181519F41A0E063
:10EC1000B0E0ABBFFC01E790FAE2EF1621F022E092
:10EC20000030120799F60F94DCF10F94DCF182E6C4
:10EC300092EE60E00F94C2F1C60161E070E00F94C3
:10EC400034F20F94DCF10F94DCF110920202109276
:10EC50000302109204021092050278CE89E992EE26
:10EC600062E00F94F5F1279A2F9A16C02F9880E052
:10EC700090E0E0EDF7E03197F1F7019684369105E9
:10EC8000C1F72F9A80E090E0E0EDF7E03197F1F7DF
:10EC9000019684369105C1F78091C00087FFE6CFC9
:10ECA0008091C00087FFFCCF64C485EA92EE62E0E9
:10ECB0000F94F5F140910202509103026091040219
:10ECC0007091050281E020E10F9491F2809102029F
:10ECD00090910302A0910402B091050280509F4FD1
:10ECE000AF4FBF4F8093020290930302A0930402A0
:10ECF000B093050280509041A040B04008F426CE69
:10ED0000A4CF83EB92EE62E00F94F5F140910602FE
:10ED100050910702609108027091090280E020E1A1
:10ED20000F9491F28091060290910702A09108023F
:10ED3000B091090280509F4FAF4FBF4F80930602A2
:10ED400090930702A0930802B0930902FFCD80ECD4
:10ED500092EE62E00F94F5F183E792EE60E00F949B
:10ED6000F5F18FE792EE60E00F94F5F18BE892EE0B
:10ED700060E00F94F5F189E992EE60E00F94F5F10F
:10ED800085EA92EE60E00F94F5F183EB92EE60E09D
:10ED90000F94F5F180EC92EE60E00F94F5F187ECC2
:10EDA00092EE60E00F94F5F188ED92EE60E00F9442
:10EDB000F5F18FED92EE60E00F94F5F18AEE92EEB0
:10EDC00060E00F94F5F183E093EEBDCD87EC92EE19
:10EDD00062E00F94F5F181E40F947BF282E40F94EA
:10EDE0007BF283E40F947BF284E40F947BF285E45E
:10EDF0000F947BF286E40F947BF287E40F947BF20E
:10EE000088E40F947BF28AE40F947BF28BE40F94F6
:10EE10007BF28CE40F947BF299CD88ED92EE62E068
:10EE20000F94F5F1772473948824992409C48FED05
:10EE300092EE62E00F94F5F140910A0250910B02BC
:10EE400060910C0270910D0282E020E10F9491F22A
:10EE500080910A0290910B02A0910C02B0910D02D8
:10EE600080509F4FAF4FBF4F80930A0290930B0289
:10EE7000A0930C02B0930D0269CD8AEE92EE62E08F
:10EE80000F94F5F184EE90EE60E00F94F5F18FECC5
:10EE900091EE60E00F94F5F1662477244301CC5D98
:10EEA000DE4F19821882C452D140D401C301B695F5
:10EEB000A79597958795CA5DDE4F88839983AA8326
:10EEC000BB83C652D140CC5DDE4FA881B981C4520C
:10EED000D1401196CC5DDE4FB983A883C452D14096
:10EEE000CD0162E070E00F9434F2B0E2B093C6005E
:10EEF0008091C00086FFFCCF8091C0008064809329
:10EF0000C000EDE2E093C6008091C00086FFFCCF18
:10EF10008091C00080648093C000F0E2F093C6004E
:10EF20008091C00086FFFCCF8091C00080648093F8
:10EF3000C000CA5DDE4FE880F9800A811B81C6529D
:10EF4000D140BB27A12F902F8F2D0F940DF2CA5DBA
:10EF5000DE4F8881C652D1400F940DF2B0E2FB2EF5
:10EF6000F092C6008091C00086FFFCCF8091C00067
:10EF700080648093C0000DE30093C6008091C000C0
:10EF800086FFFCCF8091C00080648093C00010E2B7
:10EF90001093C6008091C00086FFFCCF8091C00016
:10EFA00080648093C0008BBEF3012791C65DDE4F65
:10EFB0002883CA52D140A22EBB24CC24DD2408943D
:10EFC000611C711C811C911C8BBEF3018791282E42
:10EFD0003324442455240894611C711C811C911C09
:10EFE0008BBEF3013791C55DDE4F3883CB52D140E4
:10EFF0000894611C711C811C911C8BBEF30147910C
:10F00000C45DDE4F4883CC52D140ADEFEA2EAFEF66
:10F01000FA2EAFEF0A2FAFEF1A2F6E0C7F1C801E57
:10F02000911E142D032DF22CEE24EA0CFB1C0C1D5A
:10F030001D1D0F940DF220E22093C6008091C000A8
:10F0400086FFFCCF8091C00080648093C000C65DC5
:10F05000DE4F8881CA52D1400F940DF230E23093D6
:10F06000C6008091C00086FFFCCF8091C000806404
:10F070008093C000C45DDE4F8881CC52D1400F9494
:10F080000DF240E24093C6008091C00086FFFCCFA5
:10F090008091C00080648093C000C55DDE4F888190
:10F0A000CB52D1400F940DF250E25093C6008091A4
:10F0B000C00086FFFCCF8091C00080648093C000B8
:10F0C0008FEFE8168FEFF80680E0080780E018075A
:10F0D00031F484E092EE60E00F94C2F1DFC0D80119
:10F0E000C7018070907CA070B0708050904CA040A0
:10F0F000B040D1F52FEF3FE340E050E0E222F322B1
:10F1000004231523CA5DDE4FA880B980CA80DB8046
:10F11000C652D140AE0CBF1CC01ED11EAA0CBB1CD7
:10F12000CC1CDD1C8EE092EE60E00F94C2F1BB2798
:10F13000A12F902F8F2D0F940DF28E2D0F940DF285
:10F1400030E23093C6008091C00086FFFCCF8091F2
:10F15000C00080648093C0004EE34093C60080915D
:10F16000C00086FFFCCF87C08EE09EEFA0E0B0E03D
:10F17000E822F9220A231B239CE0E91694E9F90608
:10F1800090E0090790E0190709F088C0C45DDE4FE0
:10F19000A881CC52D140EA2EFF2400E010E0102FCD
:10F1A0000F2DFE2CEE24C55DDE4FB881CB52D14031
:10F1B000EB0EF11C011D111DD601C501817090706F
:10F1C000A070B070DC0199278827E80EF91E0A1F8D
:10F1D0001B1F20EF30E040E050E0A222B322C42207
:10F1E000D52241E1AA0CBB1CCC1CDD1C4A95D1F7F1
:10F1F000EA0CFB1C0C1D1D1D81E090E0A0E0B0E0BE
:10F20000282239224A225B2235E1220C331C441C7D
:10F21000551C3A95D1F7E20CF31C041D151D57013E
:10F220006801AA0CBB1CCC1CDD1C85E192EE60E0E1
:10F230000F94C2F1C801AA27BB270F940DF2BB2778
:10F24000A12F902F8F2D0F940DF28E2D0F940DF274
:10F2500090E29093C6008091C00086FFFCCF809121
:10F26000C00080648093C000AEE3A093C60080918C
:10F27000C00086FFFCCF8091C00080648093C000F6
:10F28000C601AA27BB270F940DF2BB27AD2D9C2DDD
:10F290008B2D0F940DF28A2D0F940DF20F94DCF14B
:10F2A000CC5DDE4FE881F981C452D140F99709F471
:10F2B0004DCBF4E0EF2EF12C012D112D6E0C7F1CA7
:10F2C000801E911EF2CD83E093EE62E00F94F5F183
:10F2D0008AE192EE60E00F94C2F18091C00087FF56
:10F2E000FCCF1091C6001F751093C6008091C0001E
:10F2F00086FFFCCF8091C00080648093C0000F9493
:10F30000DCF1812F81548A3108F036C1163409F4BA
:10F3100095C0173490F4133409F44EC0143430F40B
:10F320001134F1F0123409F01DC130C0143409F465
:10F3300059C0153409F016C16BC01A3409F4C4C0A1
:10F340001B3438F4173409F48FC0183409F00AC19B
:10F35000A1C01B3409F4D2C01C3409F003C1E8C0B9
:10F360008FEF81B90DC082B1809582B980E090E0C5
:10F37000E0EDF7E03197F1F70196883C9105C1F790
:10F380008091C00087FFEFCF12B8EFC08FEF84B934
:10F390000DC085B1809585B980E090E0E0EDF7E0A3
:10F3A0003197F1F70196883C9105C1F78091C00033
:10F3B00087FFEFCF15B8D9C08FEF87B90DC088B1DF
:10F3C000809588B980E090E0E0EDF7E03197F1F7C3
:10F3D0000196883C9105C1F78091C00087FFEFCF6F
:10F3E00018B8C3C08FEF8AB90DC08BB180958BB9A7
:10F3F00080E090E0E0EDF7E03197F1F70196883C8E
:10F400009105C1F78091C00087FFEFCF1BB8ADC059
:10F410008FEF8DB90DC08EB180958EB980E090E0F0
:10F42000E0EDF7E03197F1F70196883C9105C1F7DF
:10F430008091C00087FFEFCF1EB897C08FEF80BBD1
:10F440000DC081B3809581BB80E090E0E0EDF7E0F6
:10F450003197F1F70196883C9105C1F78091C00082
:10F4600087FFEFCF11BA81C08FEF83BB0DC084B38C
:10F47000809584BB80E090E0E0EDF7E03197F1F714
:10F480000196883C9105C1F78091C00087FFEFCFBE
:10F4900014BA6BC08FEF809301010FC080910201FD
:10F4A00080958093020180E090E0E0EDF7E03197F5
:10F4B000F1F70196883C9105C1F78091C00087FF64
:10F4C000EDCF1092020151C08FEF809304010FC065
:10F4D0008091050180958093050180E090E0E0ED4A
:10F4E000F7E03197F1F70196883C9105C1F78091DB
:10F4F000C00087FFEDCF1092050137C08FEF8093DA
:10F5000007010FC08091080180958093080180E079
:10F5100090E0E0EDF7E03197F1F70196883C910536
:10F52000C1F78091C00087FFEDCF109208011DC088
:10F530008FEF80930A010FC080910B01809580931B
:10F540000B0180E090E0E0EDF7E03197F1F70196F4
:10F55000883C9105C1F78091C00087FFEDCF1092E4
:10F560000B0103C085E292EEEEC98091C00087FFD7
:10F57000FCCF8091C600EAC988E392EEE4C98CE131
:10F5800091EEE1C988249924933011F1943028F444
:10F59000913089F09230B8F408C0953061F195301F
:10F5A000F0F0963009F048C043C02B3109F042C951
:10F5B00091E06BE13FC96227C15DDE4F2883CF52E6
:10F5C000D14092E037C9B22FA0E0622793E032C960
:10F5D000822F90E0A82BB92B622794E02BC92E3004
:10F5E00009F039C3622795E0C05DDE4F19821882A9
:10F5F000C053D1401FC9E1E0F0E0EC0FFD1FC05D3A
:10F60000DE4F08811981C053D140E00FF11F2083E4
:10F610000F5F1F4FC05DDE4F19830883C053D14079
:10F6200062270A171B0709F005C9D80196E002C92D
:10F63000261709F010C303C0973009F0FBC87724E0
:10F640009981933109F412C19431C8F4963009F4C8
:10F65000D8C0973050F4923009F406C1933009F4C1
:10F660006DC0913009F059C253C0913109F477C08F
:10F67000923108F0BBC0903109F04FC2F5C098310B
:10F6800009F487C0993150F4953109F4EFC09531F0
:10F6900008F4C6C1963109F040C2C2C19A3109F4DA
:10F6A0006CC09A3108F491C09B3109F45BC09D3164
:10F6B00009F033C29D81903359F48F81882311F46E
:10F6C0009EE11CC0813011F091E018C098E916C08D
:10F6D000892F807591F0903539F4E0E0F0E089E011
:10F6E0008093570094910AC0983539F4E3E0F0E034
:10F6F00089E080935700949101C090E01A821B82A8
:10F700008D818C831D829E831F8227E030E009C299
:10F710001A8288E08B8381E48C8386E58D8382E581
:10F720008E8389E48F8383E5888780E589878FE5E9
:10F730008A8782E38B872BE030E0F3C18A818139AD
:10F7400041F0823941F0803911F48FE005C080E04A
:10F7500003C082E001C08AE01A828B8344C0772410
:10F76000739482C08D81882311F48EE12CC0813086
:10F7700011F081E028C088E926C01A82E1E0F0E0BB
:10F7800089E08093570084918B831C8224E030E0D1
:10F79000C8C18B81803589F48C81883039F4E2E0EE
:10F7A000F0E089E08093570084910DC0E0E0F0E044
:10F7B00089E080935700849106C0E3E0F0E089E09F
:10F7C0008093570084911A82DFCF8D81836C99E0FA
:10F7D000E1E0F0E0082E90935700E89507B600FCB2
:10F7E000FDCF1A821B8223E030E09BC180EC8A832C
:10F7F000CE5CDE4F188219821A821B82C253D1401E
:10F800008EC18A8190E0A0E0B0E0582F44273327D2
:10F8100022278B8190E0A0E0B0E0DC0199278827C7
:10F82000282B392B4A2B5B2B8D8190E0A0E0B0E098
:10F83000282B392B4A2B5B2B8C8190E0A0E0B0E089
:10F84000BA2FA92F982F8827282B392B4A2B5B2BCF
:10F85000220F331F441F551FC05EDE4F288339839C
:10F860004A835B83C052D1401A8259C13A81C95C34
:10F87000DE4F3883C753D140CA5CDE4F1882C6536F
:10F88000D1408B81C82EDD24CA5CDE4F488159816E
:10F89000C653D140C42AD52A933109F082C0CE5C28
:10F8A000DE4F88819981AA81BB81C253D1408050AB
:10F8B000904CA340B04030F583E0CE5CDE4FE88052
:10F8C000F9800A811B81C253D140F70100935B008C
:10F8D00080935700E89507B600FCFDCFCE5CDE4F65
:10F8E000088119812A813B81C253D14000501F4FAA
:10F8F0002F4F3F4FCE5CDE4F088319832A833B8313
:10F90000C253D140C05EDE4F488159816A817B81FC
:10F91000C052D140DE011B9631E08C9111962C91A2
:10F9200011971296C75CDE4F2883C953D140C85C3B
:10F93000DE4F1882C853D14090E0C85CDE4FE881AA
:10F94000F981C853D1408E2B9F2B0C01FA01609393
:10F950005B0030935700E89511244E5F5F4F6F4F67
:10F960007F4F0EEFE02E0FEFF02ECE0CDF1CC114F8
:10F97000D10499F685E0C05EDE4F088119812A81A5
:10F980003B81C052D140F80120935B008093570027
:10F99000E89507B600FCFDCF81E180935700E8951C
:10F9A00035C0C05EDE4F88819981AA81BB81C0527B
:10F9B000D140B695A795979587957C018601ABE0D8
:10F9C000AA2EB12CAC0EBD1E0BC0D5016D915D01F0
:10F9D000C7010F947FFE0894E11CF11C01501040F8
:10F9E0000115110591F7A60160E070E0440F551F65
:10F9F000661F771FC05EDE4FE880F9800A811B8199
:10FA0000C052D1404E0D5F1D601F711F1A82C05E33
:10FA1000DE4F488359836A837B83C052D1407FC0C5
:10FA2000FA80C55CDE4FF882CB53D140C65CDE4F16
:10FA30001882CA53D1408B81C82EDD24C65CDE4FAC
:10FA400008811981CA53D140C02AD12A1A828981DA
:10FA5000BE016D5F7F4F843121F59601C05EDE4FA0
:10FA6000E880F9800A811B81C052D1400BBFF701A9
:10FA700087919691DB018C9311969C936E5F7F4FDB
:10FA8000D801C7010296A11DB11DC05EDE4F88835B
:10FA90009983AA83BB83C052D14022503040F1F6F3
:10FAA00036C0C05EDE4F288139814A815B81C052F9
:10FAB000D1400894C108D108760100E010E0089414
:10FAC000C11CD11C0894E11CF11C011D111DE20E8A
:10FAD000F31E041F151F21BDBB27A52F942F832FB5
:10FAE00082BD2F5F3F4F4F4F5F4FF89A80B5DB01CC
:10FAF0008D93BD012E153F054007510761F7C05E8C
:10FB0000DE4F288339834A835B83C052D1409601FC
:10FB10002D5F3F4FFB01108204C080EC8A8322E0FE
:10FB200030E08BE18093C6008091C00086FFFCCF5F
:10FB30008091C00080648093C000C15DDE4FF88179
:10FB4000CF52D140F093C6008091C00086FFFCCF19
:10FB50008091C00080648093C000432F3093C60022
:10FB60008091C00086FFFCCF8091C00080648093AC
:10FB7000C000922F2093C6008091C00086FFFCCF6A
:10FB80008091C00080648093C0008EE08093C600A6
:10FB90008091C00086FFFCCF8091C000806480937C
:10FBA000C00065E1C15DDE4FE880CF52D1406E25D7
:10FBB00069276427FE01319610C090819093C6009A
:10FBC0008091C00086FFFCCF31968091C000806498
:10FBD0008093C0006927215030402115310569F715
:10FBE0006093C6008091C00086FFFCCF8091C0006A
:10FBF00080648093C00085B1805885B9772081F4F6
:10FC0000C15DDE4F0881CF52D1400F5FC15DDE4F35
:10FC10000883CF52D14090E0A0E0B0E00D941AF4F8
:10FC200027982F9880E090E020ED37E0F901319798
:10FC3000F1F7019684369105C9F700008091C00064
:10FC40008D7F8093C00081E180935700E895EE2777
:10FC5000FF270994FFCF90E00D941AF497FB092E2B
:10FC600007260AD077FD04D02ED006D000201AF443
:10FC7000709561957F4F0895F6F7909581959F4F08
:10FC80000895A1E21A2EAA1BBB1BFD010DC0AA1FDD
:10FC9000BB1FEE1FFF1FA217B307E407F50720F0F5
:10FCA000A21BB30BE40BF50B661F771F881F991F70
:10FCB0001A9469F760957095809590959B01AC01B9
:10FCC000BD01CF010895AA1BBB1B51E107C0AA1FAC
:10FCD000BB1FA617B70710F0A61BB70B881F991FED
:10FCE0005A95A9F780959095BC01CD010895F99991
:10FCF000FECF92BD81BDF89A992780B50895262F31
:10FD0000F999FECF1FBA92BD81BD20BD0FB6F89400
:0EFD1000FA9AF99A0FBE01960895F894FFCF63
:040000033000E000E9
:00000001FF