:1000000011C100003FC100003DC100003BC1000024
:1000100039C1000037C1000035C1000033C1000004
:1000200031C100002FC100002DC100002BC1000014
:1000300029C1000027C1000025C1000023C1000024
:1000400021C100001FC100001DC100001BC1000034
:1000500019C1000017C1000015C100001BC7000036
:1000600011C10000E1C60000B6C600000BC10000CF
:1000700009C1000007C1000005C1000003C1000064
:1000800001C10000FFC00000FDC00000FBC0000077
:10009000F9C00000F7C00000F5C00000F3C0000088
:1000A000F1C00000EFC00000EDC00000EBC0000098
:1000B000E9C00000E7C00000E5C00000E3C00000A8
:1000C000E1C00000DFC00000DDC00000DBC00000B8
:1000D000D9C00000D7C00000D5C00000D3C00000C8
:1000E000D1C00000C602C902B802BC02C0020003AF
:1000F000CD02D102D702DB02DF02E502E902ED0206
:100100000003F302F702FB0200000A0B02090C0DC8
:100110000E080703040100000000000000000000BA
:1001200000000000000000000000000000000000CF
:10013000000000001211100000000000000000008C
:10014000000000000000000000000000000011128C
:10015000131415160A0B0C0D0E0F000102030405F3
:1001600000002200250028002B002E003100340062
:1001700002010000050108010B010000210024001C
:1001800027002A002D003000330001010000040187
:1001900007010A0105050505070508080808020208
:1001A00002020A0A08080404040401010101010111
:1001B00001010303030303030303040707070C0CF4
:1001C0000C0C0C0C0C0C02020202060606060606BB
:1001D00006060B0B0B0B0B0B0B0B01021020200860
:1001E0000810204010204080020102010804020192
:1001F0000102040810204080804020100804020101
:100200008004020180402010080402010804020159
:1002100001020408102040800102040810204080E0
:100220009407650911241FBECFEFD1E2DEBFCDBF19
:1002300000E00CBF12E0A0E0B2E0EEE2F9E100E085
:100240000BBF02C007900D92A23DB107D9F723E082
:10025000A2EDB2E001C01D92AB39B207E1F711E0A7
:10026000C1E1D1E000E006C021970109802FFE0125
:100270000E945A0BC031D10780E00807A9F79ED62B
:100280000C94860CBDCE90E0FC01E652FE4F24910A
:10029000FC01EC56FE4F8491882399F090E0880F82
:1002A000991FFC01E658FE4FA591B491FC01E05A5C
:1002B000FE4F859194918FB7F894EC91E22BEC93DB
:1002C0008FBF0895CF92DF92EF92FF920F931F930B
:1002D000CF93DF936C017A018B01C0E0D0E0CE15A3
:1002E000DF0589F0D8016D918D01D601ED91FC916A
:1002F0000190F081E02DC6011995892B11F47E0142
:1003000002C02196ECCFC701DF91CF911F910F91D1
:10031000FF90EF90DF90CF900895089580E090E0F7
:100320000895FC01538D448D252F30E0842F90E0FB
:10033000821B930B541710F0CF96089501970895E0
:10034000FC01918D828D981761F0828DDF01A80FDD
:10035000B11D5D968C91928D9F5F9F73928F90E0FF
:1003600008958FEF9FEF0895FC01918D828D98176E
:1003700031F0828DE80FF11D858D90E008958FEFAB
:100380009FEF0895FC01918D228D892F90E0805C74
:100390009F4F821B91098F73992708958CED92E0EE
:1003A000F1DF21E0892B09F420E0822F0895FC0180
:1003B000848DDF01A80FB11DA35ABF4F2C91848DEE
:1003C00090E001968F739927848FA689B7892C9323
:1003D000A089B1898C9180648C93938D848D9813BE
:1003E00006C00288F389E02D80818F7D8083089587
:1003F000EF92FF920F931F93CF93DF93EC0181E075
:10040000888F9B8D8C8D981305C0E889F989808130
:1004100085FD23C0F62E0B8D10E00F5F1F4F0F736D
:100420001127E02E8C8DE8120BC00FB607FCFACF17
:10043000E889F989808185FFF5CFCE01B8DFF2CF59
:100440008B8DFE01E80FF11DE35AFF4FF0820B8FF9
:10045000EA89FB898081806207C0EE89FF89608319
:10046000E889F98980818064808381E090E0DF9170
:10047000CF911F910F91FF90EF900895CF93DF934D
:10048000EC01888D8823C1F0EA89FB89808185FD94
:1004900005C0A889B9898C9186FD0EC00FB607FCEE
:1004A000F5CF808185FFF2CFA889B9898C9185FF2E
:1004B000EDCFCE017CDFE8CFDF91CF91089580E0D2
:1004C00090E0892B19F06ADF811125C080E090E06F
:1004D000892B41F080E090E0892B21F00E94000000
:1004E00081111CC080E090E0892B41F080E090E019
:1004F000892B21F00E940000811113C080E090E060
:10050000892BA1F080E090E0892B81F00E9400000F
:1005100081110AC008950E940000D8CF0E940000F7
:10052000E1CF0E940000EACF0C9400000895362F1E
:1005300090E0FC01E85FFE4F4491FC01E652FE4F63
:100540002491FC01EC56FE4F9491992309F46BC061
:10055000442309F455C050E0FA013197E231F10526
:1005600008F04EC08827EE58FF4F8F4F0C945A0B5F
:10057000809180008F7707C0809180008F7D03C0BD
:1005800080918000877F809380003AC084B58F7708
:1005900002C084B58F7D84BD33C08091B0008F7759
:1005A00003C08091B0008F7D8093B00029C08091FE
:1005B00090008F7707C0809190008F7D03C080915D
:1005C0009000877F809390001BC08091A0008F7760
:1005D00007C08091A0008F7D03C08091A000877F1D
:1005E0008093A0000DC0809120018F7707C080917B
:1005F00020018F7D03C080912001877F809320019F
:10060000E92FF0E0EE0FFF1FE05AFE4FA591B491E5
:100610008FB7F894EC91311103C020952E2301C0BF
:100620002E2B2C938FBF089520917F033091800350
:1006300040918103509182032417350719F0682FE8
:10064000822F75CF08958230910538F0880F991F59
:10065000880F991F05970197F1F708953FB7F89410
:100660008091D7029091D802A091D902B091DA027C
:1006700026B5A89B05C02F3F19F00196A11DB11DFD
:100680003FBFBA2FA92F982F8827820F911DA11D38
:10069000B11DBC01CD0142E0660F771F881F991F75
:1006A0004A95D1F708958F929F92AF92BF92CF92C1
:1006B000DF92EF92FF926B017C01D0DF4B015C0176
:1006C000C114D104E104F104E9F0C8DFDC01CB017D
:1006D00088199909AA09BB09883E9340A105B1056B
:1006E00078F321E0C21AD108E108F10888EE880EFB
:1006F00083E0981EA11CB11CC114D104E104F104D3
:1007000021F7DECFFF90EF90DF90CF90BF90AF90BA
:100710009F908F9008958EBD00000DB407FEFDCF11
:100720008EB50895CF93DF939CB59F7D9CBD9CB5FE
:10073000937F9CBD9CB59C7F9CBD9DB591609DBDEC
:10074000CFE7D3E0682F8A81F2DE8C899D89DF9123
:10075000CF9179CF81E0E6CF80E0E4CF1F93CF93B4
:10076000DF931F921F92CDB7DEB76A838983F4DFD0
:1007700089818F718062CFDF182F6A81862FCBDF4E
:10078000E9DF812F0F900F90DF91CF911F91089596
:10079000CF93DF931F92CDB7DEB78983DDDF8981E9
:1007A0008F71B9DF8FEFB7DF8983D4DF89810F9035
:1007B000DF91CF91089580E0EBDF81FD09C0682FC4
:1007C000626080E0CBDF65E070E080E090E06BCFBE
:1007D0000895EF92FF920F931F93CF93DF9300D072
:1007E000CDB7DEB7162F4A837B838983B5DF898136
:1007F0008F71806290DF082FE12E7B81F72E4A8176
:10080000140F1E1529F0F70181917F0184DFF9CFC4
:10081000A1DF802F0F900F900F90DF91CF911F914C
:100820000F91FF90EF900895CF93DF931F92CDB774
:10083000DEB792DF81EE6FDF89838CDF89810F90D5
:10084000DF91CF910895CF92DF92EF92FF920F93B5
:100850001F93CF93DF931F92CDB7DEB78C0180E05B
:10086000E3DE80918F0390919003EDDE8DE190DFC8
:1008700081FF06C080918F0390919003E4DED4DF66
:1008800080E086DF682F6E7F80E068DF82E080DFB7
:10089000EAE5F1E0E49161E070E001C0660FEA95FD
:1008A000EAF7682B82E05ADF40918D036CE972E031
:1008B0008AE08FDF40918D036CE972E080E189DF8F
:1008C0006091860381E14ADF4AD564E670E0DFD6B5
:1008D000BC01665F7F4F072E000C880B990BE3DE8F
:1008E000F80101900020E9F7319790918603CE2E10
:1008F000C01A9C1508F4C92E80918703811103C08A
:10090000D92EDC1801C0D12C27DF80EA04DF780162
:100910000C0D0E1529F0F70181917F01FCDEF9CF56
:10092000DD2021F080E0F7DEDA94FACF13DF81E0FA
:100930007BDE12DF8FEFEFDE89830CDF898180732E
:10094000C1F380E071DE60E787E008DF84FF03C069
:100950006BDF80E001C081E00F90DF91CF911F91AC
:100960000F91FF90EF90DF90CF900895A3D70F9352
:100970001F93CF93DF93EC0188819981009729F031
:100980002A813B812617370780F48B016F5F7F4FE9
:10099000ADD6009761F0998388831B830A832C81ED
:1009A0003D81232B11F4FC01108281E001C080E025
:1009B000DF91CF911F910F910895CF93DF93EC01B9
:1009C00088819981009709F06DD5198218821D825E
:1009D0001C821B821A82DF91CF910895EF92FF92C1
:1009E0000F931F93CF93DF93EC0180917D03909140
:1009F0007E03E0907903F0907A030C811D81E1146D
:100A0000F104A1F00097A1F0080F191FB801CE0161
:100A1000AEDF882359F0288139818C819D81B7010F
:100A2000820F931F5DD71D830C8302C0CE01C5DFEB
:100A3000CE01DF91CF911F910F91FF90EF9008951C
:100A4000EF92FF920F931F93CF93DF93EC017B0103
:100A50008A01BA018CDF811103C0CE01AEDF06C06E
:100A60001D830C83B701888199813AD7CE01DF912C
:100A7000CF911F910F91FF90EF900895FB01DC0142
:100A800011961C921E9213961C921E921297159606
:100A90001C921E9214978617970741F0608171810E
:100AA0006115710519F044815581CACF0895FC0183
:100AB00011821082138212821582148261157105CF
:100AC00049F0FB0101900020E9F73197AF01461B87
:100AD000570BB6CF0895FC0180819181E3C4AF929A
:100AE000BF92CF92DF92EF92FF920F931F93CF931B
:100AF000DF93CDB7DEB7C25AD1090FB6F894DEBF87
:100B00000FBECDBF58DE80E043DE682F616080E01D
:100B100025DE60E787E022DE81E086DD80918803C4
:100B2000882339F040918D0368E873E08AE051DE54
:100B300010C082E02DDEEAE5F1E0E49121E030E052
:100B400001C0220FEA95EAF72095622F682382E020
:100B500005DE8DE11DDE81FD67DE8EE2D82E95E695
:100B6000E92EF12CEC0EFD1E84E0E80EF11C87E16D
:100B70000FDE80FD1EC1A9961CAE1DAE1EAE1FAEBF
:100B8000A997F7018D2D11928A95E9F710918603A7
:100B9000123308F409C102E380918703811102C076
:100BA000101B01C010E0D8DD81E6B5DDFE01EB5978
:100BB000FF4F5F01015028F08FEFADDDF50181930C
:100BC000F8CF112321F08FEFA6DD1150FACFC2DD4F
:100BD00060E787E0C3DDBE016B597F4FCE018356CE
:100BE0009F4F65DFCF55DF4F88819981C15AD04033
:100BF000892B29F480910002882361F015C060E000
:100C000072E0C356DF4F88819981CD59D0405FD6BD
:100C1000892B51F462E372E0CE01019648DFCE01E8
:100C20000196DCDEBC01A2C062E372E0CE0189560F
:100C30009F4F3DDFCE0189569F4FD0DE5C0160EDB6
:100C400072E0CE01019633DFCF55DF4F0881198165
:100C5000C15AD0400115110589F10630110510F077
:100C600006E010E0C356DF4FE881F981CD59D0404E
:100C7000E00FF11FC0801082C356DF4F6881798179
:100C8000CD59D0406115710561F0FB010190002044
:100C9000E9F73197AF01461B570BCE010196D0DE25
:100CA00003C0CE01019689DEC356DF4F888199814A
:100CB000CD59D040FC01E00FF11FC0822D813E8153
:100CC000F501848195812817390711F589819A8169
:100CD00060817181009719F061157105A9F46115A2
:100CE000710551F02115310539F0FB01808190E04B
:100CF00091958195910909C0009761F0232B51F0DE
:100D0000FC01808190E001C0E2D511E0892B19F04F
:100D100010E001C011E0CE010196DDDECE01895662
:100D20009F4FD9DE112309F43AC062E372E0CE018D
:100D30000196BDDECE01019651DE8C01FC01A4803E
:100D4000B580F8E0AF0EB11CB50111DE882371F15A
:100D5000F80120813181848195816EEB72E0820FF0
:100D6000931FBED5F801B582A482B801CE01895681
:100D70009F4F84DECE010196AEDEC956DF4F6881FB
:100D80007981C759D04044E650E0CE010196AFD5F5
:100D9000CE01019658DDCE0189569F4F9CDECE01D3
:100DA00083569F4F98DEE3CE012FF6CEC80105DEB5
:100DB000DCCFCE55DF4F0FB6F894DEBF0FBECDBFF0
:100DC000DF91CF911F910F91FF90EF90DF90CF9027
:100DD000BF90AF9008951F920F920FB60F921124FB
:100DE0000BB60F922F933F934F935F936F937F9325
:100DF0008F939F93AF93BF93EF93FF938CED92E00C
:100E0000D6DAFF91EF91BF91AF919F918F917F9132
:100E10006F915F914F913F912F910F900BBE0F906B
:100E20000FBE0F901F9018951F920F920FB60F9242
:100E300011240BB60F922F938F939F93EF93FF93F1
:100E4000E091EC02F091ED028081E091F202F091EC
:100E5000F30282FD12C090818091F5028F5F8F7343
:100E60002091F602821751F0E091F502F0E0E45291
:100E7000FD4F958F8093F50201C08081FF91EF9126
:100E80009F918F912F910F900BBE0F900FBE0F90DF
:100E90001F9018951F920F920FB60F9211242F9347
:100EA0003F938F939F93AF93BF938091D302909181
:100EB000D402A091D502B091D6023091D20223E0A3
:100EC000230F2D3720F40196A11DB11D05C026E882
:100ED000230F0296A11DB11D2093D2028093D3024D
:100EE0009093D402A093D502B093D6028091D702FA
:100EF0009091D802A091D902B091DA020196A11D79
:100F0000B11D8093D7029093D802A093D902B093D9
:100F1000DA02BF91AF919F918F913F912F910F90E6
:100F20000FBE0F901F901895ECEDF2E01382128225
:100F300088EE93E0A0E0B0E084839583A683B78336
:100F400080EB92E09183808385EC90E095878487A5
:100F500084EC90E09787868780EC90E0918B808B83
:100F600081EC90E0938B828B82EC90E0958B848B6C
:100F700086EC90E0978B868B118E128E138E148EDA
:100F8000EFE7F3E087E090E09183808388E090E0F2
:100F900093838283168280E28783108685E086872A
:100FA00085E090E0A0E0B0E0848B958BA68BB78BBA
:100FB000118667EC72E089E793E079CD789484B587
:100FC000826084BD84B5816084BD85B5826085BD45
:100FD00085B5816085BD80916E00816080936E00D3
:100FE00010928100809181008260809381008091C5
:100FF0008100816080938100809180008160809376
:1010000080008091B10084608093B1008091B00035
:1010100081608093B0008091910082608093910004
:101020008091910081608093910080919000816017
:10103000809390008091A10082608093A1008091B4
:10104000A10081608093A1008091A00081608093C5
:10105000A000809121018260809321018091210173
:101060008160809321018091200181608093200123
:1010700080917A00846080937A0080917A00826007
:1010800080937A0080917A00816080937A008091C9
:101090007A00806880937A001092C100E091EC029F
:1010A000F091ED0282E08083E091E802F091E902A4
:1010B0001082E091EA02F091EB028FEC80831092B3
:1010C000F402E091F002F091F10286E08083E09179
:1010D000EE02F091EF02808180618083E091EE0268
:1010E000F091EF02808188608083E091EE02F091C0
:1010F000EF02808180688083E091EE02F091EF0240
:1011000080818F7D808380917F03909180032091E7
:101110008103309182038217930709F0B4D880913C
:1011200081039091820320917F03309180032817DF
:10113000390709F0A8D8CFB7F8948091DB02811164
:1011400020C0E9ECF1E08491EFE0F2E09491E82F27
:10115000F0E0EE0FFF1FE658FE4FA591B491EC9121
:10116000E92319F461E085E3E2D985E38CD88CB5F5
:1011700080618CBD8CB580648CBD84E384D883E3AE
:1011800082D88091DB028F5F8093DB02CFBF80E04B
:101190004BDA81E0C7DA65E070E080E090E083DA66
:1011A0006CE080E0DBDA6FE584E0D8DA86E0F0DA44
:1011B000877DC82FC0628BE990E0A0E0B0E080930B
:1011C0008F0390939003A0939103B09392036C2F9D
:1011D00086E0C4DA86E0DCDA8C1709F472C086E0B7
:1011E000D7DA86E0D5DA45E550E060E070E040937C
:1011F0008F03509390036093910370939203682F31
:10120000677D86E0ABDA86E0C3DAA6DA80E583DACA
:1012100083E781DA9FDA60E08DE1A0DA60E08CE1BB
:101220009DDA1092870360E787E098DA6CE485E046
:1012300095DA92DA82EE6FDA8DDAF6DABCDA80E0ED
:10124000A7DA682F6E7F80E089DA40918D0350E045
:1012500066E972E088E893E031D3E4E5F1E0849157
:1012600040918D0366E972E0B4DAEEE4F1E0849136
:101270006091860373DA82E08BDAEAE5F1E0E491CB
:1012800061E070E001C0660FEA95EAF7682B82E042
:1012900065DA86E07DDA887F682F616086E05EDA55
:1012A00042E050E06BEC72E08CED92E00BD842E053
:1012B00050E06EEC72E08CED92E004D810DCFFD8C8
:1012C000FDCF81E0809385038ACF89E793E003CC4B
:1012D0008F929F92AF92BF92CF92DF92EF92FF9246
:1012E000CF93DF93EC01688179818A819B816115BD
:1012F00071058105910521F464E279ED8BE597E0B4
:101300002DE133EF41E050E065D149015A019B01E5
:10131000AC01A7EAB1E47AD16B017C01ACEEB4EF89
:10132000A50194017FD1DC01CB018C0D9D1DAE1D6B
:10133000BF1DB7FF03C00197A109B04888839983F7
:10134000AA83BB839F77DF91CF91FF90EF90DF90CF
:10135000CF90BF90AF909F908F900895B9CF82EAC1
:1013600092E0B6CFA0E0B0E08093A2029093A302F7
:10137000A093A402B093A5020895CF93DF93823087
:10138000910510F482E090E0E0919903F0919A03C6
:1013900020E030E0C0E0D0E0309711F14081518191
:1013A00048175907C0F04817590761F482819381A3
:1013B000209719F09B838A832BC090939A03809384
:1013C000990326C02115310519F04217530718F467
:1013D0009A01BE01DF01EF010280F381E02DDCCF35
:1013E0002115310509F1281B390B2430310590F402
:1013F00012968D919C9113976115710521F0FB0157
:101400009383828304C090939A0380939903FD0190
:10141000329644C0FD01E20FF31F81939193225055
:1014200031092D933C933AC0209197033091980352
:10143000232B41F42091A8023091A9023093980304
:10144000209397032091A6023091A7022115310520
:1014500041F42DB73EB74091AA025091AB02241B34
:10146000350BE0919703F0919803E217F307A0F48E
:101470002E1B3F0B2817390778F0AC014E5F5F4FEA
:101480002417350748F04E0F5F1F50939803409381
:1014900097038193919302C0E0E0F0E0CF01DF91E8
:1014A000CF9108950F931F93CF93DF93009709F483
:1014B0008CC0FC0132971382128200919903109123
:1014C0009A030115110581F420813181820F931F48
:1014D00020919703309198032817390779F5F093F5
:1014E0009803E093970371C0D80140E050E0AE1735
:1014F000BF0750F412962D913C911397AD01211521
:10150000310509F1D901F3CF9D01DA01338322833B
:1015100060817181860F971F8217930769F4EC0130
:1015200028813981260F371F2E5F3F4F318320835B
:101530008A819B8193838283452B29F4F0939A03BC
:10154000E093990342C01396FC93EE931297ED013A
:10155000499159919E01240F351FE217F30771F449
:1015600080819181840F951F029611969C938E9392
:101570008281938113969C938E931297E0E0F0E022
:10158000D80112968D919C911397009719F0F8014C
:101590008C01F6CF8D919C9198012E5F3F4F820F69
:1015A000931F20919703309198032817390769F406
:1015B000309729F410929A031092990302C0138273
:1015C00012821093980300939703DF91CF911F919C
:1015D0000F910895052E97FB16F400940FD057FD38
:1015E00005D024D007FC02D046F408C050954095A1
:1015F000309521953F4F4F4F5F4F089590958095BF
:10160000709561957F4F8F4F9F4F089531D0A59F63
:10161000900DB49F900DA49F800D911D11240895ED
:10162000B7FFF4CFF3DF821B930B0895A1E21A2ECC
:10163000AA1BBB1BFD010DC0AA1FBB1FEE1FFF1F76
:10164000A217B307E407F50720F0A21BB30BE40BC6
:10165000F50B661F771F881F991F1A9469F760950D
:101660007095809590959B01AC01BD01CF010895C7
:10167000A29FB001B39FC001A39F700D811D1124D3
:10168000911DB29F700D811D1124911D089597FB2E
:10169000072E16F4009406D077FD08D013D007FC6F
:1016A00005D03EF4909581959F4F08957095619572
:1016B0007F4F0895EE0FFF1F881F8BBF0790F69195
:1016C000E02D1994AA1BBB1B51E107C0AA1FBB1F29
:1016D000A617B70710F0A61BB70B881F991F5A95BE
:1016E000A9F780959095BC01CD0108956F927F92E6
:1016F0008F929F92AF92BF92CF92DF92EF92FF9222
:101700000F931F93CF93DF93EC01009781F4CB01EC
:10171000DF91CF911F910F91FF90EF90DF90CF90CD
:10172000BF90AF909F908F907F906F9026CEFC01DE
:10173000E60FF71F9C0122503109E217F30708F466
:10174000A8C0D9010D911C91119706171707A8F091
:101750000530110508F49BC0C80104978617970748
:1017600008F495C002501109061B170B0193119341
:101770006D937C93CF0196DE8AC05B01A01AB10AFB
:101780004C01800E911EA0919903B0919A0340E004
:1017900050E0E12CF12C109709F44AC0A815B905C6
:1017A000D1F56D907C901197630182E0C80ED11C39
:1017B000CA14DB0480F1A3014A195B096A0182E0C3
:1017C000C80ED11C1296BC9012971396AC91B5E03E
:1017D000CB16D10440F0B282A38351834083D90158
:1017E0006D937C930AC00E5F1F4FC301800F911F42
:1017F000F90191838083EB2DFA2FE114F10431F08C
:10180000D7011396FC93EE93129741C0F0939A037D
:10181000E09399033CC08D919C911197481759070B
:1018200008F4AC017D0112960D90BC91A02DB3CFB0
:10183000809197039091980388159905E1F44617D4
:101840005707C8F48091A6029091A702009741F42F
:101850008DB79EB74091AA025091AB02841B950BA5
:10186000E817F907B0F4F0939803E0939703F901B0
:10187000718360830CC0CB0180DD7C01009749F04F
:10188000A801BE011BD0CE010DDEC70104C0CE01F0
:1018900002C080E090E0DF91CF911F910F91FF9007
:1018A000EF90DF90CF90BF90AF909F908F907F9000
:1018B0006F90089581E090E0F89428C0FB01DC016E
:1018C00002C001900D9241505040D8F70895FB019D
:1018D000DC018D91019080190110D9F3990B0895C5
:1018E000FB01DC0101900D920020E1F70895FB015E
:1018F000DC014150504048F001900D920020C9F7A2
:1019000001C01D9241505040E0F7089511E0C1E13F
:10191000D1E000E005C0802FFE01CCDE2196011D44
:0E192000C231D10780E00807B1F7F894FFCF7D
:10192E00646973636F4E65696768626F72730000F6
:10193E000000000000000000000000000000000099
:10194E000000000000000000000000000000000089
:10195E00000049645F00000000000000000000006D
:10196E000000000000000000000000000000000069
:10197E000000000000000000000000000000000059
:10198E0000000000726571536F6E7300000000005E
:10199E000000000000000000000000000000000039
:1019AE000000000000000000000000000000000029
:1019BE0000000000000045444342410041424344C0
:1019CE0045000100000000009B03800000000000A5
:1019DE00F801620191013E02C201A001B4015F61F2
:1019EE00636B5069706500303031006869000D0A14
:0219FE000000E7
:00000001FF
