:1000000011C1000040C100003EC100003CC1000021
:100010003AC1000038C1000036C1000034C1000000
:1000200032C1000030C100002EC100002CC1000010
:100030002AC1000028C1000026C1000024C1000020
:1000400022C1000020C100001EC100001CC1000030
:100050001AC1000018C1000016C1000097C70000B7
:1000600012C1000078C200004DC200000CC10000A7
:100070000AC1000008C1000006C1000004C1000060
:1000800002C1000000C10000FEC00000FCC0000072
:10009000FAC00000F8C00000F6C00000F4C0000084
:1000A000F2C00000F0C00000EEC00000ECC0000094
:1000B000EAC00000E8C00000E6C00000E4C00000A4
:1000C000E2C00000E0C00000DEC00000DCC00000B4
:1000D000DAC00000D8C00000D6C00000D4C00000C4
:1000E000D2C0000010031303020306030A034A03ED
:1000F00017031B032103250329032F0333033703AE
:100100004A033D034103450300000A0B02090C0D9D
:100110000E080703040100000000000000000000BA
:1001200000000000000000000000000000000000CF
:10013000000000001211100000000000000000008C
:1001400000000000000000000000000000000000AF
:100150002200250028002B002E003100340002016F
:100160000000050108010B01000021002400270008
:100170002A002D00300033000101000004010701B6
:100180000A0105050505070508080808020202021C
:100190000A0A080804040404010101010101010123
:1001A0000303030303030303040707070C0C0C0CEE
:1001B0000C0C0C0C020202020606060606060606D7
:1001C0000B0B0B0B0B0B0B0B010210202008081064
:1001D00020401020408002010201080402010102B7
:1001E0000408102040808040201008040201800490
:1001F00002018040201008040201080402010102EB
:1002000004081020408001020408102040800001F2
:10021000020304051112131415160A0B0C0D0E0F10
:100220000F0DFA0C11241FBECFEFD1E2DEBFCDBF00
:1002300000E00CBF24E0AAECB2E001C01D92A9349A
:10024000B207E1F712E0A0E0B2E0EAECFFE100E083
:100250000BBF02C007900D92AA3CB107D9F711E07D
:10026000C1E1D1E000E006C021970109802FFE0125
:100270000E948F0DC031D10780E00807A9F70E94C6
:10028000980B0C94D40FBCCE089580E090E00895B4
:10029000FC01538D448D252F30E0842F90E0821B8C
:1002A000930B541710F0CF96089501970895FC0111
:1002B000918D828D981761F0828DDF01A80FB11D9D
:1002C0005D968C91928D9F5F9F73928F90E00895C1
:1002D0008FEF9FEF0895FC01918D828D981731F07B
:1002E000828DE80FF11D858D90E008958FEF9FEFCF
:1002F0000895FC01918D228D892F90E0805C9F4FA5
:10030000821B91098F739927089588E393E0F1DFA9
:1003100021E0892B09F420E0822F0895FC01848DCF
:10032000DF01A80FB11DA35ABF4F2C91848D90E01F
:1003300001968F739927848FA689B7892C93A089FA
:10034000B1898C9180648C93938D848D981306C0B1
:100350000288F389E02D80818F7D80830895EF925C
:10036000FF920F931F93CF93DF93EC0181E0888F6F
:100370009B8D8C8D981305C0E889F989808185FD56
:1003800023C0F62E0B8D10E00F5F1F4F0F73112748
:10039000E02E8C8DE8120BC00FB607FCFACFE8896F
:1003A000F989808185FFF5CFCE01B8DFF2CF8B8D43
:1003B000FE01E80FF11DE35AFF4FF0820B8FEA892F
:1003C000FB898081806207C0EE89FF896083E889AC
:1003D000F98980818064808381E090E0DF91CF9112
:1003E0001F910F91FF90EF900895CF93DF93EC0151
:1003F000888D8823C1F0EA89FB89808185FD05C04D
:10040000A889B9898C9186FD0EC00FB607FCF5CF7F
:10041000808185FFF2CFA889B9898C9185FFEDCFC6
:10042000CE017CDFE8CFDF91CF91089580E090E0AE
:10043000892B19F06ADF811125C080E090E0892BBB
:1004400041F080E090E0892B21F00E9400008111B2
:100450001CC080E090E0892B41F080E090E0892B87
:1004600021F00E940000811113C080E090E0892BF0
:10047000A1F080E090E0892B81F00E9400008111C2
:100480000AC008950E940000D8CF0E940000E1CF6A
:100490000E940000EACF0C94000008953FB7F89442
:1004A0008091330390913403A0913503B0913603CA
:1004B00026B5A89B05C02F3F19F00196A11DB11DBF
:1004C0003FBFBA2FA92F982F8827820F911DA11DFA
:1004D000B11DBC01CD0142E0660F771F881F991F37
:1004E0004A95D1F70895FC0144815581608171815D
:1004F00088E393E09CD542E050E064E272E088E358
:1005000093E095C51F920F920FB60F9211240BB670
:100510000F922F933F934F935F936F937F938F939C
:100520009F93AF93BF93EF93FF9388E393E0F6DE3F
:10053000FF91EF91BF91AF919F918F917F916F91BB
:100540005F914F913F912F910F900BBE0F900FBE77
:100550000F901F9018951F920F920FB60F921124B3
:100560000BB60F922F938F939F93EF93FF93E0918E
:100570004803F09149038081E0914E03F0914F03CD
:1005800082FD12C09081809151038F5F8F73209103
:100590005203821751F0E0915103F0E0E85CFC4F08
:1005A000958F8093510301C08081FF91EF919F91BE
:1005B0008F912F910F900BBE0F900FBE0F901F9039
:1005C0001895362F90E0FC01E85FFE4F4491FC0146
:1005D000E853FE4F2491FC01EE57FE4F949199236E
:1005E00009F46BC0442309F455C050E0FA01319777
:1005F000E231F10508F04EC08827EE58FF4F8F4FCB
:100600000C948F0D809180008F7707C080918000BF
:100610008F7D03C080918000877F809380003AC0E7
:1006200084B58F7702C084B58F7D84BD33C080913F
:10063000B0008F7703C08091B0008F7D8093B000B1
:1006400029C0809190008F7707C0809190008F7DA6
:1006500003C080919000877F809390001BC08091A1
:10066000A0008F7707C08091A0008F7D03C080918C
:10067000A000877F8093A0000DC0809120018F771C
:1006800007C0809120018F7D03C080912001877F6A
:1006900080932001E92FF0E0EE0FFF1FE25BFE4F99
:1006A000A591B4918FB7F894EC91311103C02095C6
:1006B0002E2301C02E2B2C938FBF089582309105DD
:1006C00038F0880F991F880F991F05970197F1F748
:1006D00008958F929F92AF92BF92CF92DF92EF9246
:1006E000FF926B017C01DADE4B015C01C114D10485
:1006F000E104F104E9F0D2DEDC01CB0188199909AB
:10070000AA09BB09883E9340A105B10578F321E011
:10071000C21AD108E108F10888EE880E83E0981E1D
:10072000A11CB11CC114D104E104F10421F7DECFF6
:10073000FF90EF90DF90CF90BF90AF909F908F9001
:1007400008952F923F924F925F926F927F928F9275
:100750009F92AF92BF92CF92DF92EF92FF920F9350
:100760001F93CF93DF93CDB7DEB7C051D1400FB603
:10077000F894DEBF0FBECDBF62E370E080E090E092
:10078000A8DF8E010B591F4F81EA90E08C0F9D1F4F
:100790000496C15FDE4F99838883CF50D140180102
:1007A0009CE3290E311C88E393E0A3DD892B09F437
:1007B000D3C38AECE82E82E0F82E2FB7F89480910C
:1007C0002F0390913003A0913103B09132032FBFDA
:1007D0008093400390934103A0934203B09343035B
:1007E000E0913803F09139030284F385E02D88E32A
:1007F00093E0199597FD3CC0D7018D937D01BEE232
:10080000EB16B3E0FB06C9F66AEC72E0CE01875F37
:100810009E4F28D766E272E0CE018D5F9E4F22D7B1
:1008200025E030E040E050E0BE01675F7E4FCE0142
:1008300001962CD767E272E0CE01019651D6F82ED0
:10084000CE01019603D7FF2009F4E9C16DE272E001
:10085000CE01019607D7CE01019645DECE01019665
:10086000F5D648016801ECE3CE0ED11C780126C014
:100870002FB7F89480912F0390913003A09131030A
:10088000B09132032FBF40914003509141036091DA
:10089000420370914303841B950BA60BB70B409149
:1008A0003C0350913D0360913E0370913F038417D8
:1008B0009507A607B70708F493CFA6CF66E272E0C4
:1008C000C701D0D6F6E0EF0EF11CEC14FD04B1F731
:1008D00089E392E00FD5D8D566E970E080E090E03A
:1008E000F8DEE12CF12C6EE2B62E6E0185E0C80E2A
:1008F000D11C76E0A72EB8D5882309F456C01982FA
:100900001A821B821C82D601EB2D1D92EA95E9F713
:10091000CE01019669D560E787E051D4BE016F5FD3
:100920007F4FCE0187529F4F9DD623E030E040E0BD
:1009300050E0BE0167527F4FCE018D529F4FA6D629
:1009400068E472E0CE018D529F4FCAD58823F9F03A
:1009500026E030E043E050E0BE0167527F4FCE0119
:100960008F559F4F93D63701FFEF6F1A7F0AAE9CCA
:10097000C001AF9C900D1124BE016F557F4F800FB9
:10098000911F4FD6CE018F559F4F60D6730166E9F8
:1009900070E080E090E09DDECE018D529F4F56D6F4
:1009A000CE0187529F4F52D6A6CFE114F10459F4DD
:1009B0006CE472E0CE01019655D6CE01019693DD2E
:1009C000CE01019643D6A12CB12CAE14BF0409F47C
:1009D0001CC1B401CE0183509F4F3CD622E030E0D1
:1009E00040E050E0BE0163507F4FCE0101964ED6ED
:1009F000BE0163507F4FCE018F559F4F2BD6BE0156
:100A00006F5F7F4FCE018F559F4FFAD5BC01CE014E
:100A100089509F4F1FD6CE018F559F4F17D6CE01BD
:100A2000019614D668E472E0CE0101961BD6BE0191
:100A300063507F4FCE010196E3D56AE472E0C9D5D9
:100A400065ED73E0DDD56AE472E0C3D5BE0169509F
:100A50007F4FD6D5BC01CE018F509F4FFBD5CE0125
:100A60000196F4D5CF50DF4F68817981C15FD040C6
:100A700044E650E0CE0101960E94C50FCE010196DA
:100A800039D402D568EC70E080E090E022DEECD44E
:100A9000882309F499C0CF55DF4F188219821A8232
:100AA0001B82C15AD0408EE2C15FDE4FA881B9815E
:100AB000CF50D1401D928A95E9F7CE018F559F4FB7
:100AC00093D460E787E07BD3BE016F557F4FCE01A3
:100AD00085519F4FC7D568E472E0CE018D529F4F7C
:100AE000C1D5BE0163507F4FCE018D529F4F88D537
:100AF00066E672E06ED5C151DF4F48815981CF5E05
:100B0000D040FC01248135814217530749F4BC01D0
:100B1000CE0185519F4F02D5DD24D394892B09F056
:100B2000D12CCE018D529F4F91D5DD2009F448C0C4
:100B3000BE0169507F4FCE0181529F4F8BD5BE01C0
:100B400063507F4FCE018B519F4F84D540902B0433
:100B500050902C04FAE04F165104E4F4C751DF4FD3
:100B600068807980C95ED0405BEDC52E53E0D52EFC
:100B7000D60114968D919C9115978615970509F0CD
:100B800029C1BE016B517F4FC601C8D4892B09F022
:100B900021C10EC06FE672E0CE018D529F4F62D52B
:100BA000CE018D529F4F9FDCCE018D529F4F4ED56F
:100BB000CE018B519F4F4AD5CE0181529F4F46D5D2
:100BC000CE0185519F4F0DC060E872E0CE018F5578
:100BD0009F4F48D5CE018F559F4F85DCCE018F5555
:100BE0009F4F34D5CE018F509F4F30D5CE018950C5
:100BF0009F4F2CD5CE0183509F4F28D5BFEFAB1A06
:100C0000BB0AE6E08E0E911CE0CE7101F6E0EF1A11
:100C1000F108C7011BD5E016F106C1F7D2C027E0E5
:100C200030E040E050E0BE01675F7E4FCE010196AC
:100C30002DD567E972E0CE01019652D4F82ECE018F
:100C4000019604D5FF20C1F180912B0490912C04D2
:100C5000892B19F46FE972E0ABC066E272E0C8015B
:100C600001D52BEDC22E23E0D22EE12CF12C809168
:100C70002B0490912C04E816F906E4F4B601CE0199
:100C80000196E8D46AE472E0CE010196A2D4DC01B8
:100C900014964D915C9115976D917C91C8016DD41E
:100CA000CE010196D3D4BFEFEB1AFB0AE6E0CE0EDD
:100CB000D11CDDCFB80128C028E030E040E050E092
:100CC000BE01675F7E4FCE010196E0D467EA72E015
:100CD000CE01019605D4F82ECE010196B7D4FF209F
:100CE00009F464C080912B0490912C04892BB9F4F1
:100CF00068E472E0C801B6D465ED73E0C80180D441
:100D00006FE972E066D4BC01CE010196A3D4CE0196
:100D10000196E9DBCE01019699D4C80151C066E283
:100D200072E0CE018F559F4F9DD497E1C92E94E07C
:100D3000D92EE12CF12C80912B0490912C04E816F3
:100D4000F90624F5D601ED91FD916D016281738163
:100D5000CE01019687D4BE016F5F7F4FC8017AD460
:100D60006AE472E0C80135D4FC0144815581608198
:100D70007181CE018F559F4F00D4C80167D4CE0139
:100D8000019664D4FFEFEF1AFF0AD5CFBE016F556D
:100D90007F4FCE0101965ED4CE010196A4DBCE0139
:100DA000019654D4CE018F559F4F0AC060EB72E07C
:100DB000CE01019657D4CE01019695DBCE01019666
:100DC00045D4CE018D5F9E4F41D4CE01875F9E4FAB
:100DD0003DD4E9CC86E0C80ED11C97E1C91694E059
:100DE000D90609F0C5CEBFEF4B1A5B0A26E0249D59
:100DF000C001259D900D1124BE016B517F4F8B5278
:100E00009C4F0FD4C152DF4F68817981CF5DD040B4
:100E100046E050E0CE0187529F4F0E94C50F84E00C
:100E200090E085D66C0186E090E081D6F601918352
:100E3000808386E090E07BD6D60113969C938E93B8
:100E40001297E0912B04F0912C04EE0FFF1FE95E46
:100E5000FB4FD182C082DE01A752BF4F9D0180E0CF
:100E600090E0F90141919F01F60160817181FB01E0
:100E7000E80FF91F408301968530910591F7F6013F
:100E800082819381FC011582E0912B04F0912C0466
:100E9000EE0FFF1FE95EFB4F2081318180E090E083
:100EA0004D91F90162817381FB01E80FF91F4083C5
:100EB000019685309105A1F7D9011296ED91FC912B
:100EC0001397158280912B0490912C040196909396
:100ED0002C0480932B04C752DF4F8881C95DD0401A
:100EE000CD52DF4F8883C35DD040C652DF4F88812B
:100EF000CA5DD040CC52DF4F8883C45DD040C5521C
:100F0000DF4F8881CB5DD040CB52DF4F8883C55DFA
:100F1000D040C452DF4F8881CC5DD040CA52DF4FF1
:100F20008883C65DD040C352DF4F8881CD5DD040FD
:100F3000C952DF4F8883C75DD04040913B0450E0E9
:100F4000BE016D527F4F86E394E00E94AC0FCE014C
:100F50008D529F4F61D12CCEC05FDE4F0FB6F894FB
:100F6000DEBF0FBECDBFDF91CF911F910F91FF90DC
:100F7000EF90DF90CF90BF90AF909F908F907F9039
:100F80006F905F904F903F902F9008951F920F9217
:100F90000FB60F9211242F933F938F939F93AF938C
:100FA000BF9380912F0390913003A0913103B091B2
:100FB000320330912E0323E0230F2D3720F40196C6
:100FC000A11DB11D05C026E8230F0296A11DB11D6C
:100FD00020932E0380932F0390933003A09331032B
:100FE000B09332038091330390913403A091350381
:100FF000B09136030196A11DB11D809333039093E8
:101000003403A0933503B0933603BF91AF919F9102
:101010008F913F912F910F900FBE0F901F901895B9
:101020008EBD00000DB407FEFDCF8EB50895CF92A2
:10103000DF92EF92FF920F931F93CF93DF936C0198
:101040007A018B01C0E0D0E0CE15DF0589F0D80130
:101050006D918D01D601ED91FC910190F081E02D13
:10106000C6011995892B11F47E0102C02196ECCF9F
:10107000C701DF91CF911F910F91FF90EF90DF900B
:10108000CF90089565D70F931F93CF93DF93EC0113
:1010900088819981009729F02A813B81261737079B
:1010A00080F48B016F5F7F4F6FD6009761F099835B
:1010B00088831B830A832C813D81232B11F4FC013F
:1010C000108281E001C080E0DF91CF911F910F91EC
:1010D0000895CF93DF93EC0188819981009709F0FF
:1010E000BBD5198218821D821C821B821A82DF9155
:1010F000CF910895EF92FF920F931F93CF93DF93B9
:10110000EC017B018A01BA01BEDF811103C0CE016F
:10111000E0DF06C01D830C83B701888199812ED73B
:10112000CE01DF91CF911F910F91FF90EF90089525
:10113000CF93DF939CB59F7D9CBD9CB5937F9CBD59
:101140009CB59C7F9CBD9DB591609DBDCDE2D4E0DA
:10115000682F8A8136DA8C899D89DF91CF91AECA5A
:1011600081E0E6CF80E0E4CFEF92FF920F931F93F0
:10117000CF93DF9300D0CDB7DEB7162F4A837B83A2
:101180008983F0DF89818F7180624ADF082FE12E29
:101190007B81F72E4A81140F1E1529F0F7018191EA
:1011A0007F013EDFF9CFDCDF802F0F900F900F9093
:1011B000DF91CF911F910F91FF90EF9008951F93B2
:1011C000CF93DF931F921F92CDB7DEB76A838983D7
:1011D000C9DF89818F71806223DF182F6A81862F92
:1011E0001FDFBEDF812F0F900F90DF91CF911F91F6
:1011F0000895CF93DF931F92CDB7DEB78983B2DF17
:1012000089818F710DDF8FEF0BDF8983A9DF8981E2
:101210000F90DF91CF910895CF93DF93EAE1F2E051
:10122000E491CDE2D4E04E85BC018E2F9DDFE4E158
:10123000F2E084916F81C3DF82E0DBDFEEE0F2E079
:10124000E49161E070E001C0660FEA95EAF7682B6F
:1012500082E0DF91CF91B3CF80E0CBDF81FD09C089
:10126000682F626080E0ABDF65E070E080E090E0D6
:1012700030CA0895CF93DF931F92CDB7DEB789832D
:1012800071DF8981CDDE89836BDF89810F90DF91EA
:10129000CF91089581EEEECF20912D0430912E0450
:1012A00040912F04509130042417350719F0682F0E
:1012B000822F87C9089590E0FC01E853FE4F2491E6
:1012C000FC01EE57FE4F8491882399F090E0880F3F
:1012D000991FFC01E859FE4FA591B491FC01E25B16
:1012E000FE4F859194918FB7F894EC91E22BEC939B
:1012F0008FBF0895EF92FF920F931F93CF93DF93C9
:101300008C0180E0C9DF80913D0490913E04D6D9E4
:101310008DE16FDF81FF06C080913D0490913E0416
:10132000CDD9B8DF80E065DF682F6E7F80E047DFD2
:1013300082E05FDFEEE0F2E0E49161E070E001C0A6
:10134000660FEA95EAF7682B82E039DF40913B04AB
:1013500066E072E08AE008DF40913B0466E072E0FC
:1013600080E102DF6091340481E129DFF80101901E
:101370000020E9F73197C0913404DE2FD01BCD1740
:1013800008F4DC2F80913504811102C0CD1B01C00F
:10139000C0E0E8DE80EA44DE7801D00FDE1529F0F7
:1013A000F70181917F013CDEF9CFCC2321F080E071
:1013B00037DEC150FACFD4DE81E06EDF8FEF5ADF27
:1013C0008073E1F380E068DF60E787E0F8DE84FFA8
:1013D00003C060DF80E001C081E0DF91CF911F9109
:1013E0000F91FF90EF900895CF92DF92EF92FF92CE
:1013F0000F931F93CF93DF931F92CDB7DEB7E82EE5
:1014000020913404223310F4D22E02C082E3D82E6D
:1014100080913504811103C0C22ECD1801C0C12CAA
:101420009983A0DE81E6FCDDF82E0E2D9981192F1F
:10143000DA94FFEFDF1631F08FEFF2DDF8018193E0
:101440008F01F6CFCC2021F08FEFEADDCA94FACFDE
:1014500087DE8F2D0F90DF91CF911F910F91FF901D
:10146000EF90DF90CF90089587E1C3DE80FD0AC042
:101470008FEF00DF90E0959587958770809300024D
:1014800081E0089580E00895E7DE80E0B2DE682F15
:10149000616080E094DE60E787E091DE81E0FCDE61
:1014A00080913604882339F040913B0466E374E070
:1014B0008AE05ADE10C082E09CDEEEE0F2E0E491C9
:1014C00021E030E001C0220FEA95EAF72095622F73
:1014D000682382E074DE8DE18CDE81FDDBCE089531
:1014E000FC0124813581232B31F421E06115710544
:1014F00099F0FB0108C0FC018081918161157105A3
:1015000031F421E0FC018081882331F004C02DD525
:1015100021E0892B09F020E0822F0895CF93DF93FB
:10152000DC01ED91FC91EB01A881B981309711F0BC
:101530001097C9F4109759F0EB012C813D81232BB2
:1015400031F08C9190E091958195910913C030977D
:1015500079F0DC0114968D919C911597892B41F0BF
:10156000808190E007C0BD01CF01DF91CF91FDC424
:1015700080E090E0DF91CF910895EF92FF920F937A
:101580001F93CF93DF93FC01248135816115710591
:1015900011F480E017C04115510599F07B01EC0171
:1015A0008A01020F131FB8016EDD882391F3288191
:1015B00039818C819D81B701820F931FDFD41D83F8
:1015C0000C8381E0DF91CF911F910F91FF90EF90FD
:1015D0000895CF93DF93EC016115710559F0FB017C
:1015E00001900020E9F73197AF01461B570BC5DF8B
:1015F000811102C0CE016DDDCE01DF91CF91089542
:10160000CF93DF93EC01FB014481558160817181AF
:10161000B4DF811102C0CE015CDDCE01DF91CF913C
:101620000895CF93DF93EC01FB018617970751F0E4
:10163000608171816115710521F0448155815ADD08
:1016400001C047DDCE01DF91CF910895FC0180817B
:10165000918102C3FC0111821082138212821582D1
:101660001482DFCFFC011182108213821282158254
:1016700014826115710549F0FB0101900020E9F722
:101680003197AF01461B570B35CD0895BF92CF92CE
:10169000DF92EF92FF920F931F93CF93DF937C0122
:1016A0006B01EA0189012417350720F48D2FE90128
:1016B000042F182F66E272E0C701D4DFD60114961A
:1016C0008D919C911597C817D90738F58017910708
:1016D00008F48C01D601ED91FC911197E00FF11FF8
:1016E000B08010824D915C91BA016C0F7D1F611525
:1016F000710559F0FB0101900020E9F73197AF0126
:10170000461B570BC701F6DC02C0C701E2DCD6015D
:10171000ED91FC91E00FF11FB082C701DF91CF91F5
:101720001F910F91FF90EF90DF90CF90BF900895A1
:10173000789484B5826084BD84B5816084BD85B5AC
:10174000826085BD85B5816085BD80916E008160B8
:1017500080936E001092810080918100826080935E
:101760008100809181008160809381008091800060
:101770008160809380008091B10084608093B1008B
:101780008091B00081608093B00080919100826070
:10179000809391008091910081608093910080916D
:1017A00090008160809390008091A100826080937E
:1017B000A1008091A10081608093A1008091A00090
:1017C00081608093A000809121018260809321013B
:1017D00080912101816080932101809120018160AD
:1017E0008093200180917A00846080937A008091B8
:1017F0007A00826080937A0080917A008160809381
:101800007A0080917A00806880937A001092C100FB
:10181000E0914803F091490382E08083E091440322
:10182000F09145031082E0914603F09147038FEC5D
:10183000808310925003E0914C03F0914D0386E0B9
:101840008083E0914A03F0914B0380818061808323
:10185000E0914A03F0914B03808188608083E0919E
:101860004A03F0914B03808180688083E0914A03B2
:10187000F0914B0380818F7D808380912D04909126
:101880002E0420912F04309130048217930709F021
:1018900012DD80912F049091300420912D0430911D
:1018A0002E042817390709F006DDCFB7F894809188
:1018B0003703811121C0E7EBF1E08491EDEFF1E016
:1018C0009491E82FF0E0EE0FFF1FE859FE4FA5912D
:1018D000B491EC91E92321F461E085E30E94E102F7
:1018E00085E3E9DC8CB580618CBD8CB580648CBDF2
:1018F00084E3E1DC83E3DFDC809137038F5F809357
:101900003703CFBF80E0C8DC81E012DC65E070E027
:1019100080E090E00E9469036CE080E050DC6FE5BD
:1019200084E04DDC86E065DC877DC82FC0628BE9F2
:1019300090E0A0E0B0E080933D0490933E04A0933B
:101940003F04B09340046C2F86E039DC86E051DC24
:101950008C1709F44BC086E04CDC86E04ADC45E598
:1019600050E060E070E040933D0450933E0460938B
:101970003F0470934004682F677D86E020DC86E09A
:1019800038DCF0DB80E54CDB83E74ADBE9DB60E059
:101990008DE115DC60E08CE112DC1092350460E72B
:1019A00087E00DDC6CE485E00ADC82EE63DC72DC4F
:1019B00053DC80E01EDC682F6E7F80E000DC40910D
:1019C0003B0450E060E072E086E394E0C5D280E042
:1019D00092E022DC86E00DDC887F682F616086E083
:1019E000EEDB0E94A1030E941602FBCF81E08093F0
:1019F0003304B1CFCF93DF938BED93E0892B29F4A0
:101A000085ED93E0DF91CF9121CEC1E1D4E0CE010D
:101A10001DDE269783E0C53DD807C9F7F1CFCF93E8
:101A2000DF9310923B0310923A0388EE93E0A0E01C
:101A3000B0E080933C0390933D03A0933E03B093AA
:101A40003F0386E192E0909339038093380385EC5D
:101A500090E0909345038093440384EC90E090934E
:101A600047038093460380EC90E090934903809372
:101A7000480381EC90E090934B0380934A0382ECFF
:101A800090E090934D0380934C0386EC90E090930C
:101A90004F0380934E031092510310925203109201
:101AA00053031092540387E090E090932E048093A8
:101AB0002D0488E090E09093300480932F041092DE
:101AC000330480E2809334041092350485E08093DF
:101AD0003B0485E090E0A0E0B0E080934104909367
:101AE0004204A0934304B09344041092360465EC7E
:101AF00072E085ED93E0B6DDC0E0D0E0269666E2C8
:101B000072E0CE018B529C4FADDDCC33D105B1F7E5
:101B100010922C0410922B04DF91CF910895EE0FB8
:101B2000FF1F881F8BBF0790F691E02D1994CF936C
:101B3000DF938230910510F482E090E0E091470459
:101B4000F091480420E030E0C0E0D0E0309711F19F
:101B50004081518148175907C0F04817590761F46F
:101B600082819381209719F09B838A832BC0909365
:101B700048048093470426C02115310519F0421707
:101B8000530718F49A01BE01DF01EF010280F381CF
:101B9000E02DDCCF2115310509F1281B390B24304C
:101BA000310590F412968D919C91139761157105F2
:101BB00021F0FB019383828304C0909348048093B7
:101BC0004704FD01329644C0FD01E20FF31F8193EB
:101BD0009193225031092D933C933AC020914504B2
:101BE00030914604232B41F420910E0230910F02D4
:101BF000309346042093450420910C0230910D024D
:101C00002115310541F42DB73EB740911002509196
:101C10001102241B350BE0914504F0914604E217B4
:101C2000F307A0F42E1B3F0B2817390778F0AC01FF
:101C30004E5F5F4F2417350748F04E0F5F1F5093DC
:101C40004604409345048193919302C0E0E0F0E0A4
:101C5000CF01DF91CF9108950F931F93CF93DF931F
:101C6000009709F48CC0FC01329713821282009114
:101C70004704109148040115110581F42081318138
:101C8000820F931F2091450430914604281739078D
:101C900079F5F0934604E093450471C0D80140E023
:101CA00050E0AE17BF0750F412962D913C91139758
:101CB000AD012115310509F1D901F3CF9D01DA01FB
:101CC0003383228360817181860F971F8217930768
:101CD00069F4EC0128813981260F371F2E5F3F4FB1
:101CE000318320838A819B8193838283452B29F4CE
:101CF000F0934804E093470442C01396FC93EE939C
:101D00001297ED01499159919E01240F351FE21759
:101D1000F30771F480819181840F951F02961196CB
:101D20009C938E938281938113969C938E931297AA
:101D3000E0E0F0E0D80112968D919C911397009706
:101D400019F0F8018C01F6CF8D919C9198012E5FCE
:101D50003F4F820F931F209145043091460428176E
:101D6000390769F4309729F4109248041092470417
:101D700002C0138212821093460400934504DF913F
:101D8000CF911F910F9108956F927F928F929F92A2
:101D9000AF92BF92CF92DF92EF92FF920F931F9379
:101DA000CF93DF93EC01009781F4CB01DF91CF91CA
:101DB0001F910F91FF90EF90DF90CF90BF90AF9069
:101DC0009F908F907F906F90B2CEFC01E60FF71F2F
:101DD0009C0122503109E217F30708F4A8C0D90189
:101DE0000D911C91119706171707A8F005301105E2
:101DF00008F49BC0C80104978617970708F495C09C
:101E000002501109061B170B019311936D937C93DC
:101E1000CF0122DF8AC05B01A01AB10A4C01800EFB
:101E2000911EA0914704B091480440E050E0E12C9D
:101E3000F12C109709F44AC0A815B905D1F56D9099
:101E40007C901197630182E0C80ED11CCA14DB0498
:101E500080F1A3014A195B096A0182E0C80ED11C16
:101E60001296BC9012971396AC91B5E0CB16D104A4
:101E700040F0B282A38351834083D9016D937C9358
:101E80000AC00E5F1F4FC301800F911FF90191839C
:101E90008083EB2DFA2FE114F10431F0D701139672
:101EA000FC93EE93129741C0F0934804E0934704EB
:101EB0003CC08D919C9111974817590708F4AC01CB
:101EC0007D0112960D90BC91A02DB3CF8091450459
:101ED0009091460488159905E1F446175707C8F410
:101EE00080910C0290910D02009741F48DB79EB73E
:101EF0004091100250911102841B950BE817F907CD
:101F0000B0F4F0934604E0934504F90171836083D3
:101F10000CC0CB010CDE7C01009749F0A801BE018A
:101F20001BD0CE0199DEC70104C0CE0102C080E003
:101F300090E0DF91CF911F910F91FF90EF90DF9094
:101F4000CF90BF90AF909F908F907F906F900895AB
:101F500081E090E0F89428C0FB01DC0102C0019010
:101F60000D9241505040D8F70895FB01DC018D914E
:101F7000019080190110D9F3990B0895FB01DC0140
:101F800001900D920020E1F70895FB01DC01415022
:101F9000504048F001900D920020C9F701C01D92F9
:101FA00041505040E0F7089511E0C1E1D1E000E078
:101FB00005C0802FFE01B3DD2196011DC231D1077E
:0A1FC00080E00807B1F7F894FFCFA6
:101FCA00414243444500454443424100000049041C
:101FDA00800000000000AF0117084801F5017901EF
:101FEA0057016B010D0A00737461727400537461B6
:101FFA007274696E672E2E2E00646973636F4E6564
:10200A00696768626F72730049645F00666F756E14
:10201A006420627579206E6F742073656E6420691E
:10202A0064206E756D005F61636B50697065006E48
:10203A006F20706C61636520696E20736F6E730028
:10204A006469646E74206765742061636B20666FCF
:10205A0072207069706500726571536F6E73006EDD
:10206A006F2073756E7300726571506970657300C5
:10207A00756E7265636F676E697A6564206D6573E4
:0A208A00736167650030303000001C
:00000001FF
