:1000000011C1000040C100003EC100003CC1000021
:100010003AC1000038C1000036C1000034C1000000
:1000200032C1000030C100002EC100002CC1000010
:100030002AC1000028C1000026C1000024C1000020
:1000400022C1000020C100001EC100001CC1000030
:100050001AC1000018C1000016C10000E0C700006E
:1000600012C10000C1C2000096C200000CC1000015
:100070000AC1000008C1000006C1000004C1000060
:1000800002C1000000C10000FEC00000FCC0000072
:10009000FAC00000F8C00000F6C00000F4C0000084
:1000A000F2C00000F0C00000EEC00000ECC0000094
:1000B000EAC00000E8C00000E6C00000E4C00000A4
:1000C000E2C00000E0C00000DEC00000DCC00000B4
:1000D000DAC00000D8C00000D6C00000D4C00000C4
:1000E000D2C0000059035C034B034F035303930337
:1000F000600364036A036E03720378037C03800366
:10010000930386038A038E0300000A0B02090C0D79
:100110000E080703040100000000000000000000BA
:1001200000000000000000000000000000000000CF
:10013000000000001211100000000000000000008C
:10014000000000000000000000000000000011128C
:10015000131415160A0B0C0D0E0F000102030405F3
:1001600000002200250028002B002E003100340062
:1001700002010000050108010B010000210024001C
:1001800027002A002D003000330001010000040187
:1001900007010A0105050505070508080808020208
:1001A00002020A0A08080404040401010101010111
:1001B00001010303030303030303040707070C0CF4
:1001C0000C0C0C0C0C0C02020202060606060606BB
:1001D00006060B0B0B0B0B0B0B0B01021020200860
:1001E0000810204010204080020102010804020192
:1001F0000102040810204080804020100804020101
:100200008004020180402010080402010804020159
:1002100001020408102040800102040810204080E0
:10022000FB0CE60C11241FBECFEFD1E2DEBFCDBF29
:1002300000E00CBF24E0AAE9B2E001C01D92A931A0
:10024000B207E1F712E0A0E0B2E0E6EAFFE100E089
:100250000BBF02C007900D92AA39B107D9F711E080
:10026000C1E1D1E000E006C021970109802FFE0125
:100270000E947D0DC031D10780E00807A9F70E94D8
:100280006B0B0C94C20FBCCECF92DF92EF92FF9219
:100290000F931F93CF93DF936C017A018B01C0E022
:1002A000D0E0CE15DF0589F0D8016D918D01D60122
:1002B000ED91FC910190F081E02DC6011995892BFB
:1002C00011F47E0102C02196ECCFC701DF91CF91DE
:1002D0001F910F91FF90EF90DF90CF9008950895B8
:1002E00080E090E00895FC01538D448D252F30E08F
:1002F000842F90E0821B930B541710F0CF96089533
:1003000001970895FC01918D828D981761F0828D7F
:10031000DF01A80FB11D5D968C91928D9F5F9F7339
:10032000928F90E008958FEF9FEF0895FC01918DDB
:10033000828D981731F0828DE80FF11D858D90E048
:1003400008958FEF9FEF0895FC01918D228D892FE5
:1003500090E0805C9F4F821B91098F7399270895CD
:1003600088E093E0F1DF21E0892B09F420E0822F7F
:100370000895FC01848DDF01A80FB11DA35ABF4F62
:100380002C91848D90E001968F739927848FA68994
:10039000B7892C93A089B1898C9180648C93938DBB
:1003A000848D981306C00288F389E02D80818F7DAB
:1003B00080830895EF92FF920F931F93CF93DF9363
:1003C000EC0181E0888F9B8D8C8D981305C0E889A6
:1003D000F989808185FD23C0F62E0B8D10E00F5F1B
:1003E0001F4F0F731127E02E8C8DE8120BC00FB634
:1003F00007FCFACFE889F989808185FFF5CFCE0126
:10040000B8DFF2CF8B8DFE01E80FF11DE35AFF4FED
:10041000F0820B8FEA89FB898081806207C0EE89B8
:10042000FF896083E889F98980818064808381E025
:1004300090E0DF91CF911F910F91FF90EF90089581
:10044000CF93DF93EC01888D8823C1F0EA89FB8983
:10045000808185FD05C0A889B9898C9186FD0EC073
:100460000FB607FCF5CF808185FFF2CFA889B98947
:100470008C9185FFEDCFCE017CDFE8CFDF91CF916E
:10048000089580E090E0892B19F06ADF811125C082
:1004900080E090E0892B41F080E090E0892B21F012
:1004A0000E94000081111CC080E090E0892B41F087
:1004B00080E090E0892B21F00E940000811113C0A0
:1004C00080E090E0892BA1F080E090E0892B81F022
:1004D0000E94000081110AC008950E940000D8CF38
:1004E0000E940000E1CF0E940000EACF0C940000BF
:1004F00008953FB7F8948091030390910403A0916D
:100500000503B091060326B5A89B05C02F3F19F03F
:100510000196A11DB11D3FBFBA2FA92F982F882783
:10052000820F911DA11DB11DBC01CD0142E0660FDE
:10053000771F881F991F4A95D1F70895FC014481C0
:1005400055816081718188E093E09EDE42E050E059
:1005500064E272E088E093E097CEFC0111821082A1
:1005600013821282158214820C94520BFC011182A8
:10057000108213821282158214826115710551F066
:10058000FB0101900020E9F73197AF01461B570BA3
:100590000C94E10A08951F920F920FB60F92112446
:1005A0000BB60F922F933F934F935F936F937F936D
:1005B0008F939F93AF93BF93EF93FF9388E093E064
:1005C000D8DEFF91EF91BF91AF919F918F917F9175
:1005D0006F915F914F913F912F910F900BBE0F90B4
:1005E0000FBE0F901F9018951F920F920FB60F928B
:1005F00011240BB60F922F938F939F93EF93FF933A
:10060000E0911803F09119038081E0911E03F091AD
:100610001F0382FD12C09081809121038F5F8F7331
:1006200020912203821751F0E0912103F0E0E85F6E
:10063000FC4F958F8093210301C08081FF91EF9142
:100640009F918F912F910F900BBE0F900FBE0F9027
:100650001F901895362F90E0FC01E85FFE4F449103
:10066000FC01E652FE4F2491FC01EC56FE4F9491A2
:10067000992309F46BC0442309F455C050E0FA01F2
:100680003197E231F10508F04EC08827EE58FF4F50
:100690008F4F0C947D0D809180008F7707C08091E3
:1006A00080008F7D03C080918000877F80938000D1
:1006B0003AC084B58F7702C084B58F7D84BD33C0C6
:1006C0008091B0008F7703C08091B0008F7D8093C0
:1006D000B00029C0809190008F7707C08091900072
:1006E0008F7D03C080919000877F809390001BC016
:1006F0008091A0008F7707C08091A0008F7D03C0FC
:100700008091A000877F8093A0000DC08091200180
:100710008F7707C0809120018F7D03C080912001D9
:10072000877F80932001E92FF0E0EE0FFF1FE05A52
:10073000FE4FA591B4918FB7F894EC91311103C09D
:1007400020952E2301C02E2B2C938FBF089582302D
:10075000910538F0880F991F880F991F0597019709
:10076000F1F708958F929F92AF92BF92CF92DF924E
:10077000EF92FF926B017C01BCDE4B015C01C11466
:10078000D104E104F104E9F0B4DEDC01CB01881905
:100790009909AA09BB09883E9340A105B10578F3E0
:1007A00021E0C21AD108E108F10888EE880E83E042
:1007B000981EA11CB11CC114D104E104F10421F75D
:1007C000DECFFF90EF90DF90CF90BF90AF909F90E3
:1007D0008F9008952F923F924F925F926F927F92E7
:1007E0008F929F92AF92BF92CF92DF92EF92FF9241
:1007F0000F931F93CF93DF93CDB7DEB7C251D14094
:100800000FB6F894DEBF0FBECDBF62E370E080E0AC
:1008100090E0A8DF81EA90E08C0F9D1F0496C35FF3
:10082000DE4F99838883CD50D14088E093E08CDD02
:10083000892B09F4DAC30AE912E02FB7F894809102
:10084000FF0290910003A0910103B09102032FBF1A
:100850008093100390931103A0931203B09313039A
:10086000E0910803F09109030284F385E02D88E00C
:1008700093E0199597FD3EC0D8018D938D01B2E0AC
:100880000E3F1B07D1F66AE972E0CE018D5F9E4FE5
:100890006DDE66E272E0CE0183509F4F67DE25E099
:1008A00030E040E050E0BE016D5F7E4F8E010F5F93
:1008B0001F4FC801A4D667E272E0C801E1D5F82E47
:1008C000C80105D7FF2009F429C26DE272E0C80112
:1008D0004DDEC80133DEC801FAD67E01E5E6EE0E34
:1008E000F11CC701CC96C55FDE4F99838883CB503E
:1008F000D1401DC12FB7F8948091FF029091000361
:10090000A0910103B09102032FBF409110035091B9
:1009100011036091120370911303841B950BA60BB6
:10092000B70B40910C0350910D0360910E03709131
:100930000F0384179507A607B70708F491CFA3CF35
:10094000CF55DF4F188219821A821B82C15AD040BC
:10095000C35FDE4FA881B981CD50D140E72D1D92F4
:10096000EA95E9F7CE018F559F4F1ED560E787E0E6
:10097000FBD3BE016F557F4FCE018B519F4FF6DDEC
:1009800068E472E0CE018D529F4FF0DDBE016950E8
:100990007F4FCE018D529F4F03D66DE872E0E9D5AF
:1009A000C751DF4F48815981C95ED040DC011496A0
:1009B0002D913C9115974217530709F087C2BC014E
:1009C000CE018B519F4F7AD521E0C75FDE4F288340
:1009D000C950D140892B09F079C2CE018D529F4F69
:1009E00076D6C75FDE4F2881C950D140222309F453
:1009F00079C2BE016F507F4FCE0187529F4FADDD50
:100A00003E018FED680E711CBE0169507F4FC3011E
:100A1000A4DD2090FB033090FC039AE029163104FA
:100A20000CF05AC2D30114962D913C9115976BEAA4
:100A3000462E63E0562E562D472DF2018481958176
:100A40008217930709F053C2652F742FC201C15F4B
:100A5000DE4F2883CF50D140C05FDE4F3883C05176
:100A6000D140CE5EDE4F4883C251D140CF5EDE4FD3
:100A70005883C151D14022D5C15FDE4F2881CF506C
:100A8000D140C05FDE4F3881C051D140CE5EDE4FD5
:100A90004881C251D140CF5EDE4F5881C151D14013
:100AA000892B09F024C2CE0181529F4F10D6CE016E
:100AB00087529F4F0CD6CE018B519F4F08D6CE0147
:100AC00085519F4F04D6CE018F509F4F00D6C75FF0
:100AD000DE4F5880C950D140CE0189509F4FF7D585
:100AE000F6E0AF0EB11C5110B4C06CE472E0C80166
:100AF0003DDDC80123DDC801EAD5C65FDE4F18829F
:100B0000CA50D140C55FDE4FC880D980CB50D1409C
:100B100086E0C81AD108C601DAD5CE14DF04C1F7C1
:100B2000C65FDE4F9881CA50D1409111C6C15701AE
:100B300067019CE3C90ED11C470166E272E0C40163
:100B400015DDA6E08A0E911C8C149D04B1F789E393
:100B500092E0B0D3C65FDE4F8883CA50D14088236D
:100B600089F262D462E370E080E090E0FBDDC12CAA
:100B7000D12CFEE26F2E4E01B5E08B0E911CA6E04B
:100B80007A2E87E10BD380FF03C0812C912C64C0A7
:100B90008FEF50D390E095958795877080930002F2
:100BA00068E770E080E090E0DDDD19821A821B8248
:100BB0001C82D401E62D1D92EA95E9F7C801F4D311
:100BC00060E787E0D1D2B801CE0187529F4FCEDCDB
:100BD00023E030E040E050E0BE0167527F4FCE019D
:100BE0008D529F4F0CD568E472E0CE018D529F4F1D
:100BF00047D4882329F1F80101900020E9F73197C3
:100C00009F01201B310B43E050E0BE0167527F4F34
:100C1000CE018F559F4FF3D41601EFEF2E1A3E0AE7
:100C20007C9CC0017D9C900D1124BE016F557F4FAF
:100C30008E0D9F1D37D5CE018F559F4F48D5610131
:100C4000CE018D529F4F43D5CE0187529F4F3FD546
:100C500098CF2FEF821A920A8C149D0409F452CF78
:100C6000B501CE0189509F4F78DC22E030E040E0B2
:100C700050E0BE0169507F4FC801C1D4BE01695028
:100C80007F4FCE018F559F4F68DCB801CE018F5545
:100C90009F4F86D4BC01CE018F509F4F5EDCCE01AA
:100CA0008F559F4F14D5C80112D568E472E0C80172
:100CB0005DDCBE0169507F4FC80172D46AE472E006
:100CC00058D4BE016F507F4F6BD4BC01CE0185510B
:100CD0009F4F43DCC801FBD4C551DF4F6881798148
:100CE000CB5ED04044E650E0C8010E94B30FC8017B
:100CF000E1D29AD368EE73E080E090E033DD7EE2EB
:100D0000772E87E14BD280FF1BCECE0185519F4FBE
:100D1000DED4CE018F509F4FDAD4DECE27E030E014
:100D200040E050E0BE016D5F7E4FC80168D46FE5C2
:100D300072E0C801A5D3F82EC801C9D4FF2009F478
:100D40003BC08091FB039091FC03892B19F467E66B
:100D500072E0ADC066E272E0CE018B599F4F06DCB7
:100D60009BEAC92E93E0D92EE12CF12C8091FB0354
:100D70009091FC03E816F906DCF4B601C801EDDB3E
:100D80006AE472E0C801F5D3DC0114964D915C91E0
:100D900015976D917C91CE018B599F4FBED3C801A1
:100DA00096D4BFEFEB1AFB0AE6E0CE0ED11CDECFE5
:100DB000BE016B597F4F29C028E030E040E050E091
:100DC000BE016D5F7E4FC8011AD46FE672E0C801A4
:100DD00057D3F82EC8017BD4FF2009F466C0809158
:100DE000FB039091FC03892BD1F468E472E0CE01FF
:100DF0008B599F4FBBDB65EA73E0CE018B599F4F48
:100E0000CFD367E672E0B5D3BC01C801A6DBC80149
:100E100095DBC8015CD4CE018B599F4F4DC066E273
:100E200072E0CE018F559F4FA1DB87EEC82E83E085
:100E3000D82EE12CF12C8091FB039091FC03E81655
:100E4000F90634F5D601ED91FD916D016281738152
:100E5000C8018CDBB801CE018B599F4F7EDB6AE461
:100E600072E0CE018B599F4F84D3FC0144815581A0
:100E700060817181CE018F559F4F4FD3CE018B5929
:100E80009F4F25D4C80123D4FFEFEF1AFF0AD3CF19
:100E9000BE016F557F4FC80160DBC8014FDBC80141
:100EA00016D4CE018F559F4F07C068E772E0C80186
:100EB0005DDBC80143DBC8010AD4CE0183509F4FDC
:100EC00006D4CE018D5F9E4F02D4AFCCC75FDE4FFC
:100ED0001882C950D14081CDC75FDE4F1882C950FA
:100EE000D140E1CDCE018B519F4FF1D30ACF86E0A7
:100EF000480E511C97EE491693E0590609F09DCD16
:100F0000FFEF2F1A3F0A26E0229DC001239D900D7E
:100F10001124B3018B559C4FC5D3C752DF4F688155
:100F20007981C95DD04046E050E0CE018D529F4F9F
:100F30000E94B30F84E090E0E8D53C0186E090E0A9
:100F4000E4D5D3018D939C9386E090E0DED5F30148
:100F500093838283E091FB03F091FC03EE0FFF1F6C
:100F6000E951FC4F718260829E012D523F4FD901A1
:100F700080E090E04D91F30160817181FB01E80F09
:100F8000F91F4083019685309105A1F7D301129690
:100F9000ED91FC9113971582E091FB03F091FC0316
:100FA000EE0FFF1FE951FC4FA081B18180E090E07E
:100FB000F90141919F011296ED91FC911397E80F71
:100FC000F91F408301968530910591F71296ED91B6
:100FD000FC91139715828091FB039091FC0301967D
:100FE0009093FC038093FB035ECDCE5EDE4F0FB685
:100FF000F894DEBF0FBECDBFDF91CF911F910F914F
:10100000FF90EF90DF90CF90BF90AF909F908F9028
:101010007F906F905F904F903F902F9008951F9218
:101020000F920FB60F9211242F933F938F939F939C
:10103000AF93BF938091FF0290910003A0910103B1
:10104000B09102033091FE0223E0230F2D3720F4EC
:101050000196A11DB11D05C026E8230F0296A11D12
:10106000B11D2093FE028093FF0290930003A09392
:101070000103B09302038091030390910403A091B4
:101080000503B09106030196A11DB11D80930303D2
:1010900090930403A0930503B0930603BF91AF910F
:1010A0009F918F913F912F910F900FBE0F901F90A6
:1010B00018958EBD00000DB407FEFDCF8EB50895C6
:1010C00035D70F931F93CF93DF93EC0188819981DC
:1010D000009729F02A813B812617370780F48B017E
:1010E0006F5F7F4F3FD6009761F0998388831B83A2
:1010F0000A832C813D81232B11F4FC01108281E0B5
:1011000001C080E0DF91CF911F910F910895CF939F
:10111000DF93EC0188819981009709F08BD51982C2
:1011200018821D821C821B821A82DF91CF91089542
:10113000CF93DF939CB59F7D9CBD9CB5937F9CBD59
:101140009CB59C7F9CBD9DB591609DBDCDEFD3E0CE
:10115000682F8A817FDA8C899D89DF91CF91F7CAC8
:1011600081E0E6CF80E0E4CF1F93CF93DF931F921F
:101170001F92CDB7DEB76A838983F4DF89818F71CF
:10118000806297DF182F6A81862F93DFE9DF812F36
:101190000F900F90DF91CF911F910895CF93DF9320
:1011A0001F92CDB7DEB78983DDDF89818F7181DF43
:1011B0008FEF7FDF8983D4DF89810F90DF91CF911B
:1011C0000895EF92FF920F931F93CF93DF9300D078
:1011D000CDB7DEB7162F4A837B838983C3DF89812E
:1011E0008F71806266DF082FE12E7B81F72E4A81A6
:1011F000140F1E1529F0F70181917F015ADFF9CFF5
:10120000AFDF802F0F900F900F90DF91CF911F9144
:101210000F91FF90EF90089580E0C0DF81FD09C03D
:10122000682F626080E0A0DF65E070E080E090E021
:1012300099CA0895CF93DF931F92CDB7DEB7898304
:1012400091DF898136DF89838BDF89810F90DF9180
:10125000CF91089581EEEECF2091FD033091FE03F2
:101260004091FF03509100042417350719F0682FAF
:10127000822FF0C9089590E0FC01E652FE4F2491C0
:10128000FC01EC56FE4F8491882399F090E0880F82
:10129000991FFC01E658FE4FA591B491FC01E05A5C
:1012A000FE4F859194918FB7F894EC91E22BEC93DB
:1012B0008FBF0895EF92FF920F931F93CF93DF9309
:1012C0008C0180E0C9DF80910D0490910E043FDA1B
:1012D0008DE164DF81FF06C080910D0490910E04C2
:1012E00036DAB8DF80E05ADF682F6E7F80E03CDFBF
:1012F00082E054DFEAE5F1E0E49161E070E001C0F2
:10130000660FEA95EAF7682B82E02EDF40910B0426
:1013100066E072E08AE055DF40910B0466E072E01F
:1013200080E14FDF6091040481E11EDFF80101904C
:101330000020E9F73197C0910404DE2FD01BCD17B0
:1013400008F4DC2F80910504811102C0CD1B01C07F
:10135000C0E008DF80EAADDE7801D00FDE1529F0AD
:10136000F70181917F01A5DEF9CFCC2321F080E048
:10137000A0DEC150FACFF4DE81E06EDF8FEF5ADFDE
:101380008073E1F380E068DF60E787E0EDDE84FFF3
:1013900003C060DF80E001C081E0DF91CF911F9149
:1013A0000F91FF90EF900895CF92DF92EF92FF920E
:1013B0000F931F93CF93DF931F92CDB7DEB7E82E25
:1013C00020910404223310F4D22E02C082E3D82EDE
:1013D00080910504811103C0C22ECD1801C0C12C1B
:1013E0009983C0DE81E665DEF82E0E2D9981192FD6
:1013F000DA94FFEFDF1631F08FEF5BDEF8018193B7
:101400008F01F6CFCC2021F08FEF53DECA94FACFB4
:10141000A7DE8F2D0F90DF91CF911F910F91FF903D
:10142000EF90DF90CF900895F7DE80E0B7DE682F71
:10143000616080E099DE60E787E096DE81E00CDFA6
:1014400080910604882339F040910B0466E074E033
:101450008AE0B7DE10C082E0A1DEEAE5F1E0E491C7
:1014600021E030E001C0220FEA95EAF72095622FD3
:10147000682382E079DE8DE191DE81FDEBCE089577
:10148000FC0124813581232B31F421E061157105A4
:1014900099F0FB0108C0FC01808191816115710503
:1014A00031F421E0FC018081882331F004C04BD568
:1014B00021E0892B09F020E0822F0895CF93DF935C
:1014C000DC01ED91FC91EB01A881B981309711F01D
:1014D0001097C9F4109759F0EB012C813D81232B13
:1014E00031F08C9190E091958195910913C03097DE
:1014F00079F0DC0114968D919C911597892B41F020
:10150000808190E007C0BD01CF01DF91CF911BC565
:1015100080E090E0DF91CF910895EF92FF920F93DA
:101520001F93CF93DF93FC012481358161157105F1
:1015300011F480E017C04115510599F07B01EC01D1
:101540008A01020F131FB801BCDD882391F32881A3
:1015500039818C819D81B701820F931FFDD41D833A
:101560000C8381E0DF91CF911F910F91FF90EF905D
:101570000895CF93DF93EC016115710559F0FB01DC
:1015800001900020E9F73197AF01461B570BC5DFEB
:10159000811102C0CE01BBDDCE01DF91CF91089554
:1015A000CF93DF93EC01FB01448155816081718110
:1015B000B4DF811102C0CE01AADDCE01DF91CF914F
:1015C0000895EF92FF920F931F93CF93DF93EC0157
:1015D0007B018A01BA0175DD811103C0CE0197DD5F
:1015E00006C01D830C83B70188819981B5D4CE01D3
:1015F000DF91CF911F910F91FF90EF900895BF92CF
:10160000CF92DF92EF92FF920F931F93CF93DF93CE
:101610007C016B01EA0189012417350720F48D2F25
:10162000E901042F182F66E272E0C7010E94B6029A
:10163000D60114968D919C911597C817D90738F546
:101640008017910708F48C01D601ED91FC91119758
:10165000E00FF11FB08010824D915C91BA016C0FC8
:101660007D1F6115710559F0FB0101900020E9F71C
:101670003197AF01461B570BC701A3DF02C0C7015B
:1016800046DDD601ED91FC91E00FF11FB082C7015C
:10169000DF91CF911F910F91FF90EF90DF90CF904E
:1016A000BF900895CF93DF93EC01FB018617970756
:1016B00051F0608171816115710521F0448155817E
:1016C00080DF01C024DDCE01DF91CF910895FC01C0
:1016D00080819181AFC2789484B5826084BD84B5E5
:1016E000816084BD85B5826085BD85B5816085BD1D
:1016F00080916E00816080936E00109281008091D5
:10170000810082608093810080918100816080935C
:101710008100809180008160809380008091B10081
:1017200084608093B1008091B00081608093B000AC
:1017300080919100826080939100809191008160FE
:1017400080939100809190008160809390008091BF
:10175000A10082608093A1008091A10081608093AC
:10176000A1008091A00081608093A0008091210160
:101770008260809321018091210181608093210109
:101780008091200181608093200180917A008460A3
:1017900080937A0080917A00826080937A008091B1
:1017A0007A00816080937A0080917A0080688093CB
:1017B0007A001092C100E0911803F091190382E0C1
:1017C0008083E0911403F09115031082E0911603D9
:1017D000F09117038FEC808310922003E0911C039B
:1017E000F0911D0386E08083E0911A03F0911B03C2
:1017F000808180618083E0911A03F0911B038081D6
:1018000088608083E0911A03F0911B0380818068D7
:101810008083E0911A03F0911B0380818F7D808388
:101820008091FD039091FE032091FF03309100040D
:101830008217930709F01FDD8091FF039091000448
:101840002091FD033091FE032817390709F013DDBD
:10185000CFB7F89480910703811121C0E9ECF1E042
:101860008491EFE0F2E09491E82FF0E0EE0FFF1F9B
:10187000E658FE4FA591B491EC91E92321F461E083
:1018800085E30E942A0385E3F6DC8CB580618CBD7C
:101890008CB580648CBD84E3EEDC83E3ECDC80916A
:1018A00007038F5F80930703CFBF80E0D5DC81E023
:1018B0003FDC65E070E080E090E00E94B2036CE005
:1018C00080E052DC6FE584E04FDC86E067DC877DFA
:1018D000C82FC0628BE990E0A0E0B0E080930D04D7
:1018E00090930E04A0930F04B09310046C2F86E025
:1018F0003BDC86E053DC8C1709F464C086E04EDCE8
:1019000086E04CDC45E550E060E070E040930D047B
:1019100050930E0460930F0470931004682F677D3A
:1019200086E022DC86E03ADC1DDC80E5C2DB83E772
:10193000C0DB16DC60E08DE117DC60E08CE114DCDC
:101940001092050460E787E00FDC6CE485E00CDCB6
:1019500082EE70DC7FDC60DC80E020DC682F6E7F54
:1019600080E002DC40910B0450E060E072E086E031
:1019700094E0E0D2E4E5F1E0849140910B0460E072
:1019800072E01FDCEEE4F1E0849160910404ECDB92
:1019900082E004DCEAE5F1E0E49161E070E001C09E
:1019A000660FEA95EAF7682B82E0DEDB86E0F6DB7D
:1019B000887F682F616086E0D7DB0E94EA030E947F
:1019C0004102FBCF81E08093030498CFCF93DF9354
:1019D0008BEA93E0892B29F485EA93E0DF91CF919C
:1019E00076CEC1EED3E0CE0172DE269783E0C53A13
:1019F000D807C9F7F1CFCF93DF9310920B03109262
:101A00000A0388EE93E0A0E0B0E080930C0390938B
:101A10000D03A0930E03B0930F0386E192E0909321
:101A200009038093080385EC90E09093150380935D
:101A3000140384EC90E0909317038093160380ECDA
:101A400090E0909319038093180381EC90E09093B9
:101A50001B0380931A0382EC90E090931D03809304
:101A60001C0386EC90E090931F0380931E0310925A
:101A7000210310922203109223031092240387E083
:101A800090E09093FE038093FD0388E090E09093B4
:101A900000048093FF031092030480E28093040407
:101AA0001092050485E080930B0485E090E0A0E0AF
:101AB000B0E08093110490931204A0931304B093A8
:101AC00014041092060466E972E085EA93E00E942D
:101AD000B602C0E0D0E0269666E272E0CE018B55F9
:101AE0009C4F0E94B602CC33D105A9F71092FC039B
:101AF0001092FB03DF91CF910895EE0FFF1F881F17
:101B00008BBF0790F691E02D1994CF93DF9382302D
:101B1000910510F482E090E0E0911704F091180430
:101B200020E030E0C0E0D0E0309711F140815181F9
:101B300048175907C0F04817590761F4828193810B
:101B4000209719F09B838A832BC09093180480936D
:101B5000170426C02115310519F04217530718F450
:101B60009A01BE01DF01EF010280F381E02DDCCF9D
:101B70002115310509F1281B390B2430310590F46A
:101B800012968D919C9113976115710521F0FB01BF
:101B90009383828304C09093180480931704FD01FB
:101BA000329644C0FD01E20FF31F819391932250BE
:101BB00031092D933C933AC02091150430911604BD
:101BC000232B41F420910E0230910F023093160422
:101BD0002093150420910C0230910D02211531053E
:101BE00041F42DB73EB74091100250911102241BD1
:101BF000350BE0911504F0911604E217F307A0F4F9
:101C00002E1B3F0B2817390778F0AC014E5F5F4F52
:101C10002417350748F04E0F5F1F5093160440936A
:101C200015048193919302C0E0E0F0E0CF01DF91D1
:101C3000CF9108950F931F93CF93DF93009709F4EB
:101C40008CC0FC013297138212820091170410910C
:101C500018040115110581F420813181820F931F31
:101C600020911504309116042817390779F5F0935F
:101C70001604E093150471C0D80140E050E0AE179F
:101C8000BF0750F412962D913C911397AD01211589
:101C9000310509F1D901F3CF9D01DA0133832283A4
:101CA00060817181860F971F8217930769F4EC0199
:101CB00028813981260F371F2E5F3F4F31832083C4
:101CC0008A819B8193838283452B29F4F0931804A6
:101CD000E093170442C01396FC93EE931297ED0124
:101CE000499159919E01240F351FE217F30771F4B2
:101CF00080819181840F951F029611969C938E93FB
:101D00008281938113969C938E931297E0E0F0E08A
:101D1000D80112968D919C911397009719F0F801B4
:101D20008C01F6CF8D919C9198012E5F3F4F820FD1
:101D3000931F20911504309116042817390769F470
:101D4000309729F4109218041092170402C01382DD
:101D500012821093160400931504DF91CF911F9106
:101D60000F9108956F927F928F929F92AF92BF9240
:101D7000CF92DF92EF92FF920F931F93CF93DF9357
:101D8000EC01009781F4CB01DF91CF911F910F916E
:101D9000FF90EF90DF90CF90BF90AF909F908F908B
:101DA0007F906F90B2CEFC01E60FF71F9C0122508E
:101DB0003109E217F30708F4A8C0D9010D911C916D
:101DC000119706171707A8F00530110508F49BC0F6
:101DD000C80104978617970708F495C002501109A7
:101DE000061B170B019311936D937C93CF0122DF98
:101DF0008AC05B01A01AB10A4C01800E911EA0910D
:101E00001704B091180440E050E0E12CF12C109739
:101E100009F44AC0A815B905D1F56D907C901197C9
:101E2000630182E0C80ED11CCA14DB0480F1A30157
:101E30004A195B096A0182E0C80ED11C1296BC9057
:101E400012971396AC91B5E0CB16D10440F0B28254
:101E5000A38351834083D9016D937C930AC00E5FA5
:101E60001F4FC301800F911FF90191838083EB2DD8
:101E7000FA2FE114F10431F0D7011396FC93EE939D
:101E8000129741C0F0931804E09317043CC08D9161
:101E90009C9111974817590708F4AC017D011296DF
:101EA0000D90BC91A02DB3CF809115049091160494
:101EB00088159905E1F446175707C8F480910C027C
:101EC00090910D02009741F48DB79EB7409110029A
:101ED00050911102841B950BE817F907B0F4F093A9
:101EE0001604E0931504F901718360830CC0CB01E3
:101EF0000CDE7C01009749F0A801BE011BD0CE0189
:101F000099DEC70104C0CE0102C080E090E0DF91FD
:101F1000CF911F910F91FF90EF90DF90CF90BF90E6
:101F2000AF909F908F907F906F90089581E090E0A8
:101F3000F89428C0FB01DC0102C001900D924150D1
:101F40005040D8F70895FB01DC018D910190801974
:101F50000110D9F3990B0895FB01DC0101900D925A
:101F60000020E1F70895FB01DC014150504048F0AA
:101F700001900D920020C9F701C01D9241505040C0
:101F8000E0F7089511E0C1E1D1E000E005C0802F45
:101F9000FE01B3DD2196011DC231D10780E00807A3
:061FA000B1F7F894FFCF39
:101FA6004142434445004544434241000000190470
:101FB600800000000000DA01440173012002A40140
:101FC600820196010D0A0073746172740053746184
:101FD6007274696E672E2E2E00646973636F4E6588
:101FE600696768626F72730049645F006572726F39
:101FF6007220696E2068616E645368616B65007259
:102006006571536F6E73006E6F2073756E73007219
:102016006571506970657300756E7265636F676E82
:10202600697A6564206D657373616765005F6163D6
:0A2036006B50697065003030300017
:020000023000CC
:10E000000D9489F10D94B2F10D94B2F10D94B2F129
:10E010000D94B2F10D94B2F10D94B2F10D94B2F1F0
:10E020000D94B2F10D94B2F10D94B2F10D94B2F1E0
:10E030000D94B2F10D94B2F10D94B2F10D94B2F1D0
:10E040000D94B2F10D94B2F10D94B2F10D94B2F1C0
:10E050000D94B2F10D94B2F10D94B2F10D94B2F1B0
:10E060000D94B2F10D94B2F10D94B2F10D94B2F1A0
:10E070000D94B2F10D94B2F10D94B2F10D94B2F190
:10E080000D94B2F10D94B2F10D94B2F10D94B2F180
:10E090000D94B2F10D94B2F10D94B2F10D94B2F170
:10E0A0000D94B2F10D94B2F10D94B2F10D94B2F160
:10E0B0000D94B2F10D94B2F10D94B2F10D94B2F150
:10E0C0000D94B2F10D94B2F10D94B2F10D94B2F140
:10E0D0000D94B2F10D94B2F10D94B2F10D94B2F130
:10E0E0000D94B2F141546D656761323536300041AF
:10E0F000726475696E6F206578706C6F72657220DE
:10E1000073746B3530305632206279204D4C530099
:10E11000426F6F746C6F616465723E004875683F52
:10E1200000436F6D70696C6564206F6E203D200048
:10E130004350552054797065202020203D20005FF9
:10E140005F4156525F415243485F5F3D2000415658
:10E1500052204C696243205665723D20004743437C
:10E160002056657273696F6E203D20004350552024
:10E1700049442020202020203D20004C6F7720663D
:10E18000757365202020203D20004869676820665F
:10E190007573652020203D200045787420667573D6
:10E1A00065202020203D20004C6F636B2066757336
:10E1B000652020203D20004D617220203720323024
:10E1C000313300312E362E3800342E332E350056A2
:10E1D00023202020414444522020206F7020636F70
:10E1E00064652020202020696E73747275637469E1
:10E1F0006F6E2061646472202020496E74657272B3
:10E20000757074006E6F20766563746F7200726A49
:10E210006D702020006A6D70200057686174207056
:10E220006F72743A00506F7274206E6F7420737541
:10E2300070706F72746564004D7573742062652030
:10E2400061206C6574746572002000577269747483
:10E25000696E672045450052656164696E672045B7
:10E26000450045452065727220636E743D00504F35
:10E27000525400303D5A65726F2061646472003FF1
:10E280003D43505520737461747300403D454550C3
:10E29000524F4D207465737400423D426C696E6B41
:10E2A000204C454400453D44756D70204545505215
:10E2B0004F4D00463D44756D7020464C415348001B
:10E2C000483D48656C70004C3D4C69737420492F83
:10E2D0004F20506F72747300513D51756974005234
:10E2E0003D44756D702052414D00563D73686F7707
:10E2F00020696E7465727275707420566563746FF0
:10E30000727300593D506F727420626C696E6B00BD
:10E310002A0011241FBECFEFD1E2DEBFCDBF01E046
:10E320000CBF12E0A0E0B2E0EEE1FDEF03E00BBFB6
:10E3300002C007900D92A030B107D9F712E0A0E01B
:10E34000B2E001C01D92AE30B107E1F70F9460F367
:10E350000D948DFE01E20EBF0FEF0DBF11241FBE05
:10E360000D9460F30D9400F020E030E040ED57E0B4
:10E3700005C0FA013197F1F72F5F3F4F2817390792
:10E38000C0F308959C01260F311DC901A0E0B0E043
:10E390002F5F3F4FABBFFC018791882361F08093D3
:10E3A000C6008091C00086FFFCCF8091C0008064D1
:10E3B0008093C000EACF08958DE08093C6008091DD
:10E3C000C00086FFFCCF8091C00080648093C000B5
:10E3D0008AE08093C6008091C00086FFFCCF8091C8
:10E3E000C00080648093C00008950F94C2F10F9420
:10E3F000DCF10895FC019081992359F09093C600B7
:10E400008091C00086FFFCCF8091C0008064809323
:10E41000C0003196992379F70895282F982F929567
:10E420009F70892F805D8A3308F0895F8093C600D2
:10E430008091C00086FFFCCF8091C00080648093F3
:10E44000C000822F8F70982F905D9A3308F0995FEB
:10E450009093C6008091C00086FFFCCF8091C000E1
:10E4600080648093C00008959C01FB01853691056E
:10E470001CF46330710594F0C90164E670E00F94F8
:10E480002EFE605D7F4F6093C6008091C00086FFC6
:10E49000FCCF8091C00080648093C0002B30310598
:10E4A00014F43297B4F0C90164E670E00F942EFEC4
:10E4B0006AE070E00F942EFE605D7F4F6093C600AF
:10E4C0008091C00086FFFCCF8091C0008064809363
:10E4D000C000C9016AE070E00F942EFEC0968093E0
:10E4E000C6008091C00086FFFCCF8091C000806490
:10E4F0008093C00008951F93182F8EE692EE60E07F
:10E500000F94C2F11093C6008091C00086FFFCCF2B
:10E510008091C00080648093C0000F94DCF11F9153
:10E5200008952F923F924F925F926F927F928F92B7
:10E530009F92AF92BF92CF92DF92EF92FF920F9392
:10E540001F93DF93CF93CDB7DEB762970FB6F894E2
:10E55000DEBF0FBECDBF382E622ECA01DB015C01CB
:10E560006D01772420E2222E2E010894411C511CBB
:10E570008BC081E0A81680E0B80681E0C80680E084
:10E58000D80628F0C601AA27BB270F940DF2BB2797
:10E59000AD2D9C2D8B2D0F940DF28A2D0F940DF225
:10E5A0002092C6008091C00086FFFCCF8091C00001
:10E5B00080648093C0009DE29093C6008091C0006B
:10E5C00086FFFCCF8091C00080648093C0002092C1
:10E5D000C6008091C00086FFFCCF8091C00080649F
:10E5E0008093C00019828601750188249924A1E0D6
:10E5F0003A1651F03A1620F0B2E03B1661F409C029
:10E600000BBFF701779007C0C7010F9477FE782EF4
:10E6100002C0F7017080872D0F940DF22092C60082
:10E620008091C00086FFFCCF8091C0008064809301
:10E63000C000872D8052F401EF70F0708F3520F408
:10E64000E40DF51D708204C0E40DF51D8EE280839B
:10E650000894E11CF11C011D111D0894811C911CE2
:10E6600090E18916910409F0C2CF80E190E0A0E02A
:10E67000B0E0A80EB91ECA1EDB1E198AC2010F9493
:10E68000FAF10F94DCF16A94662009F072CF629679
:10E690000FB6F894DEBF0FBECDBFCF91DF911F91B3
:10E6A0000F91FF90EF90DF90CF90BF90AF909F9031
:10E6B0008F907F906F905F904F903F902F90089534
:10E6C0002F923F924F925F926F927F928F929F9282
:10E6D000AF92BF92CF92DF92EF92FF920F931F9370
:10E6E000DF93CF93CDB7DEB7CD53D1400FB6F894BB
:10E6F000DEBF0FBECDBF01E20EBF0FEF0DBF94B75F
:10E70000F894A89514BE80916000886180936000A1
:10E7100010926000789493FF05C0E0910002F091A0
:10E7200001021995279A2F9A8091C00082608093E8
:10E73000C00080E18093C40088E18093C1000000A4
:10E74000EE24FF24870144E0A42EB12CCC24DD2448
:10E7500024C0C5010197F1F70894E11CF11C011DCB
:10E76000111D21E2E2162EE4F20620E0020720E06D
:10E77000120718F031E0C32ED12CC801B70127ECE5
:10E780003BE140E050E00F9441FE611571058105C9
:10E79000910519F485B1805885B98091C00087FD35
:10E7A00003C0C114D104A9F2A6014F5F5F4FC25E3E
:10E7B000DE4F59834883CE51D140C25EDE4F8881FF
:10E7C0009981CE51D140019711F00D9410FEC05D9A
:10E7D000DE4F19821882C053D14060E0C15DDE4F28
:10E7E0001882CF52D14088249924C35DDE4F19820C
:10E7F0001882CD52D140C05EDE4F188219821A8233
:10E800001B82C052D140CE5CDE4F188219821A8220
:10E810001B82C253D140EE24FF2487010BBFF701B6
:10E8200007911691C45CDE4F19830883CC53D14005
:10E830000D940BFEC25EDE4F28813981CE51D1404E
:10E840002130310509F52091C600C25EDE4F1982E4
:10E850001882CE51D14022C02F5F3F4F4F4F5F4FA4
:10E86000213082E138078AE7480780E0580780F0C6
:10E87000C45CDE4FE881F981CC53D140EF5FFF4F9C
:10E8800019F0EE27FF27099420E030E040E050E047
:10E890008091C00087FFE0CF2091C600C35DDE4FAE
:10E8A00048815981CD52D1404F5F5F4FC35DDE4FEC
:10E8B00059834883CD52D140213209F063C64A3092
:10E8C000510508F05FC60894811C911C53E0851621
:10E8D000910409F059C600E010E018C081E280936D
:10E8E000C6008091C00086FFFCCF8091C00080648C
:10E8F0008093C0002F5F3F4F2931310579F70F9486
:10E90000DCF10F5F1F4F0530110519F020E030E0FA
:10E91000E5CF10920A0210920B0210920C02109294
:10E920000D02109206021092070210920802109235
:10E930000902109202021092030210920402109235
:10E9400005028FEE90EE60E00F94F5F180E191EE1C
:10E9500060E00F94C2F18091C00087FFFCCF9091DE
:10E96000C600903608F09F759032B8F09093C600BC
:10E970008091C00086FFFCCF8091C00080648093AE
:10E98000C000A0E2A093C6008091C00086FFFCCF2B
:10E990008091C00080648093C000983409F4D7C18E
:10E9A0009934B8F4923409F459C1933458F490333B
:10E9B00019F1903308F4E3C59F33A1F1903409F0C5
:10E9C000DEC5BDC0953409F470C1963409F0D7C5D1
:10E9D00098C1923509F42BC2933538F49C3409F46C
:10E9E000F5C1913509F0CBC518C2963509F445C279
:10E9F000993509F0C4C567C483E792EE62E00F94CD
:10EA0000F5F110920602109207021092080210927D
:10EA1000090210920A0210920B0210920C0210923C
:10EA20000D0213C18FE792EE62E00F94F5F18FEEC5
:10EA300090EE60E00F94F5F181E291EE60E00F94CA
:10EA4000C2F187EB91EE60E00F94F5F180E391EE77
:10EA500060E00F94C2F184EE90EE60E00F94F5F167
:10EA60008FE391EE60E00F94C2F186E090E061E008
:10EA700070E00F9434F20F94DCF18DE591EE60E0DC
:10EA80000F94C2F189EC91EE60E00F94F5F18EE401
:10EA900091EE60E00F94C2F183EC91EE60E00F9490
:10EAA000F5F18CE691EE60E00F94C2F18EE10F94E7
:10EAB0000DF288E90F940DF281E00F940DF20F949E
:10EAC000DCF18BE791EE60E00F94C2F119E0E0E039
:10EAD000F0E010935700E4918E2F0F940DF20F94F5
:10EAE000DCF18AE891EE60E00F94C2F1E3E0F0E03F
:10EAF00010935700E4918E2F0F940DF20F94DCF1D8
:10EB000089E991EE60E00F94C2F1E2E0F0E0109349
:10EB10005700E4918E2F0F940DF20F94DCF188EAE8
:10EB200091EE60E00F94C2F1E1E0F0E01093570045
:10EB30001491812F0F940DF20F94DCF107CF8BE825
:10EB400092EE62E00F94F5F18BE492EE60E00F94A8
:10EB5000F5F10F94DCF100E010E019C0C8016F2D51
:10EB60000F947FFEFF2031F489E492EE60E00F9471
:10EB7000C2F10BC0F092C6008091C00086FFFCCFAE
:10EB80008091C00080648093C0000F5F1F4FC80158
:10EB900081519F41A0E0B0E0ABBFFC01F790BAE229
:10EBA000FB1621F0E2E000301E07C1F60F94DCF105
:10EBB0000F94DCF187E592EE60E00F94F5F10F948D
:10EBC000DCF1CC24DD2400E010E01EC0C8010F946D
:10EBD00077FEF82E882331F489E492EE60E00F94FA
:10EBE000C2F10BC08093C6008091C00086FFFCCFAD
:10EBF0008091C00080648093C000FE1419F00894D6
:10EC0000C11CD11C0F5F1F4FC80181519F41A0E063
:10EC1000B0E0ABBFFC01E790FAE2EF1621F022E092
:10EC20000030120799F60F94DCF10F94DCF182E6C4
:10EC300092EE60E00F94C2F1C60161E070E00F94C3
:10EC400034F20F94DCF10F94DCF110920202109276
:10EC50000302109204021092050278CE89E992EE26
:10EC600062E00F94F5F1279A2F9A16C02F9880E052
:10EC700090E0E0EDF7E03197F1F7019684369105E9
:10EC8000C1F72F9A80E090E0E0EDF7E03197F1F7DF
:10EC9000019684369105C1F78091C00087FFE6CFC9
:10ECA0008091C00087FFFCCF64C485EA92EE62E0E9
:10ECB0000F94F5F140910202509103026091040219
:10ECC0007091050281E020E10F9491F2809102029F
:10ECD00090910302A0910402B091050280509F4FD1
:10ECE000AF4FBF4F8093020290930302A0930402A0
:10ECF000B093050280509041A040B04008F426CE69
:10ED0000A4CF83EB92EE62E00F94F5F140910602FE
:10ED100050910702609108027091090280E020E1A1
:10ED20000F9491F28091060290910702A09108023F
:10ED3000B091090280509F4FAF4FBF4F80930602A2
:10ED400090930702A0930802B0930902FFCD80ECD4
:10ED500092EE62E00F94F5F183E792EE60E00F949B
:10ED6000F5F18FE792EE60E00F94F5F18BE892EE0B
:10ED700060E00F94F5F189E992EE60E00F94F5F10F
:10ED800085EA92EE60E00F94F5F183EB92EE60E09D
:10ED90000F94F5F180EC92EE60E00F94F5F187ECC2
:10EDA00092EE60E00F94F5F188ED92EE60E00F9442
:10EDB000F5F18FED92EE60E00F94F5F18AEE92EEB0
:10EDC00060E00F94F5F183E093EEBDCD87EC92EE19
:10EDD00062E00F94F5F181E40F947BF282E40F94EA
:10EDE0007BF283E40F947BF284E40F947BF285E45E
:10EDF0000F947BF286E40F947BF287E40F947BF20E
:10EE000088E40F947BF28AE40F947BF28BE40F94F6
:10EE10007BF28CE40F947BF299CD88ED92EE62E068
:10EE20000F94F5F1772473948824992409C48FED05
:10EE300092EE62E00F94F5F140910A0250910B02BC
:10EE400060910C0270910D0282E020E10F9491F22A
:10EE500080910A0290910B02A0910C02B0910D02D8
:10EE600080509F4FAF4FBF4F80930A0290930B0289
:10EE7000A0930C02B0930D0269CD8AEE92EE62E08F
:10EE80000F94F5F184EE90EE60E00F94F5F18FECC5
:10EE900091EE60E00F94F5F1662477244301CC5D98
:10EEA000DE4F19821882C452D140D401C301B695F5
:10EEB000A79597958795CA5DDE4F88839983AA8326
:10EEC000BB83C652D140CC5DDE4FA881B981C4520C
:10EED000D1401196CC5DDE4FB983A883C452D14096
:10EEE000CD0162E070E00F9434F2B0E2B093C6005E
:10EEF0008091C00086FFFCCF8091C0008064809329
:10EF0000C000EDE2E093C6008091C00086FFFCCF18
:10EF10008091C00080648093C000F0E2F093C6004E
:10EF20008091C00086FFFCCF8091C00080648093F8
:10EF3000C000CA5DDE4FE880F9800A811B81C6529D
:10EF4000D140BB27A12F902F8F2D0F940DF2CA5DBA
:10EF5000DE4F8881C652D1400F940DF2B0E2FB2EF5
:10EF6000F092C6008091C00086FFFCCF8091C00067
:10EF700080648093C0000DE30093C6008091C000C0
:10EF800086FFFCCF8091C00080648093C00010E2B7
:10EF90001093C6008091C00086FFFCCF8091C00016
:10EFA00080648093C0008BBEF3012791C65DDE4F65
:10EFB0002883CA52D140A22EBB24CC24DD2408943D
:10EFC000611C711C811C911C8BBEF3018791282E42
:10EFD0003324442455240894611C711C811C911C09
:10EFE0008BBEF3013791C55DDE4F3883CB52D140E4
:10EFF0000894611C711C811C911C8BBEF30147910C
:10F00000C45DDE4F4883CC52D140ADEFEA2EAFEF66
:10F01000FA2EAFEF0A2FAFEF1A2F6E0C7F1C801E57
:10F02000911E142D032DF22CEE24EA0CFB1C0C1D5A
:10F030001D1D0F940DF220E22093C6008091C000A8
:10F0400086FFFCCF8091C00080648093C000C65DC5
:10F05000DE4F8881CA52D1400F940DF230E23093D6
:10F06000C6008091C00086FFFCCF8091C000806404
:10F070008093C000C45DDE4F8881CC52D1400F9494
:10F080000DF240E24093C6008091C00086FFFCCFA5
:10F090008091C00080648093C000C55DDE4F888190
:10F0A000CB52D1400F940DF250E25093C6008091A4
:10F0B000C00086FFFCCF8091C00080648093C000B8
:10F0C0008FEFE8168FEFF80680E0080780E018075A
:10F0D00031F484E092EE60E00F94C2F1DFC0D80119
:10F0E000C7018070907CA070B0708050904CA040A0
:10F0F000B040D1F52FEF3FE340E050E0E222F322B1
:10F1000004231523CA5DDE4FA880B980CA80DB8046
:10F11000C652D140AE0CBF1CC01ED11EAA0CBB1CD7
:10F12000CC1CDD1C8EE092EE60E00F94C2F1BB2798
:10F13000A12F902F8F2D0F940DF28E2D0F940DF285
:10F1400030E23093C6008091C00086FFFCCF8091F2
:10F15000C00080648093C0004EE34093C60080915D
:10F16000C00086FFFCCF87C08EE09EEFA0E0B0E03D
:10F17000E822F9220A231B239CE0E91694E9F90608
:10F1800090E0090790E0190709F088C0C45DDE4FE0
:10F19000A881CC52D140EA2EFF2400E010E0102FCD
:10F1A0000F2DFE2CEE24C55DDE4FB881CB52D14031
:10F1B000EB0EF11C011D111DD601C501817090706F
:10F1C000A070B070DC0199278827E80EF91E0A1F8D
:10F1D0001B1F20EF30E040E050E0A222B322C42207
:10F1E000D52241E1AA0CBB1CCC1CDD1C4A95D1F7F1
:10F1F000EA0CFB1C0C1D1D1D81E090E0A0E0B0E0BE
:10F20000282239224A225B2235E1220C331C441C7D
:10F21000551C3A95D1F7E20CF31C041D151D57013E
:10F220006801AA0CBB1CCC1CDD1C85E192EE60E0E1
:10F230000F94C2F1C801AA27BB270F940DF2BB2778
:10F24000A12F902F8F2D0F940DF28E2D0F940DF274
:10F2500090E29093C6008091C00086FFFCCF809121
:10F26000C00080648093C000AEE3A093C60080918C
:10F27000C00086FFFCCF8091C00080648093C000F6
:10F28000C601AA27BB270F940DF2BB27AD2D9C2DDD
:10F290008B2D0F940DF28A2D0F940DF20F94DCF14B
:10F2A000CC5DDE4FE881F981C452D140F99709F471
:10F2B0004DCBF4E0EF2EF12C012D112D6E0C7F1CA7
:10F2C000801E911EF2CD83E093EE62E00F94F5F183
:10F2D0008AE192EE60E00F94C2F18091C00087FF56
:10F2E000FCCF1091C6001F751093C6008091C0001E
:10F2F00086FFFCCF8091C00080648093C0000F9493
:10F30000DCF1812F81548A3108F036C1163409F4BA
:10F3100095C0173490F4133409F44EC0143430F40B
:10F320001134F1F0123409F01DC130C0143409F465
:10F3300059C0153409F016C16BC01A3409F4C4C0A1
:10F340001B3438F4173409F48FC0183409F00AC19B
:10F35000A1C01B3409F4D2C01C3409F003C1E8C0B9
:10F360008FEF81B90DC082B1809582B980E090E0C5
:10F37000E0EDF7E03197F1F70196883C9105C1F790
:10F380008091C00087FFEFCF12B8EFC08FEF84B934
:10F390000DC085B1809585B980E090E0E0EDF7E0A3
:10F3A0003197F1F70196883C9105C1F78091C00033
:10F3B00087FFEFCF15B8D9C08FEF87B90DC088B1DF
:10F3C000809588B980E090E0E0EDF7E03197F1F7C3
:10F3D0000196883C9105C1F78091C00087FFEFCF6F
:10F3E00018B8C3C08FEF8AB90DC08BB180958BB9A7
:10F3F00080E090E0E0EDF7E03197F1F70196883C8E
:10F400009105C1F78091C00087FFEFCF1BB8ADC059
:10F410008FEF8DB90DC08EB180958EB980E090E0F0
:10F42000E0EDF7E03197F1F70196883C9105C1F7DF
:10F430008091C00087FFEFCF1EB897C08FEF80BBD1
:10F440000DC081B3809581BB80E090E0E0EDF7E0F6
:10F450003197F1F70196883C9105C1F78091C00082
:10F4600087FFEFCF11BA81C08FEF83BB0DC084B38C
:10F47000809584BB80E090E0E0EDF7E03197F1F714
:10F480000196883C9105C1F78091C00087FFEFCFBE
:10F4900014BA6BC08FEF809301010FC080910201FD
:10F4A00080958093020180E090E0E0EDF7E03197F5
:10F4B000F1F70196883C9105C1F78091C00087FF64
:10F4C000EDCF1092020151C08FEF809304010FC065
:10F4D0008091050180958093050180E090E0E0ED4A
:10F4E000F7E03197F1F70196883C9105C1F78091DB
:10F4F000C00087FFEDCF1092050137C08FEF8093DA
:10F5000007010FC08091080180958093080180E079
:10F5100090E0E0EDF7E03197F1F70196883C910536
:10F52000C1F78091C00087FFEDCF109208011DC088
:10F530008FEF80930A010FC080910B01809580931B
:10F540000B0180E090E0E0EDF7E03197F1F70196F4
:10F55000883C9105C1F78091C00087FFEDCF1092E4
:10F560000B0103C085E292EEEEC98091C00087FFD7
:10F57000FCCF8091C600EAC988E392EEE4C98CE131
:10F5800091EEE1C988249924933011F1943028F444
:10F59000913089F09230B8F408C0953061F195301F
:10F5A000F0F0963009F048C043C02B3109F042C951
:10F5B00091E06BE13FC96227C15DDE4F2883CF52E6
:10F5C000D14092E037C9B22FA0E0622793E032C960
:10F5D000822F90E0A82BB92B622794E02BC92E3004
:10F5E00009F039C3622795E0C05DDE4F19821882A9
:10F5F000C053D1401FC9E1E0F0E0EC0FFD1FC05D3A
:10F60000DE4F08811981C053D140E00FF11F2083E4
:10F610000F5F1F4FC05DDE4F19830883C053D14079
:10F6200062270A171B0709F005C9D80196E002C92D
:10F63000261709F010C303C0973009F0FBC87724E0
:10F640009981933109F412C19431C8F4963009F4C8
:10F65000D8C0973050F4923009F406C1933009F4C1
:10F660006DC0913009F059C253C0913109F477C08F
:10F67000923108F0BBC0903109F04FC2F5C098310B
:10F6800009F487C0993150F4953109F4EFC09531F0
:10F6900008F4C6C1963109F040C2C2C19A3109F4DA
:10F6A0006CC09A3108F491C09B3109F45BC09D3164
:10F6B00009F033C29D81903359F48F81882311F46E
:10F6C0009EE11CC0813011F091E018C098E916C08D
:10F6D000892F807591F0903539F4E0E0F0E089E011
:10F6E0008093570094910AC0983539F4E3E0F0E034
:10F6F00089E080935700949101C090E01A821B82A8
:10F700008D818C831D829E831F8227E030E009C299
:10F710001A8288E08B8381E48C8386E58D8382E581
:10F720008E8389E48F8383E5888780E589878FE5E9
:10F730008A8782E38B872BE030E0F3C18A818139AD
:10F7400041F0823941F0803911F48FE005C080E04A
:10F7500003C082E001C08AE01A828B8344C0772410
:10F76000739482C08D81882311F48EE12CC0813086
:10F7700011F081E028C088E926C01A82E1E0F0E0BB
:10F7800089E08093570084918B831C8224E030E0D1
:10F79000C8C18B81803589F48C81883039F4E2E0EE
:10F7A000F0E089E08093570084910DC0E0E0F0E044
:10F7B00089E080935700849106C0E3E0F0E089E09F
:10F7C0008093570084911A82DFCF8D81836C99E0FA
:10F7D000E1E0F0E0082E90935700E89507B600FCB2
:10F7E000FDCF1A821B8223E030E09BC180EC8A832C
:10F7F000CE5CDE4F188219821A821B82C253D1401E
:10F800008EC18A8190E0A0E0B0E0582F44273327D2
:10F8100022278B8190E0A0E0B0E0DC0199278827C7
:10F82000282B392B4A2B5B2B8D8190E0A0E0B0E098
:10F83000282B392B4A2B5B2B8C8190E0A0E0B0E089
:10F84000BA2FA92F982F8827282B392B4A2B5B2BCF
:10F85000220F331F441F551FC05EDE4F288339839C
:10F860004A835B83C052D1401A8259C13A81C95C34
:10F87000DE4F3883C753D140CA5CDE4F1882C6536F
:10F88000D1408B81C82EDD24CA5CDE4F488159816E
:10F89000C653D140C42AD52A933109F082C0CE5C28
:10F8A000DE4F88819981AA81BB81C253D1408050AB
:10F8B000904CA340B04030F583E0CE5CDE4FE88052
:10F8C000F9800A811B81C253D140F70100935B008C
:10F8D00080935700E89507B600FCFDCFCE5CDE4F65
:10F8E000088119812A813B81C253D14000501F4FAA
:10F8F0002F4F3F4FCE5CDE4F088319832A833B8313
:10F90000C253D140C05EDE4F488159816A817B81FC
:10F91000C052D140DE011B9631E08C9111962C91A2
:10F9200011971296C75CDE4F2883C953D140C85C3B
:10F93000DE4F1882C853D14090E0C85CDE4FE881AA
:10F94000F981C853D1408E2B9F2B0C01FA01609393
:10F950005B0030935700E89511244E5F5F4F6F4F67
:10F960007F4F0EEFE02E0FEFF02ECE0CDF1CC114F8
:10F97000D10499F685E0C05EDE4F088119812A81A5
:10F980003B81C052D140F80120935B008093570027
:10F99000E89507B600FCFDCF81E180935700E8951C
:10F9A00035C0C05EDE4F88819981AA81BB81C0527B
:10F9B000D140B695A795979587957C018601ABE0D8
:10F9C000AA2EB12CAC0EBD1E0BC0D5016D915D01F0
:10F9D000C7010F947FFE0894E11CF11C01501040F8
:10F9E0000115110591F7A60160E070E0440F551F65
:10F9F000661F771FC05EDE4FE880F9800A811B8199
:10FA0000C052D1404E0D5F1D601F711F1A82C05E33
:10FA1000DE4F488359836A837B83C052D1407FC0C5
:10FA2000FA80C55CDE4FF882CB53D140C65CDE4F16
:10FA30001882CA53D1408B81C82EDD24C65CDE4FAC
:10FA400008811981CA53D140C02AD12A1A828981DA
:10FA5000BE016D5F7F4F843121F59601C05EDE4FA0
:10FA6000E880F9800A811B81C052D1400BBFF701A9
:10FA700087919691DB018C9311969C936E5F7F4FDB
:10FA8000D801C7010296A11DB11DC05EDE4F88835B
:10FA90009983AA83BB83C052D14022503040F1F6F3
:10FAA00036C0C05EDE4F288139814A815B81C052F9
:10FAB000D1400894C108D108760100E010E0089414
:10FAC000C11CD11C0894E11CF11C011D111DE20E8A
:10FAD000F31E041F151F21BDBB27A52F942F832FB5
:10FAE00082BD2F5F3F4F4F4F5F4FF89A80B5DB01CC
:10FAF0008D93BD012E153F054007510761F7C05E8C
:10FB0000DE4F288339834A835B83C052D1409601FC
:10FB10002D5F3F4FFB01108204C080EC8A8322E0FE
:10FB200030E08BE18093C6008091C00086FFFCCF5F
:10FB30008091C00080648093C000C15DDE4FF88179
:10FB4000CF52D140F093C6008091C00086FFFCCF19
:10FB50008091C00080648093C000432F3093C60022
:10FB60008091C00086FFFCCF8091C00080648093AC
:10FB7000C000922F2093C6008091C00086FFFCCF6A
:10FB80008091C00080648093C0008EE08093C600A6
:10FB90008091C00086FFFCCF8091C000806480937C
:10FBA000C00065E1C15DDE4FE880CF52D1406E25D7
:10FBB00069276427FE01319610C090819093C6009A
:10FBC0008091C00086FFFCCF31968091C000806498
:10FBD0008093C0006927215030402115310569F715
:10FBE0006093C6008091C00086FFFCCF8091C0006A
:10FBF00080648093C00085B1805885B9772081F4F6
:10FC0000C15DDE4F0881CF52D1400F5FC15DDE4F35
:10FC10000883CF52D14090E0A0E0B0E00D941AF4F8
:10FC200027982F9880E090E020ED37E0F901319798
:10FC3000F1F7019684369105C9F700008091C00064
:10FC40008D7F8093C00081E180935700E895EE2777
:10FC5000FF270994FFCF90E00D941AF497FB092E2B
:10FC600007260AD077FD04D02ED006D000201AF443
:10FC7000709561957F4F0895F6F7909581959F4F08
:10FC80000895A1E21A2EAA1BBB1BFD010DC0AA1FDD
:10FC9000BB1FEE1FFF1FA217B307E407F50720F0F5
:10FCA000A21BB30BE40BF50B661F771F881F991F70
:10FCB0001A9469F760957095809590959B01AC01B9
:10FCC000BD01CF010895AA1BBB1B51E107C0AA1FAC
:10FCD000BB1FA617B70710F0A61BB70B881F991FED
:10FCE0005A95A9F780959095BC01CD010895F99991
:10FCF000FECF92BD81BDF89A992780B50895262F31
:10FD0000F999FECF1FBA92BD81BD20BD0FB6F89400
:0EFD1000FA9AF99A0FBE01960895F894FFCF63
:040000033000E000E9
:00000001FF